:020000040000fa
:10000000f07f0020895c01005bea000003ef000044
:1000100000000000000000000000000000000000e0
:1000200000000000000000000000000023fa0000b3
:10003000000000000000000023fa000023fa000086
:1000400023fa000023fa000023fa0000657801007b
:100050004d45010023fa000023fa000019e00000da
:10006000c5de000023fa0000b56a010023fa000093
:1000700071dd0000e97c010023fa000023fa000092
:1000800023fa000023fa000023fa000023fa0000fc
:1000900023fa000023fa000023fa000023fa0000ec
:0400a00023fa00003f
:020000040000fa
:1000a400f8b5c046f8bc08bc9e467047015b010029
:1000b400f8b5c046f8bc08bc9e467047d95a010042
:020000040000fa
:0800c400f0030100010000003f
:020000040000fa
:1000cc00f0b5d646474680b5d9b0c94a6823d15c4d
:1000dc0024290ad88b00c74ad3589f46c64819f022
:1000ec0019f9c34a68230221d15459b00cbc90466b
:1000fc009a46f0bd19f0a2fa0028f6d0bf49c048c4
:10010c0018f028ffbf49c04818f02effb84b00224a
:10011c005a66683205219954bc4bbd4a1168196066
:10012c009188998092799a71dfe719f04df9072837
:10013c00dbd1af4a68230421d154d6e7b548042358
:10014c00037000234370b44b4360ff23037243726c
:10015c00f83b4381ad4bc36015f09cffa44a682368
:10016c002521d154c1e7ab4804230370023b4370f3
:10017c0000234360ff3303724372f83b4381a34b6c
:10018c00c36015f087ff9a4a68230121d154ace76c
:10019c00a24819f0bff8964a68230121d154a4e76c
:1001ac009f4819f0b7f8924a6a23d05a46ab42aa34
:1001bc0044a919f009fa00280ad042ab1a8846a9ba
:1001cc00984812f0bbfc8a4a68230121d1548ce771
:1001dc00874a6a23d15a944812f0b0fcf3e793484b
:1001ec0019f098f8824a68230121d1547de7804a9e
:1001fc006a23d45a19f030fa844200d33be17c4a8a
:10020c006a23d35a002b28d019f026fa784a6a238d
:10021c00d45a031bdbb2032b23d800d17de0022b75
:10022c0000d1bee0012b00d029e146ab44aa42a983
:10023c00200019f0c9f9002800d115e146a97c4825
:10024c0012f07cfc42ab19887a4812f077fc6849b2
:10025c006a228b5a01338b5211e1714819f05af80a
:10026c00d2e746ab42aa44a9200019f0adf9002808
:10027c0011d05f4a6a23d05a013080b2b83302aa37
:10028c00944663440332ff3285214900614419f0de
:10029c009bf900280bd1564a6a23d15a624812f0b6
:1002ac004dfc53496a228b5a04338b52e7e0504a77
:1002bc006a23d05a023080b24fab43aa45a919f039
:1002cc0083f90028e7d04a4a6a23d05a033080b217
:1002dc00dc3302aa944663440732ff32872149007b
:1002ec00614419f071f90028d5d0a3235b0002aa50
:1002fc009446634400934fab91225200624446a94a
:10030c004d4812f01bfc42a8838842880188c088a3
:10031c0000904a4812f012fcc3e746ab42aa44a92b
:10032c00200019f051f9002811d0314a6a23d05a13
:10033c00013080b2b83302aa944663440332ff32d0
:10034c0085214900614419f03ff900280bd1284a56
:10035c006a23d15a344812f0f1fb25496a228b5a90
:10036c0003338b528be0224a6a23d05a023080b27c
:10037c004fab43aa45a919f027f90028e7d04fab9a
:10038c009122520002a98c46624446a92c4812f0d4
:10039c00d5fb42a98b884a8809882a4812f0cefbe3
:1003ac00dbe746ab42aa44a9200019f00df900285e
:1003bc0011d00f4a6a23d05a013080b2b83302aa46
:1003cc00944663440332ff3285214900614419f09d
:1003dc00fbf8002838d1064a6a23d15a124812f089
:1003ec00adfb03496a228b5a02338b5247e0c0465d
:1003fc0078430020202a01008c510000685d002009
:10040c00356e0100f45c0020fd6d0100b45e00202f
:10041c00ec950100fc5d0020898b010090510000df
:10042c0058810100e0510000f0510000108f0100d4
:10043c008852000090520000105200002852000018
:10044c0040520000545200009122520002ab9c46d4
:10045c00624446a9c04812f071fb42ab5a88198815
:10046c00be4812f06bfbbce7bd4a6a23d15abd48ab
:10047c0012f064fbebe6ba4a68230121d154b84b65
:10048c006822985c69215854453999544a3ada657e
:10049c002be6b54818f03effb14a6c23d05a46ab58
:1004ac0042aa44a918f084ff00280ad042ab1a884b
:1004bc0046a9ae4812f042fba94a68230121d15447
:1004cc0013e6a74a6c23d15aa64812f037fbf3e780
:1004dc00a34a6c23d45a19f0c3f8844200d30ee11a
:1004ec009f4a6c23d35a002b28d019f0b9f89c4a98
:1004fc006c23d45a031bdbb2032b23d800d17de031
:10050c00022b00d1bee0012b00d0fce046ab42aa8e
:10051c0044a9200018f04cff002800d1e8e046a9bf
:10052c00934812f00bfb42ab1988924812f006fb71
:10053c008b496c228b5a01338b52e4e08a4818f0b9
:10054c00e9fed2e746ab42aa44a9200018f030ffde
:10055c00002811d0824a6c23d05a013080b2b633b5
:10056c0002aa944663440332ff3285214900614458
:10057c0018f01eff00280bd1794a6c23d15a794808
:10058c0012f0dcfa76496c228b5a04338b52bae0a7
:10059c00734a6c23d05a023080b24fab43aa45a9a0
:1005ac0018f006ff0028e7d06d4a6c23d05a0330b0
:1005bc0080b2da3302aa944663440732ff328721b1
:1005cc004900614418f0f4fe0028d5d0a3235b0049
:1005dc0002aa9446634400934fab912252006244aa
:1005ec0046a9654812f0aafa42a883884288018875
:1005fc00c0880090614812f0a1fac3e746ab42aa4a
:10060c0044a9200018f0d4fe002811d0544a6c23c1
:10061c00d05a013080b2b63302aa944663440332f6
:10062c00ff3285214900614418f0c2fe00280bd12d
:10063c004b4a6c23d15a4b4812f080fa48496c2231
:10064c008b5a03338b525ee0454a6c23d05a0230ee
:10065c0080b24fab43aa45a918f0aafe0028e7d0f8
:10066c004fab9122520002a98c46624446a94448e1
:10067c0012f064fa42a98b884a880988414812f022
:10068c005dfadbe746ab42aa44a9200018f090fec5
:10069c00002811d0324a6c23d05a013080b2b633c4
:1006ac0002aa944663440332ff3285214900614417
:1006bc0018f07efe00280bd1294a6c23d15a294808
:1006cc0012f03cfa26496c228b5a02338b521ae0f8
:1006dc009122520002ab9c46624446a91e4812f07d
:1006ec002dfa42ab5a8819881c4812f027fae9e710
:1006fc001b4a6c23d15a1b4812f020fa18e7184aef
:10070c0068230121d154164b6822985c69215854f6
:10071c00453999544a3ada65e7e4134818f0fafd7a
:10072c000f4a6e23d05a46ab42aa44a918f03afe9f
:10073c0000280ad042ab1a8846a9134812f0fef9d9
:10074c00074a68230121d154cfe4054a6e23d15abc
:10075c00044812f0f3f9f3e76852000078520000f5
:10076c0078430020f051000058810100985200009d
:10077c0088520000905200001052000028520000d5
:10078c004052000054520000e0510000bc4a6e235d
:10079c00d45a18f063ff844200d30ee1b84a6e239a
:1007ac00d35a002b28d018f059ffb54a6e23d45acf
:1007bc00031bdbb2032b23d800d17de0022b00d12d
:1007cc00bee0012b00d0fce046ab42aa44a92000bd
:1007dc0018f0e8fd002800d1e8e046a9a94812f07d
:1007ec00adf942ab1988a84812f0a8f9a4496e22b9
:1007fc008b5a01338b52e4e0a44818f08bfdd2e7fe
:10080c0046ab42aa44a9200018f0ccfd002811d018
:10081c009b4a6e23d05a013080b2b43302aa94465c
:10082c0063440332ff3285214900614418f0bafd5c
:10083c0000280bd1924a6e23d15a954812f07ef9ba
:10084c008f496e228b5a04338b52bae08c4a6e233a
:10085c00d05a023080b24fab43aa45a918f0a2fd82
:10086c000028e7d0864a6e23d05a033080b2d833a2
:10087c0002aa944663440732ff328721490061443f
:10088c0018f090fd0028d5d0a3235b0002aa944653
:10089c00634400934fab91225200624446a97d48b9
:1008ac0012f04cf942a8838842880188c0880090d5
:1008bc00794812f043f9c3e746ab42aa44a9200099
:1008cc0018f070fd002811d06d4a6e23d05a0130fb
:1008dc0080b2b43302aa944663440332ff328521ba
:1008ec004900614418f05efd00280bd1644a6e2368
:1008fc00d15a674812f022f961496e228b5a0333a0
:10090c008b525ee05e4a6e23d05a023080b24fabff
:10091c0043aa45a918f046fd0028e7d04fab912219
:10092c00520002a98c46624446a95c4812f006f9b2
:10093c0042a98b884a880988594812f0fff8dbe7ee
:10094c0046ab42aa44a9200018f02cfd002811d077
:10095c004b4a6e23d05a013080b2b43302aa94466b
:10096c0063440332ff3285214900614418f01afdbb
:10097c0000280bd1424a6e23d15a454812f0def8ba
:10098c003f496e228b5a02338b521ae0912252004d
:10099c0002ab9c46624446a9424812f0cff842abe7
:1009ac005a881988404812f0c9f8e9e7344a6e238e
:1009bc00d15a374812f0c2f818e7314a682301219e
:1009cc00d1542f4b6822985c69215854453999545d
:1009dc004a3ada65fff789fb2c4818f09bfc334840
:1009ec0018f098fc3249334812f0a8f8244a6823ce
:1009fc000121d154fff779fb244818f08bfc2cac67
:100a0c00200015f087f82c4818f084fc237b226911
:100a1c000132d2b261696439c9b22c980290606813
:100a2c000190a0680090254812f088f8144a6823b9
:100a3c000121d154fff759fb18f0d6fd04001348df
:100a4c0018f068fc1e4818f065fc01250ae0a37834
:100a5c006278009129001b4812f070f803340135bc
:100a6c00052d03d02178ff29f8d0f0e7164818f0af
:100a7c0051fc034a68230121d154fff736fbc046d1
:100a8c0078430020885200009052000058810100e9
:100a9c00f05100001052000028520000405200009b
:100aac00545200006852000078520000a45200001a
:100abc00b45e0020b4520000bc520000e4520000ae
:100acc0004530000145300002c530000e84b1a0090
:100adc0020320024002503cb24184d419342fad137
:100aec00e44818f017fce44e300017f022fa41b23b
:100afc00e24812f023f82000290016f0f5fde04939
:100b0c0011f0d2ff15f04efb04000d00d84fb86960
:100b1c00f96916f0e9fdda4911f0c6ff15f042fb50
:100b2c00069007913869796916f0defdd44911f009
:100b3c00bbff15f037fb04900591b868f96816f007
:100b4c00d3fdcf4911f0b0ff15f02cfb02900391af
:100b5c003868796816f0c8fdc94911f0a5ff15f081
:100b6c0021fb0090019122002b00c64811f0e6fffa
:100b7c0069231222f254013b1232f2544a3bf365c0
:100b8c00fff7b3fabc49a02292008b5c013bdbb2ad
:100b9c008b54002b05d1b84a68230121d154fff79f
:100bac00a4fa0c00080017f0c4f90130c1b22000ff
:100bbc0015f060fd200015f08ffaece72c220021d7
:100bcc0021a818f0eff9ab4818f0a4fbaa4c9e250d
:100bdc00ad00605d20a917f0cdfaab4be15c605d18
:100bec002caa14f03bfc00286ad0a34a535d002bbe
:100bfc0010d0012b32d0022b37d0032b3cd0042b3e
:100c0c0041d0052b0bd19c4a9f4bd15c9f4811f0d6
:100c1c0095ff04e09c4bd15c9d4811f08fff20abfd
:100c2c0019789c4811f08aff2c2221a92ca817f0c6
:100c3c0023fe00282ed1984811f080ff2c2221a9e8
:100c4c0037a817f019fe00282fd1944811f076ff21
:100c5c00894a68230121d154fff747fa864a8a4b07
:100c6c00d15c8f4811f06affd9e7834a864bd15c7f
:100c7c008c4811f063ffd2e77f4a834bd15c8a48e2
:100c8c0011f05cffcbe77c4a7f4bd15c874811f0bd
:100c9c0055ffc4e72e9b2f9a30991c9101312d984a
:100cac000090834811f04affc8e7399b3a9a3b9968
:100cbc001c910131389800907e4811f03fffc7e736
:100ccc007d4818f027fbc3e76a4818f023fb6a4df0
:100cdc00280017f02ef941b2784811f02fff784c0c
:100cec00206817f014fc774911f0defe15f05afa63
:100cfc001c901d912723e35c1b932623e35c1a9322
:100d0c002523e35c19932426a35d01331893206af1
:100d1c0017f0fdfb6b4911f0c7fe15f043fa169066
:100d2c001791e37f1593a37f1493637f1393237f12
:100d3c0001331293a06917f0eafb624911f0b4fe7b
:100d4c0015f030fa10901191e37d0f93a37d0e9363
:100d5c00637d0d93237d01330c93206917f0d7fb32
:100d6c00584911f0a1fe15f01dfa0a900b91e37b86
:100d7c000993a37b0893637b0793237b013306932f
:100d8c00a06817f0c4fb4f4911f08efe15f00afa5b
:100d9c0004900591e3790393a3790293637901930a
:100dac002379013300931c9a1d9b474811f0c6fe12
:100dbc0069231522ea54013bee544a3beb65fff7dd
:100dcc0094f92d49a02292008b5c013bdbb28b5431
:100ddc00002b05d1284a68230121d154fff785f94e
:100dec000c00080017f0a5f80130c1b2200015f076
:100dfc0041fc200015f092f9ece71e4818f08afa35
:100e0c00002220a9012017f0a1fe002221a9022016
:100e1c0017f09cfe00222ca9042017f097fe2098b6
:100e2c0017f075fb294911f03ffe15f0bbf90400d2
:100e3c000d002c9817f06bfb244911f035fe15f0c2
:100e4c00b1f902900391219817f061fb1f4911f041
:100e5c002bfe15f0a7f90090019122002b001c48e5
:100e6c0011f06cfe044a68230121d154fff73df9bf
:100e7c00685d002058810100784300203053000049
:100e8c008096184b4c530000790200001c54000053
:100e9c00885300003c5400004c540000885400005f
:100eac00a4530000c0530000dc530000fc530000ae
:100ebc0064540000a0540000c4540000f854000016
:100ecc00f45c002000007a441855000000401c46d9
:100edc009c550000fa4818f01dfa00221fa90120a9
:100eec0017f040fe002220a9022017f03bfe002242
:100efc0021a9042017f036fe00222ca9002017f09f
:100f0c0031fe1f9817f003fbee4911f0cdfd15f0e3
:100f1c0049f904000d002c9817f0f9fae94911f081
:100f2c00c3fd15f03ff904900591219817f0effae5
:100f3c00e44911f0b9fd15f035f9029003912098b0
:100f4c0017f0e5fadf4911f0affd15f02bf9009021
:100f5c00019122002b00dc4811f0f0fddb4a6823e4
:100f6c000121d154fff7c1f8d54818f0d3f91eabc5
:100f7c009a46002352461fa91f2016f0e0fd71254a
:100f8c0002ab9c46654400232a0020a9012016f0e0
:100f9c00d6fd722702ab9c46674400233a0021a978
:100fac00022016f0ccfd732602ab9c46664400234f
:100fbc0032002ca9042016f0c2fd1f9817f0a7fad6
:100fcc00c34911f071fd15f0edf81c901d91c14c49
:100fdc0053461b78e35c98462c9817f098fabc495a
:100fec0011f062fd15f0def80a900b913378e35c9a
:100ffc000893219817f08bfab54911f055fd15f0af
:10100c00d1f8069007913b78e35c0493209817f095
:10101c007efaaf4911f048fd15f0c4f80290039127
:10102c002b78e35c00931c9a1d9b4146aa4811f057
:10103c0085fda64a68230121d154fff756f8a04834
:10104c0018f068f91eab9a46002352461fa91f20c0
:10105c0016f075fd712502ab9c46654400232a00f1
:10106c0020a9012016f06bfd722702ab9c46674449
:10107c0000233a0021a9022016f061fd732602ab71
:10108c009c466644002332002ca9042016f057fd20
:10109c001f9817f03cfa8e4911f006fd15f082f8f6
:1010ac001c901d918b4c53461b78e35c98462c98f6
:1010bc0017f02dfa864911f0f7fc15f073f80a9029
:1010cc000b913378e35c0893219817f020fa804950
:1010dc0011f0eafc15f066f8069007913b78e35c9a
:1010ec000493209817f013fa794911f0ddfc15f0f0
:1010fc0059f8029003912b78e35c00931c9a1d9b8a
:10110c004146764811f01afd704a68230121d154ea
:10111c00fef7ebff6a4818f0fdf81eab9a46002369
:10112c0052461fa91f2016f01ffd712502ab9c46cd
:10113c00654400232a0020a9012016f015fd722712
:10114c0002ab9c46674400233a0021a9022016f00a
:10115c000bfd732602ab9c466644002332002ca97f
:10116c00042016f001fd1f9817f0d1f9584911f021
:10117c009bfc15f017f81c901d91564c53461b7890
:10118c00e35c98462c9817f0c2f9514911f08cfc8d
:10119c0015f008f80a900b913378e35c08932198ca
:1011ac0017f0b5f94a4911f07ffc14f0fbff0690db
:1011bc0007913b78e35c0493209817f0a8f9444915
:1011cc0011f072fc14f0eeff029003912b78e35cab
:1011dc0000931c9a1d9b4146414811f0affc3b4ac1
:1011ec0068230121d154fef780ff354818f092f89e
:1011fc001eab9a46002352461fa91f2016f0c9fcad
:10120c00712502ab9c46654400232a0020a90120cd
:10121c0016f0bffc722702ab9c46674400233a00d1
:10122c0021a9022016f0b5fc732602ab9c4666443d
:10123c00002332002ca9042016f0abfc1f9817f0e9
:10124c0066f9234911f030fc14f0acff1c901d9191
:10125c00204c53461b78e35c98462c9817f057f9b2
:10126c001b4911f021fc14f09dff0a900b9133786f
:10127c00e35c0893219817f04af9154911f014fc16
:10128c0014f090ff069007913b78e35c0493209850
:10129c0017f03df90e4911f007fc14f083ff029092
:1012ac0003912b78e35c00931c9a1d9b41460d48df
:1012bc0011f044fc054a68230121d154fef715ffb7
:1012cc00588101000050c347d455000078430020da
:1012dc0000007a447096010014560000605600001d
:1012ec00bc56000008570000d74818f013f800212e
:1012fc002ca817f0fdf82c9817f009f9d34911f028
:10130c00d3fb14f04fff02000b00d14811f016fc78
:10131c00d04a68230121d154fef7e7feca4817f0e2
:10132c00f9ff21ac002221002ca815f045fd2c98ca
:10133c0017f0edf8c84911f0b7fb14f033ff0200b9
:10134c000b002178c548415cc54811f0f7fbc14a38
:10135c0068230121d154fef7c8febb4817f0daff11
:10136c00722602ab9c4666440023320020a9012061
:10137c0016f0bbfb732502ab9c46654400232a0088
:10138c0021a9022016f0b1fb1faf00233a002ca9b3
:10139c00042016f0aafb209817f0b9f8ae4911f00a
:1013ac0083fb14f0fffe1c901d91ac4c3378e65c73
:1013bc002c9817f0acf8a84911f076fb14f0f2fe5b
:1013cc00069007913b78e35c0493219817f09ff803
:1013dc00a14911f069fb14f0e5fe029003912b7802
:1013ec00e35c00931c9a1d9b31009e4811f0a6fbf8
:1013fc00984a68230121d154fef777fe924817f0e2
:10140c0089ff722602ab9c4666440023320020a959
:10141c00012016f07ffb732502ab9c46654400232c
:10142c002a0021a9022016f075fb1faf00233a00f9
:10143c002ca9042016f06efb209817f068f886494a
:10144c0011f032fb14f0aefe1c901d91834c3378de
:10145c00e65c2c9817f05bf87f4911f025fb14f033
:10146c00a1fe069007913b78e35c0493219817f05a
:10147c004ef8794911f018fb14f094fe0290039188
:10148c002b78e35c00931c9a1d9b3100764811f07d
:10149c0055fb704a68230121d154fef726fe6a4899
:1014ac0017f038ff1ead00232a001fa9012016f0eb
:1014bc0085fb712702ab9c46674400233a0020a9a8
:1014cc00022016f07bfb722602ab9c46664400237e
:1014dc00320021a9042016f071fb732302aa944652
:1014ec0063449a46002352462ca91f2016f066fb33
:1014fc002c9817f00cf85d4911f0d6fa14f052fe46
:10150c001c901d91554c53461b78e35c98462198d2
:10151c0016f0fdff554911f0c7fa14f043fe0a907e
:10152c000b913378e35c0893209816f0f0ff4f4949
:10153c0011f0bafa14f036fe069007913b78e35c92
:10154c0004931f9816f0e3ff484911f0adfa14f01c
:10155c0029fe029003912b78e35c00931c9a1d9b4f
:10156c004146434811f0eafa3a4a68230121d15422
:10157c00fef7bbfd374a3f4bd356002b05dc354af3
:10158c0068230121d154fef7b0fd2f4817f0c2fe9d
:10159c00304a384bd756042f03dcffb2002f01d151
:1015ac0015e0022700252b4c9f26b600a3599a68fc
:1015bc001968314811f0c2fa2e4aa35c013ba354be
:1015cc000135edb2a3590c33a351af42ecd8214bea
:1015dc006822985c69215854453999545e3ada6509
:1015ec00fef783fd1b4b692223219954013a0131eb
:1015fc009954043ada65fef778fd164b986d431c46
:10160c0014d017f02bfa002801d1fef76efd114b08
:10161c00012252429a656a329b5c222b0cd0232bfe
:10162c000ed00c4968228b54fef75ffd13494868b5
:10163c0013f0c0fefef759fd17f0c0fefef755fd86
:10164c0017f010f8fef751fd588101000000c84258
:10165c00585700007843002000002041709601008c
:10166c0080570000a45700000458000000007a4482
:10167c00605800007b02000038810100d04300203c
:020000040000fa
:10168c00000000000000000000000000000000004e
:10169c00000000000000000000000000000000003e
:1016ac00000000000000300030003000300030003e
:1016bc00300030000000300030000000000000005e
:1016cc000000000000006c006c006c006c0000005e
:1016dc0000000000000000000000000000000000fe
:1016ec00000000000000000048004800fc0048001a
:1016fc0048004800fc0048004800000000000000c2
:10170c00000000000000100010003c004000300001
:10171c000800040078001000100000000000000019
:10172c0000000000000000007c00a400a80048009d
:10173c00100014002a004a004400000000000000c1
:10174c000000000000007000880088008800700015
:10175c0088008a008a008c007000000000000000e5
:10176c00000000000000100010001000000000003d
:10177c00000000000000000000000000000000005d
:10178c0000000000080010001000200020002000c5
:10179c0020002000200010001000080000000000b5
:1017ac0000000000200010001000080008000800d5
:1017bc0008000800080010001000200000000000c5
:1017cc00000000000000280010007c001000280021
:1017dc0000000000000000000000000000000000fd
:1017ec0000000000000000000000000010001000cd
:1017fc001000fe001000100010000000000000009f
:10180c0000000000000000000000000000000000cc
:10181c00000000000000180018003000200000003c
:10182c0000000000000000000000000000000000ac
:10183c000000fe000000000000000000000000009e
:10184c00000000000000000000000000000000008c
:10185c00000000000000180018000000000000004c
:10186c000000000000000000040008000800100048
:10187c00100020002000400040000000000000008c
:10188c000000000000007800840084008c009400ac
:10189c00a400c40084008400780000000000000054
:1018ac00000000000000100030005000100010007c
:1018bc0010001000100010007c0000000000000060
:1018cc0000000000000070008800080008001000f4
:1018dc001000200020004000fc0000000000000070
:1018ec0000000000000070008800080008003000b4
:1018fc0008000800080088007000000000000000cc
:10190c000000000000000800180028002800480013
:10191c0088008800fc00080008000000000000009f
:10192c000000000000007c0080008000b800c400b3
:10193c000400040004008400780000000000000093
:10194c000000000000003800400080008000b00063
:10195c00c800840084004800300000000000000033
:10196c00000000000000fc00040004000800080057
:10197c0010001000200020004000000000000000bb
:10198c0000000000000078008400840084007800cf
:10199c0084008400840084007800000000000000b3
:1019ac0000000000000078008400840084008c009b
:1019bc007400040008001000e000000000000000ab
:1019cc0000000000000000000000000000003000db
:1019dc00300000000000300030000000000000006b
:1019ec00000000000000000000000000000060008b
:1019fc0060000000000060006000c000800000007b
:101a0c0000000000000000000000000004001800ae
:101a1c00600080006000180004000000000000005e
:101a2c0000000000000000000000000000007e002c
:101a3c00000000007e00000000000000000000001c
:101a4c00000000000000000000000000400030001a
:101a5c000c0002000c0030004000000000000000f0
:101a6c000000000000007000880008000800100052
:101a7c0020002000000020002000000000000000da
:101a8c00000000000000000000003c004200ba0012
:101a9c00aa00aa00aa00bc0040003c000000000004
:101aac000000000000001000100028002800280092
:101abc0044007c0044008200820000000000000012
:101acc00000000000000f000880088008800f00092
:101adc008800880088008800f000000000000000ea
:101aec0000000000000038004400800080008000ee
:101afc0080008000800044003800000000000000de
:101b0c00000000000000f0008800840084008400c5
:101b1c008400840084008800f000000000000000b5
:101b2c000000000000007c004000400040007800f5
:101b3c0040004000400040007c000000000000001d
:101b4c000000000000007c0040004000400040000d
:101b5c007800400040004000400000000000000001
:101b6c00000000000000380044008000800080006d
:101b7c009c008400840044003c0000000000000035
:101b8c000000000000008400840084008400fc003d
:101b9c0084008400840084008400000000000000a5
:101bac000000000000007c0010001000100010006d
:101bbc0010001000100010007c000000000000005d
:101bcc00000000000000f8000800080008000800f1
:101bdc000800080008001000e000000000000000f1
:101bec000000000000008400840088009000a00029
:101bfc00d0008800880084008400000000000000f1
:101c0c000000000000008000800080008000800048
:101c1c008000800080008000fc00000000000000bc
:101c2c0000000000000084008400cc00cc00b40054
:101c3c00b4008400840084008400000000000000d4
:101c4c000000000000008400c400c400a400a40034
:101c5c00940094008c008c008400000000000000b4
:101c6c000000000000003000480084008400840064
:101c7c008400840084004800300000000000000054
:101c8c00000000000000f000880084008400840044
:101c9c008800f00080008000800000000000000040
:101cac000000000000003000480084008400840024
:101cbc008400840084004800300020001c000000d8
:101ccc00000000000000f000880084008400880000
:101cdc00f0009000880084008400000000000000e8
:101cec0000000000000078008400800040003000fc
:101cfc0008000400040084007800000000000000cc
:101d0c00000000000000fe00100010001000100089
:101d1c001000100010001000100000000000000067
:101d2c000000000000008400840084008400840013
:101d3c00840084008400840078000000000000000f
:101d4c0000000000000082008200440044004400b7
:101d5c0044002800280028001000000000000000ab
:101d6c000000000000008400840084008400b400a3
:101d7c00b400b400780048004800000000000000e7
:101d8c000000000000008200440044002800100005
:101d9c0010002800440044008200000000000000f5
:101dac0000000000000082004400440028002800cd
:101dbc0028001000100010001000000000000000af
:101dcc00000000000000fc000400080008001000e7
:101ddc001000200040004000fe0000000000000049
:101dec0000000000e0008000800080008000800087
:101dfc0080008000800080008000e0000000000077
:101e0c0000000000000040004000200020001000f6
:101e1c00100008000800040004000000000000008e
:101e2c0000000000e0002000200020002000200026
:101e3c0020002000200020002000e0000000000016
:101e4c00000000000000100028004400000000000a
:101e5c000000000000000000000000000000000076
:101e6c000000000000000000000000000000000066
:101e7c0000000000000000007c00000000000000da
:101e8c00000000000000200010000800000000000e
:101e9c000000000000000000000000000000000036
:101eac0000000000000000000000000078000400aa
:101ebc0004007c0084008c00760000000000000010
:101ecc00000000008000800080008000b800c4008a
:101edc008400840084008800f000000000000000f2
:101eec000000000000000000000000007c008000ea
:101efc0080008000800080007c000000000000005a
:101f0c000000000002000200020002003e0042003d
:101f1c0082008200820042003e00000000000000af
:101f2c000000000000000000000000007c008200a7
:101f3c008200fe00800080007e0000000000000097
:101f4c000000000000001c0020002000fc0020000d
:101f5c002000200020002000fc00000000000000f9
:101f6c000000000000000000000000007c00840065
:101f7c008400840084008c00740004004400380049
:101f8c00000000008000800080008000b800c400c9
:101f9c0084008400840084008400000000000000a1
:101fac000000000000001000000000007000100095
:101fbc0010001000100010007c0000000000000059
:101fcc00000000000000080000000000780008007d
:101fdc000800080008000800080008001000e000d5
:101fec0000000000800080008000800088009000cd
:101ffc00a000e000900088008400000000000000b9
:10200c00000000000000f000100010001000100094
:10201c001000100010001000fe0000000000000076
:10202c00000000000000000000000000ac00d40024
:10203c0094009400940094009400000000000000b0
:10204c00000000000000000000000000b800c40008
:10205c0084008400840084008400000000000000e0
:10206c000000000000000000000000007800840068
:10207c0084008400840084007800000000000000cc
:10208c00000000000000000000000000b800c400c8
:10209c008400840084008400f800800080008000ac
:1020ac000000000000000000000000007c00840024
:1020bc0084008400840084007c000400040004007c
:1020cc00000000000000000000000000cc00300008
:1020dc002000200020002000f8000000000000007c
:1020ec000000000000000000000000007c008000e8
:1020fc008000780004000400f800000000000000dc
:10210c00000000000000000000002000fc00200087
:10211c0020002000200020001c0000000000000017
:10212c000000000000000000000000008800880093
:10213c0088008800880088007400000000000000ff
:10214c0000000000000000000000000082004400bd
:10215c0044002800280010001000000000000000bf
:10216c00000000000000000000000000840084005b
:10217c00b400b40048004800480000000000000013
:10218c0000000000000000000000000044002800d7
:10219c00280010002800440044000000000000004b
:1021ac00000000000000000000000000820044005d
:1021bc0044002800280028001000100020002000f7
:1021cc00000000000000000000000000fc00040003
:1021dc000800100020004000fc000000000000007f
:1021ec00000000000800100010000800080010009b
:1021fc00100008000800100010000800000000008b
:10220c000000000010001000100010001000000072
:10221c000000100010001000100010000000000062
:10222c000000000020001000100020002000100012
:10223c001000200020001000100020000000000002
:020000040000fa
:10224c000000ffffffff555343414c452020200069
:10225c000000ffffffff495343414c452020200065
:10226c000100ffffffff5057524d4f444520200007
:10227c000000000010004d45544552454e202000f2
:10228c001002010010004348414e4d4150492000be
:10229c005406020010004348414e4d415055200059
:1022ac003f14050010005341475045414b2020007e
:1022bc000100070010005a58434f4e464947200072
:1022cc0000000f001000495251304d5247202000a1
:1022dc008700330010004d4d4f4445302020200026
:1022ec000000340010004d4d4f444531202020009b
:1022fc0000007f00000043464752454741434300de
:10230c00000075000000454d494e54454e302000ec
:10231c00000076000000454d494e54454e312000da
:10232c0000007a000000435243444947202020001b
:10233c000010080010005341475448202020200072
:10234c0000c0060010004f565448202020202000ca
:10235c0000040900100050484c4f535354482000bf
:10236c0000040a001000494e5741524e54482000b8
:10237c0000c00b0010004f495448202020202000a2
:10238c0024130c001000465245514c4f5448200069
:10239c00ec130d00100046524551484947482000a7
:1023ac000000350010005053544152545448200042
:1023bc000000360010005153544152545448200030
:1023cc00000037001000535354415254544820001d
:1023dc00000038001000505048415345544820002c
:1023ec00000039001000515048415345544820001a
:1023fc0000003a0010005350484153455448200007
:10240c00008061001000554741494e4120202000ba
:10241c00008062001000494741494e4120202000b5
:10242c00000063001000554f4646534554412000b0
:10243c00000064001000494f4646534554412000ab
:10244c00008065001000554741494e422020200075
:10245c00008066001000494741494e422020200070
:10246c00000067001000554f46465345544220006b
:10247c00000068001000494f464653455442200066
:10248c00008069001000554741494e432020200030
:10249c0000806a001000494741494e43202020002b
:1024ac0000006b001000554f464653455443200026
:1024bc0000006c001000494f464653455443200021
:1024cc00800cffff20004d45544552204320200036
:1024dc00610831001000504c434f4e5354482000bb
:1024ec0068c432001000504c434f4e53544c2000e3
:1024fc00000041001000504f464653455441200007
:10250c00000042001000514f4646534554412000f4
:10251c00000043001000504f4646534554422000e3
:10252c00000044001000514f4646534554422000d1
:10253c00000045001000504f4646534554432000c0
:10254c00000046001000514f4646534554432000ae
:10255c0000004700100050514741494e41202000d7
:10256c0000004900100050514741494e42202000c4
:10257c0000004b00100050514741494e43202000b1
:10258c000000480010005048494120202020200025
:10259c0000004a0010005048494220202020200012
:1025ac0000004c00100050484943202020202000ff
:1025bc00000051001000504f464653455441460010
:1025cc00000052001000504f4646534554424600fe
:1025dc00000053001000504f4646534554434600ec
:1025ec00000054001000504741494e414620200045
:1025fc00000055001000504741494e424620200033
:10260c00000056001000504741494e434620200020
:10261c00000071000000454d535430202020200054
:10262c00000072000000454d535431202020200042
:10263c00000073000000454d494e545354302000a7
:10264c00000074000000454d494e54535431200095
:10265c000000780000004c41535453504920200096
:10266c00000079000000435243455252535420005d
:10267c000000b0000000504d45414e2020202000ad
:10268c000000b1000000504d45414e41202020007b
:10269c000000b2000000504d45414e422020200069
:1026ac000000b3000000504d45414e432020200057
:1026bc000000b4000000514d45414e202020200068
:1026cc000000b5000000514d45414e412020200036
:1026dc000000b6000000514d45414e422020200024
:1026ec000000b7000000514d45414e432020200012
:1026fc000000b8000000534d45414e202020200022
:10270c000000b9000000534d45414e4120202000ef
:10271c000000ba000000534d45414e4220202000dd
:10272c000000bb000000534d45414e4320202000cb
:10273c000000bc00000050464d45414e20202000ba
:10274c000000bd00000050464d45414e4120200088
:10275c000000be00000050464d45414e4220200076
:10276c000000bf00000050464d45414e4320200064
:10277c000000c0000000504d45414e4c534220001b
:10278c000000c1000000504d45414e414c534200e9
:10279c000000c2000000504d45414e424c534200d7
:1027ac000000c3000000504d45414e434c534200c5
:1027bc000000c4000000514d45414e4c53422000d6
:1027cc000000c5000000514d45414e414c534200a4
:1027dc000000c6000000514d45414e424c53420092
:1027ec000000c7000000514d45414e434c53420080
:1027fc000000c8000000534d45414e4c5342200090
:10280c000000c9000000534d45414e414c5342005d
:10281c000000ca000000534d45414e424c5342004b
:10282c000000cb000000534d45414e434c53420039
:10283c000000d0000000504d45414e4620202000a5
:10284c000000d1000000504d45414e414620200073
:10285c000000d2000000504d45414e424620200061
:10286c000000d3000000504d45414e43462020004f
:10287c000000d4000000504d45414e48202020005f
:10288c000000d5000000504d45414e41482020002d
:10289c000000d6000000504d45414e42482020001b
:1028ac000000d7000000504d45414e434820200009
:1028bc000000d900000055524d534120202020002b
:1028cc000000da00000055524d5342202020200019
:1028dc000000db00000055524d5343202020200007
:1028ec000000dc00000049524d534e2020202000f7
:1028fc000000dd00000049524d53412020202000f3
:10290c000000de00000049524d53422020202000e0
:10291c000000df00000049524d53432020202000ce
:10292c000000e0000000504d45414e464c53420023
:10293c000000e1000000504d45414e41464c530013
:10294c000000e2000000504d45414e42464c530001
:10295c000000e3000000504d45414e43464c5300ef
:10296c000000e4000000504d45414e484c534200dd
:10297c000000e5000000504d45414e41484c5300cd
:10298c000000e6000000504d45414e42484c5300bb
:10299c000000e7000000504d45414e43484c5300a9
:1029ac000000e900000055524d53414c53422000a9
:1029bc000000ea00000055524d53424c5342200097
:1029cc000000eb00000055524d53434c5342200085
:1029dc000000ed00000049524d53414c5342200081
:1029ec000000ee00000049524d53424c534220006f
:1029fc000000ef00000049524d53434c534220005d
:102a0c000000f1000000555045414b4120202000b2
:102a1c000000f2000000555045414b4220202000a0
:102a2c000000f3000000555045414b43202020008e
:102a3c000000f5000000495045414b41202020008a
:102a4c000000f6000000495045414b422020200078
:102a5c000000f7000000495045414b432020200066
:102a6c000000f80000004652455120202020200094
:102a7c000000f900000050414e474c454120200019
:102a8c000000fa00000050414e474c454220200007
:102a9c000000fb00000050414e474c4543202000f5
:102aac000000fc00000054454d5020202020200048
:102abc000000fd00000055414e474c4541202000d0
:102acc000000fe00000055414e474c4542202000be
:102adc000000ff00000055414e474c4543202000ac
:102aec000000800000004150454e455247592000df
:102afc000000810000004150454e455247594100ad
:102b0c000000820000004150454e4552475942009a
:102b1c000000830000004150454e45524759430088
:102b2c00000084000000414e454e4552475920009c
:102b3c00000085000000414e454e4552475941006a
:102b4c00000086000000414e454e45524759420058
:102b5c00000087000000414e454e45524759430046
:102b6c000000880000005250454e45524759200045
:102b7c000000890000005250454e45524759410013
:102b8c0000008a0000005250454e45524759420001
:102b9c0000008b0000005250454e455247594300ef
:102bac0000008c000000524e454e45524759200003
:102bbc0000008d000000524e454e455247594100d1
:102bcc0000008e000000524e454e455247594200bf
:102bdc0000008f000000524e454e455247594300ad
:102bec000000900000005341454e45524759540097
:102bfc0000009100000053454e45524759412000ba
:102c0c0000009200000053454e45524759422000a7
:102c1c0000009300000053454e4552475943200095
:102c2c000000a00000004150454e45524759460057
:102c3c000000a10000004150454e5247594146004a
:102c4c000000a20000004150454e52475942460038
:102c5c000000a30000004150454e52475943460026
:102c6c000000a4000000414e454e45524759460015
:102c7c000000a5000000414e454e52475941460008
:102c8c000000a6000000414e454e524759424600f6
:102c9c000000a7000000414e454e524759434600e4
:102cac000000a80000004150454e455247594800cd
:102cbc000000a90000004150454e524759414800c0
:102ccc000000aa0000004150454e524759424800ae
:102cdc000000ab0000004150454e5247594348009c
:102cec000000ac000000414e454e4552475948008b
:102cfc000000ad000000414e454e5247594148007e
:102d0c000000ae000000414e454e5247594248006b
:102d1c000000af000000414e454e52475943480059
:020000040000fa
:102d2c0030b583b0b94af823ff33d35cdbb20e2b3a
:102d3c0001d900f0e4fc9b00b54ad3589f46b34a36
:102d4c00f823ff330121d15400f0d9fc16f0fafa24
:102d5c0003280fd8032015f0c9feac4bf822ff3224
:102d6c000c21995401320a39995408326231995024
:102d7c0000f0c5fc16f0dafaa64914f061f9e9e79f
:102d8c0016f0e0fa03280ed8a04b1868a24a70215e
:102d9c0012f0bcff00280cd09c4af823ff330e2104
:102dac00d15400f0acfc16f0c1fa9c4914f048f96f
:102dbc00eae7964bf822ff320c219954013209397b
:102dcc00995408326131995000f099fc16f0bafa16
:102ddc0003280ed88d4b1868914a7f2112f096ff6c
:102dec0000280cd0894af823ff330e21d15401243a
:102dfc000de016f09bfa8b4914f022f9eae7834aae
:102e0c00f823ff330421d154002400e0002416f0f1
:102e1c0099fa032800d9a0e07c4db4235b00ea5a50
:102e2c0092b20121286812f071ff0443b5235b00b4
:102e3c00ea5a92b20221286812f068ff631e9c4184
:102e4c000443b6235b00ea5a92b20521286812f0bb
:102e5c005dff631e9c410443b7235b00ea5a92b2a8
:102e6c000721286812f052ff631e9c410443c023c3
:102e7c005b00ea5a92b20621286812f047ff631ee3
:102e8c009c410443bf235b00ea5a92b20821286894
:102e9c0012f03cff631e9c410443c1235b00ea5ac1
:102eac0092b20921286812f031ff631e9c41044341
:102ebc00c2235b00ea5a92b20a21286812f026ff5c
:102ecc00631e9c410443c3235b00ea5a92b20b215c
:102edc00286812f01bff631e9c410443c4235b0053
:102eec00ea5a92b20c21286812f010ff631e9c4122
:102efc000443c5235b00ea5a92b20d21286812f0f4
:102f0c0005ff631e9c410443b8235b00ea5a92b24e
:102f1c000f21286812f0fafe631e9c410443bc2367
:102f2c005b00ea5a92b27521286812f0effe631e1c
:102f3c009c410443bd235b00ea5a92b22868762177
:102f4c0012f0e4fe631e9c4104430cd02f4af8237c
:102f5c00ff330e21d15400f0d2fb16f0e7f93249c1
:102f6c0014f06ef858e7294bf821ff31052058541e
:102f7c00b32252009a5a92b25a81b42252009a5aef
:102f8c0092b29a81b52252009a5a92b2da81b62242
:102f9c0052009a5a92b21a82b72252009a5a92b29c
:102fac005a82c02252009a5a92b29a84bf2252007c
:102fbc009a5a92b25a84c12252009a5a92b2da8424
:102fcc00c22252009a5a92b21a85c32252009a5abd
:102fdc0092b25a85c42252009a5a92b29a85c5224c
:102fec0052009a5a92b2da85b82252009a5a92b288
:102ffc009a82bc2252009a5a92b29a83bd225200f3
:10300c009a5a92b2da83585479e3c0463848002071
:10301c00e068010000f800009a78000014f8000045
:10302c00aa55000028f8000040f8000016f08af9b4
:10303c00032873d8cb4dd9235b00ea5a92b23121c5
:10304c00286812f063fe0400da235b00ea5a92b29d
:10305c003221286812f05afe631e9c410443b923a6
:10306c005b00ea5a92b23321286812f04ffe631ebd
:10307c009c410443ba235b00ea5a92b2342128687b
:10308c0012f044fe631e9c410443c6235b00ea5ac3
:10309c0092b23521286812f039fe631e9c4104431c
:1030ac00c7235b00ea5a92b23621286812f02efe32
:1030bc00631e9c410443c8235b00ea5a92b2372139
:1030cc00286812f023fe631e9c410443c9235b0055
:1030dc00ea5a92b23821286812f018fe631e9c41fd
:1030ec000443ca235b00ea5a92b23921286812f0d1
:1030fc000dfe631e9c410443cb235b00ea5a92b243
:10310c0028683a2112f002fe631e9c4104430bd046
:10311c00944af823ff330e21d154f0e216f006f94d
:10312c00914913f08dff85e78e4bd92252009a5aa4
:10313c0092b256215a52da2252009a5a92b2023163
:10314c005a52b92252009a5a92b2da82ba225200d8
:10315c009a5a92b21a83c62252009a5a92b21a867c
:10316c00c72252009a5a92b25a86c82252009a5ad0
:10317c0092b29a86c92252009a5a92b2da86ca221e
:10318c0052009a5a92b21a87cb2252009a5a92b291
:10319c005a87f822ff3252399954b0e216f0d2f81d
:1031ac00032800d989e06f4ddb235b00ea5a92b209
:1031bc004121286812f0aafd0400dc235b00ea5ac6
:1031cc0092b24221286812f0a1fd631e9c41044377
:1031dc00dd235b00ea5a92b24321286812f096fd77
:1031ec00631e9c410443de235b00ea5a92b24421e5
:1031fc00286812f08bfd631e9c410443df235b00a7
:10320c00ea5a92b24521286812f080fd631e9c4157
:10321c000443e0235b00ea5a92b24621286812f07c
:10322c0075fd631e9c410443e1235b00ea5a92b294
:10323c004721286812f06afd631e9c410443e42375
:10324c005b00ea5a92b24821286812f05ffd631eb7
:10325c009c410443e2235b00ea5a92b2492128685c
:10326c0012f054fd631e9c410443e5235b00ea5ab3
:10327c0092b24a21286812f049fd631e9c41044316
:10328c00e3235b00ea5a92b24b21286812f03efd10
:10329c00631e9c410443e6235b00ea5a92b2286801
:1032ac004c2112f033fd631e9c4104430bd02d4a7c
:1032bc00f823ff330e21d15421e216f037f82b49b5
:1032cc0013f0befe6fe7274bdb2252009a5a92b2e4
:1032dc005a215a52dc2252009a5a92b202315a5254
:1032ec00dd2252009a5a92b202315a52de22520018
:1032fc009a5a92b202315a52df2252009a5a92b220
:10330c0002315a52e02252009a5a92b202315a5267
:10331c00e12252009a5a92b202315a52e4225200dd
:10332c009a5a92b206315a52e22252009a5a92b2e8
:10333c0004395a52e52252009a5a92b206315a5224
:10334c00e32252009a5a92b204395a52e62252009f
:10335c009a5a92b206315a52f822ff32693999546c
:10336c00cde1c046384800205cf8000074f800003d
:10337c0015f0e8ff032847d8d34de7235b00ea5a42
:10338c0092b25121286812f0c1fc0400e8235b00c2
:10339c00ea5a92b25221286812f0b8fc631e9c4182
:1033ac000443e9235b00ea5a92b25321286812f0d5
:1033bc00adfc631e9c410443ea235b00ea5a92b2c3
:1033cc005421286812f0a2fc631e9c410443eb2399
:1033dc005b00ea5a92b24921286812f097fc631eee
:1033ec009c410443ec235b00ea5a92b228684b21bf
:1033fc0012f08cfc631e9c4104430bd0b24af823a0
:10340c00ff330e21d1547ae115f090ffaf4913f040
:10341c0017feb1e7ac4be72252009a5a92b27221d6
:10342c005a52e82252009a5a92b202315a52e92266
:10343c0052009a5a92b202315a52ea2252009a5ac5
:10344c0092b202315a52eb2252009a5a92b2023183
:10345c005a52ec2252009a5a92b202315a52f82223
:10346c00ff32743999544ae115f06cff032800d9e6
:10347c0089e0954dcc235b00ea5a92b26121286811
:10348c0012f044fc0400cd235b00ea5a92b2622194
:10349c00286812f03bfc631e9c410443ce235b0066
:1034ac00ea5a92b26321286812f030fc631e9c41e8
:1034bc000443cf235b00ea5a92b26421286812f0cd
:1034cc0025fc631e9c410443d0235b00ea5a92b254
:1034dc006521286812f01afc631e9c410443d12319
:1034ec005b00ea5a92b26621286812f00ffc631e48
:1034fc009c410443d2235b00ea5a92b267212868ac
:10350c0012f004fc631e9c410443d3235b00ea5a73
:10351c0092b26821286812f0f9fb631e9c410443a7
:10352c00d4235b00ea5a92b26921286812f0eefbb0
:10353c00631e9c410443d5235b00ea5a92b26a2174
:10354c00286812f0e3fb631e9c410443d6235b0006
:10355c00ea5a92b26b21286812f0d8fb631e9c4188
:10356c000443d7235b00ea5a92b228686c2112f00c
:10357c00cdfb631e9c4104430bd0534af823ff330d
:10358c000e21d154bbe015f0d1fe514913f058fd7a
:10359c006fe74d4bcc2252009a5a92b29a87cd22a9
:1035ac0052009a5a92b2da87ce2252009a5a92b2aa
:1035bc0040215a52cf2252009a5a92b202315a5298
:1035cc00d02252009a5a92b202315a52d12252004f
:1035dc009a5a92b202315a52d22252009a5a92b24a
:1035ec0002315a52d32252009a5a92b202315a5292
:1035fc00d42252009a5a92b202315a52d522520017
:10360c009a5a92b202315a52d62252009a5a92b215
:10361c0002315a52d72252009a5a92b202315a525d
:10362c00f822ff324939995469e015f08bfe0328d2
:10363c001fd8254bb32252009a5a92b21868002117
:10364c0012f064fb00281ad01f4af823ff330e2116
:10365c00d15415f077fe03282ed81b4b18681d4a41
:10366c007f2112f053fb184af823ff330e21d1545b
:10367c0045e015f05bfe184913f0e2fcd9e7124b5c
:10368c00b32252009a5a92b25a81f822ff320a217e
:10369c00995415f057fe002403280ed80a4b1868cd
:1036ac000c4a7f2112f032fb0443dcd1064af8238a
:1036bc00ff330b21d15422e0012415f037fe0749ca
:1036cc0013f0befceae7c046384800208cf8000036
:1036dc00a8f80000a5a50000c4f80000d8f8000068
:1036ec001d4c6b469a1d7a21206811f08dfef82333
:1036fc00ff330d22e25415f025fe032802d80020da
:10370c0003b030bd15f012fe144913f099fcf6e726
:10371c00114afe235b00d058431c10d015f09ef9c3
:10372c000028ecd00c4bfe2252000121494299504a
:10373c00043a9a5cd2b2f821ff315a54dfe70849b7
:10374c00486811f037fedae715f0fcfd15f0eefdd8
:10375c00044910f0fdf8d2e738480020f0f80000da
:08376c00344a002000f90000be
:020000040000fa
:1037740030b583b0c04ac14bd45ce4b20c2c01d93f
:1037840000f099fca300be4ad3589f4615f0defd15
:10379400032805d8b84ab94b0121d15400f068fc7c
:1037a40015f0c8fdb74913f04ffcf3e714f012fb12
:1037b400b14ab24b0221d154002400f059fc15f057
:1037c400c5fd032800d9a3e06b469d1daa4c2a0021
:1037d400d921206811f01cfe2a88d223e2522a0043
:1037e400e921206811f014fe2a88f023e2522a000d
:1037f400f121206811f00cfe2a88fc23e2522a00f1
:10380400dd21206811f004fe2a88da23e2522a001e
:10381400ed21206811f0fcfd2a88f623e2522a00eb
:10382400f521206811f0f4fd2a8881235b00e2521f
:103834002a00b121206811f0ebfd2a888c23e25282
:103844002a00c121206811f0e3fd2a88ac23e2524a
:103854002a00d121206811f0dbfd2a88c423e2521a
:103864002a00e121206811f0d3fd2a88e223e252e4
:103874002a00d521206811f0cbfd2a88cc23e252fe
:103884002a00e521206811f0c3fd2a88ea23e252c8
:103894002a00b521206811f0bbfd2a889423e25246
:1038a4002a00c521206811f0b3fd2a88b423e2520e
:1038b4002a00b921206811f0abfd2a889c23e2522a
:1038c4002a00c921206811f0a3fd2a88bc23e252f2
:1038d4002a00bd21206811f09bfd2a88a423e2520e
:1038e4002a00f921206811f093fd2a8885235b00c2
:1038f400e2522a00fd21206811f08afd2a888923da
:103904005b00e2525d4b0322e254002400f0b0fb62
:1039140015f010fd5c4913f097fb55e715f016fd03
:10392400032800d9a2e06b469d1d534c2a00da21de
:10393400206811f06dfd2a88d423e2522a00ea217e
:10394400206811f065fd2a88f223e2522a00f22150
:10395400206811f05dfd2a88fe23e2522a00de2150
:10396400206811f055fd2a88dc23e2522a00ee215a
:10397400206811f04dfd2a88f823e2522a00f6212e
:10398400206811f045fd2a8882235b00e2522a0058
:10399400b221206811f03cfd2a888e23e2522a00cd
:1039a400c221206811f034fd2a88ae23e2522a0095
:1039b400d221206811f02cfd2a88c623e2522a0065
:1039c400e221206811f024fd2a88e423e2522a002f
:1039d400d621206811f01cfd2a88ce23e2522a0049
:1039e400e621206811f014fd2a88ec23e2522a0013
:1039f400b621206811f00cfd2a889623e2522a0091
:103a0400c621206811f004fd2a88b623e2522a0058
:103a1400ba21206811f0fcfc2a889e23e2522a0075
:103a2400ca21206811f0f4fc2a88be23e2522a003d
:103a3400be21206811f0ecfc2a88a623e2522a0059
:103a4400fa21206811f0e4fc2a8886235b00e25204
:103a54002a00fe21206811f0dbfc2a888a235b00ff
:103a6400e252064b0422e254002401e315f062fc06
:103a7400064913f0e9fa56e7384800200502000029
:103a8400ec7101002000010030000100440001003d
:103a940015f05cfc032800d9a3e06b469d1db24cd5
:103aa4002a00db21206811f0b3fc2a88d623e252d5
:103ab4002a00eb21206811f0abfc2a88f423e2529f
:103ac4002a00f321206811f0a3fc2a8880235b00dc
:103ad400e2522a00df21206811f09afc2a88de23b2
:103ae400e2522a00ef21206811f092fc2a88fa237e
:103af400e2522a00f721206811f08afc2a888323e5
:103b04005b00e2522a00b321206811f081fc2a886c
:103b14009023e2522a00c321206811f079fc2a88fc
:103b2400b023e2522a00d321206811f071fc2a88c4
:103b3400c623e2522a00e321206811f069fc2a8896
:103b4400e423e2522a00d721206811f061fc2a887c
:103b5400d023e2522a00e721206811f059fc2a8878
:103b6400ee23e2522a00b721206811f051fc2a8882
:103b74009823e2522a00c721206811f049fc2a88c0
:103b8400b823e2522a00bb21206811f041fc2a88a4
:103b9400a023e2522a00cb21206811f039fc2a88a4
:103ba400c023e2522a00bf21206811f031fc2a8888
:103bb400a823e2522a00fb21206811f029fc2a885c
:103bc40087235b00e2522a00ff21206811f020fcc9
:103bd4002a888b235b00e252644b0522e2540024c2
:103be40046e215f0a7fb624913f02efa55e715f0eb
:103bf400adfb03283fd86b469d1d5b4c2a00b021ca
:103c0400206811f005fc2a888a23e2522a00c02188
:103c1400206811f0fdfb2a88aa23e2522a00b4216d
:103c2400206811f0f5fb2a889223e2522a00c4216d
:103c3400206811f0edfb2a88b223e2522a00b82151
:103c4400206811f0e5fb2a889a23e2522a00c82151
:103c5400206811f0ddfb2a88ba23e2522a00bc2135
:103c6400206811f0d5fb2a88a223e2523f4b06229a
:103c7400e2540024fce115f05dfb3e4913f0e4f945
:103c8400b9e715f063fb032868d86b469d1d364cd5
:103c94002a008121206811f0bbfb8d225200a35a17
:103ca40029885b189bb2a3522a00a121206811f035
:103cb400affba1225200a35a29885b189bb2a352de
:103cc4002a00a921206811f0a3fba9225200a35abb
:103cd40029885b189bb2a3522a008521206811f021
:103ce40097fb91225200a35a29885b189bb2a352d6
:103cf4002a00a521206811f08bfba5225200a35aab
:103d040029885b189bb2a3522a00ad21206811f0c8
:103d14007ffbad225200a35a29885b189bb2a352a1
:103d24002a008921206811f073fb95225200a35abe
:103d340029885b189bb2a3522a008d21206811f0b8
:103d440067fb99225200a35a29885b189bb2a3529d
:103d5400064b2c3aff3ae254002489e115f0eafac2
:103d6400054913f071f990e7384800200502000076
:103d7400580001006c0001008400010015f0e6fa0f
:103d8400032868d86b469d1dcc4c2a0082212068ec
:103d940011f03efb8e225200a35a29885b189bb275
:103da400a3522a00a221206811f032fba322520060
:103db400a35a29885b189bb2a3522a00aa2120681f
:103dc40011f026fbaa225200a35a29885b189bb241
:103dd400a3522a008621206811f01afb9222520075
:103de400a35a29885b189bb2a3522a00a6212068f3
:103df40011f00efba6225200a35a29885b189bb22d
:103e0400a3522a00ae21206811f002fbae22520018
:103e1400a35a29885b189bb2a3522a008a212068de
:103e240011f0f6fa96225200a35a29885b189bb225
:103e3400a3522a008e21206811f0eafa9a22520035
:103e4400a35a29885b189bb2a3529d4b2d3aff3a83
:103e5400e25400240ce115f06dfa9a4913f0f4f8d9
:103e640090e715f073fa032868d86b469d1d934cb0
:103e74002a008321206811f0cbfa8f225200a35a22
:103e840029885b189bb2a3522a00a321206811f051
:103e9400bffaa2225200a35a29885b189bb2a352ec
:103ea4002a00ab21206811f0b3faab225200a35ac6
:103eb40029885b189bb2a3522a008721206811f03d
:103ec400a7fa93225200a35a29885b189bb2a352e3
:103ed4002a00a721206811f09bfaa7225200a35ab6
:103ee40029885b189bb2a3522a00af21206811f0e5
:103ef4008ffaaf225200a35a29885b189bb2a352af
:103f04002a008b21206811f083fa97225200a35ac9
:103f140029885b189bb2a3522a008f21206811f0d4
:103f240077fa9b225200a35a29885b189bb2a352aa
:103f3400634b2e3aff3ae254002499e015f0faf963
:103f4400614913f081f890e715f000fa032800d9cd
:103f540091e06b469d1d594c2a008021206811f088
:103f640057fa8c225200a35a29885b189bb2a35299
:103f74002a00a021206811f04bfaa0225200a35a73
:103f840029885b189bb2a3522a00a821206811f04b
:103f94003ffaa8225200a35a29885b189bb2a35265
:103fa4002a008421206811f033fa90225200a35a87
:103fb40029885b189bb2a3522a00a421206811f01f
:103fc40027faa4225200a35a29885b189bb2a35251
:103fd4002a00ac21206811f01bfaac225200a35a2b
:103fe40029885b189bb2a3522a008821206811f00b
:103ff4000ffa94225200a35a29885b189bb2a35249
:104004002a008c21206811f003fa98225200a35a46
:1040140029885b189bb2a352294b273aff3ae254f2
:104024006b469d1d254c2a00dc21206811f0f0f917
:104034002a88d823e25215f089f9032821d86b463f
:104044009d1d1e4c2a00f821206811f0e1f92a88f0
:1040540084235b00e2522a00fc21206811f0d8f985
:104064002a8888235b00e252154b0b22e254002479
:10407400200003b030bd15f05df9144912f0e4ffdf
:1040840067e715f057f9124912f0deffd7e715f08c
:104094005df900240228ebd915f04cf90d4912f012
:1040a400d3ffe5e715f052f915f044f90a4912f087
:1040b400cbff0124dce70024dae7c04638480020bf
:1040c4000502000098000100ac000100c0000100de
:0c40d400d8000100ec000100fc0001001d
:020000040000fa
:1040e000f0b5de4657464e464546e0b599b01390ca
:1040f0000d000092019313a810f0acff002800da25
:10410000abe38300c24a9b58002b01d000221a70f7
:10411000c04b4000c25c02921818437899461000c8
:1041200015f004f8c30700d599e3430700d59ee3d3
:10413000002d01d100f0f0fb6b681793002b01d12b
:1041400000f0edfb179b5a1eb3498a4201d81a4270
:1041500001d0012317936b789846013b012b01d9bd
:1041600001239846ae68721eab4b9a4204d83307bf
:1041700004d08026b60001e08026b600ec688023db
:104180005b049c4200d9a0e0631e23405a42534185
:104190005b421c40a14b019a9a4200d869e3009906
:1041a000002900d167e32b789b46002316934b46ea
:1041b000002b00d18be0012300220d00029813f0a8
:1041c000a7fd002800d058e3944b2900ea5c1202b6
:1041d000013beb5c1343924a1bb2934200d04ee387
:1041e0004b461d01af35ff358c466544042b00d985
:1041f00047e32b79002b00d145e32800083014f069
:1042000053fd049028000c3014f04efd1690169bc0
:104210007f2b00d83be3834b802203929c4201d842
:10422000630a039302235a461a400d9264d0013b5d
:104230005a4613405a42534102339a464346059325
:1042400015f058f91290169a0692130b0f937301fa
:104250005b0a0b93049901310e918c4663440a93d7
:10426000179b591e08915b420993530c10934346c8
:104270001193b0465346032b00d11fe3039b1c1e32
:1042800058d0210006980ef0dffe674b984265d9a2
:10429000871c7f00614b9c4667447f0a05990d008f
:1042a0007d430a9b9c466544089b5e19099b1e4002
:1042b000761b30000ef004ff002957d0013e049b0e
:1042c00002330c930223079354e0002462e716aafa
:1042d0000121029811f05cfe002800d0d5e20023f5
:1042e00004935b461b0792d4169b3f2b8fd93f3b11
:1042f00016933f2304938ae75b46db0700d4c8e2aa
:1043000002239a469ae70394b4e7484b069a9a42e6
:104310000ed9474b04330224022210998a4200d955
:10432000d0e2640002339a1e1288002af6d1c9e254
:104330000124c7e23f4b069a9a420dd93e4b043303
:10434000022404220f998a429bd8640002339a1ee9
:104350001288002af7d194e7012492e747003f181a
:1043600001377f08033701239a4693e70e9b0c938e
:1043700001230793059930000ef066fec7190b9ec6
:104380002301049aad1a5b19069a9a4200d284e27c
:10439000079b9819101a059b7b43c01a21000ef049
:1043a00053fe5346032b13d0022b49d1234b984283
:1043b0001ed9039b002b00d07de26400402ca2d9c3
:1043c0000d9b002b00d079e2802c0fd8039451e78d
:1043d0001a4b984234d8039b002b00d05fe2012c8b
:1043e00002d96308039345e70e2039e20e2037e235
:1043f0000d4b984200d9bee0039b002b00d050e249
:1044000063000393802b00d834e70e2028e2c046d7
:10441000c85e0020fc5e0020ff7f0000ff0100005e
:1044200055aaffffff010100f50f0000ffff01008b
:104430000c910100ff0f0000fc900100f5ff00004f
:1044400008964646119b984605005346012b00d01e
:10445000afe0e24b984200d925e280229200002191
:10446000009814f0a5fd0b22dd49009814f096fd8c
:104470000023009ad372023313735473079b937310
:104480009bb21b0ad37343461374009a5674b6b298
:10449000360a9674d34b0699994200d9a8e0d17494
:1044a0008bb21b0a1375019b5b0a9846129b069af6
:1044b000944663441e00f82300994b75b93b0b7674
:1044c00000234b76ff228a76cb7608001c300499b5
:1044d00014f004fe5346032b00d18fe03100009d01
:1044e0002800273014f0fafdaf75bbb21b0aeb753c
:1044f00024238022ea540233573aea54163aba493e
:1045000028002b3014f04afdff235b005522ea54ab
:10451000b64b5532ea54ff3bff3b049a2900029800
:1045200013f058f8002800d0bfe1019b5a0a52024c
:104530000021009814f03cfd059b002b00d1e7e121
:104540005346013b5a1e93415b421b06a84a9446c0
:10455000634404930023019303974746d846a34638
:104560000c9c5346032b00d1c9e00499009814f029
:10457000b5fd039de7e008964646119b9846050069
:10458000802292000021009814f012fd0b22944921
:10459000009814f003fd0023009ad37202331373c2
:1045a0005473079b93739bb21b0ad37343461374d4
:1045b0006be7802292000021009814f0f9fc0b2296
:1045c0008749009814f0eafc0023009ad372023362
:1045d00013735473079b93739bb21b0ad3734346a5
:1045e00013745346033b5a1e93415b421e404ce7f3
:1045f00000982030069914f071fd54e73100009eb8
:104600003000433014f06afd30002430390014f0db
:1046100065fd30002c30022114f060fd30230122b2
:10462000f25400233032b35401320621b154013226
:10463000b35440334d32f2540233573af254163adf
:104640006c493000473014f0a9fcff235b00552271
:10465000f254664b5532f254ff3bff3b049a310053
:10466000029812f0b7ff03000120002b00d0f7e002
:10467000049b9a1d0123009e3100029812f0aaffac
:10468000802292000021300014f092fc5a49300040
:1046900014f024fd3000e530ff30584914f01efdc1
:1046a000691e3500e935ff35280014f017fd30008c
:1046b000ed30ff30022114f011fdff235b00552285
:1046c0003500f254494b5532f254049bda1d012354
:1046d0003100029e300012f07dff01230e9a290066
:1046e000300012f077ff019b5a0a52020021280085
:1046f00014f05efc059b002b00d021e733e008217d
:104700004942009d280014f0e9fc01212b1d49427b
:10471000180014f0e3fc28000830394914f0defcde
:1047200027e7330022000099029812f053ff002877
:1047300000d0bce0802292000021009814f038fce8
:10474000a419ad1b04d02e00bd42ead93e00e8e713
:10475000019b01330193059a9a4200d901e70c9419
:104760005c46c346b8465346032b02d10c9e4746cf
:104770000fe0089c0c9e47460be02b00320000998e
:10478000029812f027ff002800d092e07619641bef
:1047900004d02500bc42f0d93d00eee75346032b80
:1047a00009d0104b0634169a9a4205d85346022b6c
:1047b00011d0053c00e00c244b46002b22d15b4677
:1047c0001b073dd500221100029811f0e1fb431eaa
:1047d0009841c0b244e00424eee7c046f50f000063
:1047e00080700100ffff0000a0700100ff010000c9
:1047f000f8ffff008c7001005252614172724161fa
:10480000ffffff0f01230022009d2900029e3000c0
:1048100013f07efa03000120002b21d14b46013b0f
:104820001b01ac466344c333ff331c7003000022fa
:104830002900300012f0cefe0028c3d001200fe086
:10484000169b149300231593009b220014a9029831
:1048500007f0d2fc0028b5d002e00b2000e00320d6
:1048600019b03cbc90469946a246ab46f0bd0a2022
:10487000f6e71120f4e71120f2e70120f0e70e201f
:10488000eee70e20ece70e20eae70120e8e70e2035
:10489000e6e71320e4e70e20e2e70e20e0e70e2033
:1048a000dee70e20dce70e20dae70120d8e7012062
:1048b000d6e70120d4e70d9b002b27d0039b1c1ebd
:1048c00000d122e5210006980ef0befb8700174bb1
:1048d0009c4667447f0a164b9c466044154b9842a1
:1048e000d9d8049a2032059d7d43ad18089b5b19e9
:1048f00009990b405b1b20218c469c446146079123
:10490000d3180c93002603239a4639e50e20a7e717
:10491000089c0c9e47463ce700231793064d17aab8
:104920000321029811f034fbfff70cfc0702000092
:0c4930000a00fffffffffe0f1c910100ba
:020000040000fa
:10493c00f0b5c14ca5440e93040000230800069268
:10494c000793302855d02e287bd1e36be26c934231
:10495c005cd25a1ce2631878002200230092019367
:10496c00302857d00123089300230022002715007c
:10497c001e001093049303970300303b092b66d958
:10498c002e2866d0089b002b01d100950196079b21
:10499c00002b00d1c6e320230343652b01d000f08c
:1049ac00dafb9799200009f02bf900280fd180230e
:1049bc001b0699420bd1979b002b00d1c1e3e36cf2
:1049cc0000200021002b02d0e36b013be363009b32
:1049dc00019c1b184c4100930194109c002c00d09e
:1049ec0088e0969813f064ff0022002308f0caf9bf
:1049fc00ade3e36be26c934204d25a1ce263187889
:104a0c0001239de7200010f06bfaf9e7200010f06d
:104a1c0067faa1e701225242d31700980199801836
:104a2c005941e36be26c00900191934205d25a1c00
:104a3c00e26318780123079392e7200010f050faf4
:104a4c00f8e7002300220893009201938ce72e28ac
:104a5c000ed1089b002b4bd1009501960133089386
:104a6c00e36be26c93423fd25a1ce263187883e703
:104a7c007c2f22dc290032000125002649197241c5
:104a8c000d001600302800d00491039a002a05d09e
:104a9c0010a9ba0052580a214a43d318ba0010a9d7
:104aac005350039b0133039301230793039b092b5f
:104abc00d6d1002301370393d2e72a003300012516
:104acc0000265219734115001e003028c8d0f82258
:104adc0010ab52009b580493012304990b4310a96b
:104aec008b50564b0493bbe7200010f0f9f943e7c9
:104afc002e204ce7009a95421bd1019a964218d170
:104b0c00002e16dc01d1092d13d8069b1e2b03dcbd
:104b1c002300069ad3400cd1969813f0c9fe0600d8
:104b2c0020000f0013f0d2fe02000b003000390001
:104b3c005ce70e9b0e9adb0f9b185b1001995b4296
:104b4c00da17914203dc11d1009a9a420ed9222233
:104b5c003b4b96981a6013f0abfe0122394b524234
:104b6c0008f010f90122374b52423fe70e9b019996
:104b7c006a3bda178a4203dc11d1009a93420ed9b0
:104b8c0022222f4b96981a6013f092fe802300225b
:104b9c005b0308f0f7f8802300225b0326e7039bf6
:104bac000a21002b20d1049b082b71dc009a934224
:104bbc006edc112a6cdc092a1bd1109813f086fece
:104bcc000d000400969813f073fe02000b002000f9
:104bdc0029000be7ba0010abd35810a807934b432e
:104bec001350039b01330393039b082bf2dd013716
:104bfc00d9e7009b082b29dc109813f067fe040002
:104c0c0096980d0013f054fe02000b0020002900b2
:104c1c0008f0b8f80823009a04009b1a0a4a9b0073
:104c2c0098580d0013f044fe02000b0020002900e0
:104c3c000cf02af98be2c046bcfdffff5c040000bf
:104c4c00f05e0020ffffef7fa07a0100009b093b84
:104c5c009a009b1a069a9b181e2b02dc109ada40bb
:104c6c0016d1109813f032fe040096980d0013f034
:104c7c001ffe02000b002000290008f083f8009ba7
:104c8c00934a0a3b9b0004000d0098589be71f00b9
:104c9c007b1e9a0010a95258002af8d009210098be
:104cac000df0ccf90e1e1bd0009b002b00da093640
:104cbc00082300249b1b864a9b009b5810ad08932d
:104ccc0004940394039bbb420dd1002c03d0bb0076
:104cdc0010aa9c500137009b9e1b09360096049e1f
:104cec000023039386e0286808990ef0e3f9031972
:104cfc000f912b600899774807930df055f90f9c8d
:104d0c00039b049a444393420ad1079b002b07d17f
:104d1c00039b5a1c7f231a40009b0492093b00936f
:104d2c00039b043501330393cce7039b7a1e1d3b95
:104d3c0003937f231a40002304920793049b10aa29
:104d4c009b009b580022d9085b070a93079b0b9189
:104d5c000c930d920a9c0b9d0c9a0d9ba4185d4113
:104d6c00002d02d15b4b9c4221d95a4a00232000d2
:104d7c00290011f05ffc574a0790002320002900fe
:104d8c0011f058fc049b10a99b005a507f23791eec
:104d9c000b4004998b420dd1b1426fd0002a00d147
:104dac000f007f23049a013a1a400492c6e72200ae
:104dbc000795e7e7049ab242f3d1079a002a19d073
:104dcc007f21009a013e093200920e40b7420dd16c
:104ddc001f005a1e0a40920010a810589900049007
:104dec0010a809580498014310a811500799b30052
:104dfc0010aa9950009b112b97dd122b05d1b300f3
:104e0c0010a9354a5b5893428fd90125be4213d065
:104e1c0010aab3009b58304a93420dd92f4a9342a3
:104e2c000dd17f22731c13409f4205d09b0010a90b
:104e3c002b4a5b58934202d8009b122b52d0009bfa
:104e4c002a001b2b00dd0922039b00219b180393d6
:104e5c002b009340013b07931e4b134108933300e7
:104e6c00bb420dd10029d1d07f207a1c0240b24226
:104e7c0023d0bf0010abd9511700c7e733009ce714
:104e8c0098008446644610a820580490d0404018de
:104e9c0010a96050049c07992140089c6143b342bf
:104eac0007d1002805d17f2600985c1c09382640c4
:104ebc0000907f2001330340d2e77b1e03409b0010
:104ecc0010aad25810a904922a43ca509ee7c04691
:104edc00a07a010000ca9a3b5e7089005f7089005d
:104eec00ff092f0fbe4207d17f27721c17400022eb
:104efc007b1e9b0010a9ca50b30010aad05813f007
:104f0c00e5fc0022002306f0b1ff7f23721c1a403f
:104f1c000092ba4206d1002201371f407b1e9b0033
:104f2c0010ace25000228d4b07f02cff04000d005a
:104f3c00009b10aa9b00985813f0c8fc22002b0071
:104f4c0006f094ff04000d00969813f0b1fc2200bb
:104f5c002b000490059107f015ff039b0e9a353337
:104f6c000f939b1a069a089009910a93934200dbbf
:104f7c00bbe0002b00dabce0009301230793009bfd
:104f8c00342b00ddbae06922009b0020d21a744950
:104f9c0010f0e2fa089a099b14f04af93522009baa
:104fac000c900d91d21a00206d4910f0d5fa020028
:104fbc000b000898099914f02ffb02000b00040059
:104fcc000d000898099914f043f902000b000c9895
:104fdc000d9906f04bff089009917f21b21c0a40f5
:104fec00ba4233d0920010abd3585e4a934200d9e8
:104ffc008be0002b03d1f31c0b40bb420dd00022e5
:10500c00594b0498059907f0bdfe02000b002000d7
:10501c00290006f02bff04000d003523009a9b1a83
:10502c00012b13dd00224e4b2000290014f0f4fa62
:10503c000022002312f0b6fb002807d02000290024
:10504c000022474b06f012ff04000d000898099946
:10505c000e9b069a5b429b1a049322002b0006f0cf
:10506c0005ff0c9a0d9b14f0f3f8049b06005a1ed6
:10507c000f9b0f005b005b089a4230dc14f0c8faff
:10508c0000223a4b11f0d2f8002814d0079b002bc9
:10509c0006d0009a0a9b9b1a1a00531e9a4107923b
:1050ac00334b30003900002207f06cfe06000f0075
:1050bc00039b01330393049a039b033234339342cf
:1050cc000ada079b002b0ad00022002320002900bb
:1050dc0012f068fb002802d12222264b1a60039a98
:1050ec003000390014f090fa31e0069b0093002355
:1050fc0044e7012307930023009344e70024002393
:10510c0025000c930d941c0067e71b4a934202d0b8
:10511c0000221a4b75e7f31c0b400022bb42f8d15e
:10512c00134b6ee7002809dbe36c002b02d0e36b1a
:10513c00013be363079b002b00d04ee416220d4b82
:10514c001a600021200013f003fc002000219123a1
:10515c009b009d44f0bd0028e6da3ee465cdcd41d0
:10516c000000f03fff64cd1d0000d03f0000404325
:10517c000000e03ff05e00200065cd1d0000e83f20
:020000040000fa
:10518c003e000000446174616c6f67205365727659
:10519c00696365206e6f74207265616479210d0af4
:1051ac004170706c69636174696f6e2077696c6ca7
:1051bc002072756e20776974686f75742073746fc4
:1051cc0072616765206361706162696c697469659d
:1051dc00730d0a00252d3130730d0a252d313058f1
:1051ec000d0a0000436f756c64206e6f742072653d
:1051fc00616420726567697374657220253032644e
:10520c000d0a0000252d313073252d313073252ddd
:10521c00313073252d3130730d0a0000252d3130be
:10522c0058252d313058252d313058252d313058f9
:10523c000d0a0000252d313073252d313073252dad
:10524c003130730d0a000000252d313058252d31d9
:10525c003058252d3130580d0a000000252d3130e5
:10526c0073252d3130730d0a00000000252d3130cf
:10527c0058252d3130580d0a00000000252d3130f5
:10528c00730d0a00252d3130580d0a0025730d0ab7
:10529c0025580d0a000000004d65746572204944c4
:1052ac002069733a0d0a000025730d0a00000000f6
:1052bc0050726573656e742052544320697328795b
:1052cc00792d6d6d2d64642068683a6d6d3a737339
:1052dc00293a0d0a00000000253032752d25303298
:1052ec00752d2530327520253032753a25303275c2
:1052fc003a253032750d0a00544f55207461626c9a
:10530c00652069733a0d0a00544f5525643d2530cc
:10531c0032643a25303264205425642000000000a9
:10532c000d0a00004c617374202564204d6f6e745f
:10533c006820456e657267792069733a0d0a000022
:10534c0054543d252e32666b57682054313d252e22
:10535c0032666b57682054323d252e32666b576887
:10536c002054333d252e32666b57682054343d252e
:10537c002e32666b57680d0a000000004c61737486
:10538c002025642054696d65732055612053616735
:10539c002069733a0d0a00004c6173742025642057
:1053ac0054696d6573205562205361672069733aa7
:1053bc000d0a00004c6173742025642054696d65de
:1053cc0073205563205361672069733a0d0a0000fe
:1053dc004c6173742025642054696d657320506191
:1053ec0020726576657273652069733a0d0a000048
:1053fc004c6173742025642054696d657320506270
:10540c0020726576657273652069733a0d0a000027
:10541c004c6173742025642054696d65732050634e
:10542c0020726576657273652069733a0d0a000007
:10543c00546f74616c204e756d3d25642000000026
:10544c0073746172742074696d6520697320696e60
:10545c0076616c69642000007374617274207469e5
:10546c006d6520697320253032642d25303264201f
:10547c00253032643a25303264200000656e642099
:10548c0074696d6520697320696e76616c69640d51
:10549c000a000000656e642074696d6520697320d4
:1054ac00253032642d2530326420253032643a2583
:1054bc003032640d0a0000004d6178696d756d2005
:1054cc006e756d626572206f66207265706f727496
:1054dc006564206576656e747320657863656564b4
:1054ec0065643a2031300d0a000000004c61737481
:1054fc00202564204d6f6e7468204d617844656d75
:10550c00616e642069733a0d0a00000054543d2505
:10551c002e33666b572025642d256420253032648c
:10552c003a253032642054313d252e33666b57209a
:10553c0025642d256420253032643a2530326420d0
:10554c0054323d252e33666b572025642d2564205f
:10555c00253032643a253032642054333d252e33c5
:10556c00666b572025642d256420253032643a253e
:10557c003032642054343d252e33666b572025641d
:10558c002d256420253032643a253032640d0a0012
:10559c0050726573656e7420766f6c7461676520ec
:1055ac006973203a0d0a55613d2b252e3366562022
:1055bc0055623d2b252e3366562055633d2b252eeb
:1055cc003366560d0a00000050726573656e7420c8
:1055dc0063757272656e74206973203a0d0a4961a5
:1055ec003d2b252e3466412049623d2b252e3466f9
:1055fc00412049633d2b252e34664120496e3d25c3
:10560c002b2e3466410d0a0050726573656e742042
:10561c0061637469766520706f7765722069732099
:10562c003a0d0a50743d2563252e33665720506180
:10563c003d2563252e3366572050623d2563252e6c
:10564c003366572050633d2563252e3366570d0a6c
:10565c000000000050726573656e742046756e64b0
:10566c00616d656e74616c20616374697665207020
:10567c006f776572206973203a0d0a4650743d2588
:10568c0063252e336657204650613d2563252e3306
:10569c006657204650623d2563252e3366572046bb
:1056ac0050633d2563252e3366570d0a000000001c
:1056bc0050726573656e742072656163746976658a
:1056cc0020706f776572206973203a0d0a51743d12
:1056dc002563252e3366572051613d2563252e33d6
:1056ec0066572051623d2563252e33665720516342
:1056fc003d2563252e3366570d0a000050726573e5
:10570c00656e74206170706172656e7420706f7755
:10571c006572206973203a0d0a53743d2563252e5a
:10572c00336656412053613d2563252e3366564121
:10573c002053623d2563252e336656412053633d2d
:10574c002563252e336656410d0a00005072657391
:10575c00656e74206672657175656e637920697308
:10576c00203a200d0a467265713d252e3266487a24
:10577c000d0a000050726573656e742074656d704f
:10578c0065726174757265206973203a20256325f2
:10579c002e31660d0a000000566f6c7461676558f7
:1057ac002076732043757272656e745820616e6733
:1057bc006c65206973203a200d0a416e676c655f39
:1057cc0056412d49413d2563252e336620416e6798
:1057dc006c655f56422d49423d2563252e3366206c
:1057ec00416e676c655f56432d49433d2563252efd
:1057fc0033660d0a00000000566f6c7461676520fb
:10580c00616e642063757272656e7420616e676c74
:10581c0065206973203a200d0a416e676c655f56ee
:10582c00412d56413d2563252e336620416e676c14
:10583c00655f56422d56413d2563252e336620412a
:10584c006e676c655f56432d56413d2563252e339f
:10585c00660d0a00566f6c7461676520616e64207a
:10586c0063757272656e7420616e676c6520697306
:10587c00203a200d0a5046743d2563252e336620b0
:10588c005046613d2563252e3366205046623d25ea
:10589c0063252e3366205046633d2563252e3366e3
:0458ac000d0a0000e1
:020000040000fa
:1058b00030b583b013f04cfd032830d8cb4b9b8b15
:1058c0009bb20024002b30d1c84bdb8b9bb2002b4a
:1058d00000d0dae16b469d1dc44b18682a0079217f
:1058e0000ff098fd2b88002b00d0dae2bf4b9b8b8a
:1058f0009bb2002b00d0e7e2bc4bdb8b9bb2002bb2
:1059000000d0eae2b94a81239b000121d15413f06f
:105910001ffd032800d9e9e2200003b030bd13f0d9
:105920000bfdb34911f092fbc8e7b24a14007e3c6c
:10593000712120680ff06efd2200823273212068f1
:105940000ff068fd8223e35a00249b065cd4a74a2b
:105950008223d35a5b0671d4a44a8223d35adb062e
:1059600000d586e0a14a8223d35a9b0500d59be04f
:105970009e4a8223d35adb0500d5b0e09b4a82239e
:10598000d35adb0400d5c5e0984a8223d35adb04fe
:1059900000d5dae0954a8223d35a5b0500d5efe0c3
:1059a000924a8223d35a1bb2002b00da03e18f4aba
:1059b0008223d35a5b0400d534e18c4a8223d35a24
:1059c0009b0400d547e1894a8223d35a1b0600d4a1
:1059d0007ae77e23d35a88491b06db0f5b008a785f
:1059e0000220824313438b7013f0b2fc012402287f
:1059f00000d869e713f0a0fc7f4b9a789207d20f8a
:105a00007e490df0abff5fe7784a7e23d35a7a498f
:105a10009b06da0fcb78012083431343cb7013f03e
:105a200097fc0134022892d913f086fc724bda7885
:105a3000d207d20f72490df091ff88e77e23d35a27
:105a40006d495b06db0f5b00ca780220824313437b
:105a5000cb7013f07dfc0124022800d87ce713f002
:105a60006bfc654bda789207d20f66490df076ff32
:105a700072e77e23d35a6049db06db0f9b00ca78ae
:105a8000042082431343cb7013f062fc01240228ec
