:020000040000fa
:10000000f87f0020d16c0100ebfc0000930101009f
:1000100000000000000000000000000000000000e0
:10002000000000000000000000000000b30c010010
:100030000000000000000000b30c0100b30c010040
:10004000b30c0100b30c0100b30c010039870100af
:10005000f1550100b30c0100b30c0100a9f200003e
:1000600055f10000b30c0100b9790100b30c010097
:1000700001f000000d8c0100b30c0100b30c010075
:10008000b30c0100b30c0100b30c0100b30c010070
:10009000b30c0100b30c0100b30c0100b30c010060
:0400a000b30c01009c
:020000040000fa
:1000a400f8b5c046f8bc08bc9e467047496b0100d1
:1000b400f8b5c046f8bc08bc9e467047216b0100e9
:020000040000fa
:0800c4006017010001000000bb
:020000040000fa
:1000cc00f0b5d646474680b5d9b0c94a6823d15c4d
:1000dc0024290ad88b00c74ad3589f46c6481af021
:1000ec0063f8c34a68230221d15459b00cbc904622
:1000fc009a46f0bd1af0f7f90028f6d0bf49c0486f
:10010c0019f080febf49c04819f086feb84b00229a
:10011c005a66683205219954bc4bbd4a1168196066
:10012c009188998092799a71dfe71af097f80728ed
:10013c00dbd1af4a68230421d154d6e7b548042358
:10014c00037000234370b44b4360ff23037243726c
:10015c00f83b4381ad4bc36016f036ffa44a6823cd
:10016c002521d154c1e7ab4804230370023b4370f3
:10017c0000234360ff3303724372f83b4381a34b6c
:10018c00c36016f021ff9a4a68230121d154ace7d1
:10019c00a2481af009f8964a68230121d154a4e721
:1001ac009f481af001f8924a6a23d05a46ab42aae9
:1001bc0044a91af05bf900280ad042ab1a8846a968
:1001cc00984813f0fbfd8a4a68230121d1548ce72f
:1001dc00874a6a23d15a944813f0f0fdf3e7934809
:1001ec0019f0e2ff824a68230121d1547de7804a4d
:1001fc006a23d45a1af086f9844200d33be17c4a34
:10020c006a23d35a002b28d01af07cf9784a6a2337
:10021c00d45a031bdbb2032b23d800d17de0022b75
:10022c0000d1bee0012b00d029e146ab44aa42a983
:10023c0020001af01bf9002800d115e146a97c48d2
:10024c0013f0bcfd42ab19887a4813f0b7fd68492e
:10025c006a228b5a01338b5211e1714819f0a4ffb9
:10026c00d2e746ab42aa44a920001af0fff80028b6
:10027c0011d05f4a6a23d05a013080b2b83302aa37
:10028c00944663440332ff328521490061441af0dd
:10029c00edf800280bd1564a6a23d15a624813f064
:1002ac008dfd53496a228b5a04338b52e7e0504a36
:1002bc006a23d05a023080b24fab43aa45a91af038
:1002cc00d5f80028e7d04a4a6a23d05a033080b2c6
:1002dc00dc3302aa944663440732ff32872149007b
:1002ec0061441af0c3f80028d5d0a3235b0002aafe
:1002fc009446634400934fab91225200624446a94a
:10030c004d4813f05bfd42a8838842880188c08861
:10031c0000904a4813f052fdc3e746ab42aa44a9e9
:10032c0020001af0a3f8002811d0314a6a23d05ac1
:10033c00013080b2b83302aa944663440332ff32d0
:10034c008521490061441af091f800280bd1284a04
:10035c006a23d15a344813f031fd25496a228b5a4d
:10036c0003338b528be0224a6a23d05a023080b27c
:10037c004fab43aa45a91af079f80028e7d04fab48
:10038c009122520002a98c46624446a92c4813f0d3
:10039c0015fd42a98b884a8809882a4813f00efd5e
:1003ac00dbe746ab42aa44a920001af05ff800280c
:1003bc0011d00f4a6a23d05a013080b2b83302aa46
:1003cc00944663440332ff328521490061441af09c
:1003dc004df8002838d1064a6a23d15a124813f036
:1003ec00edfc03496a228b5a02338b5247e0c0461c
:1003fc0068420020a03c0100f4660000985c0020dc
:10040c00397d01004c5c0020017d0100385e00202c
:10041c0090a40100745d0020f9990100f8660000b9
:10042c002c9001004867000058670000c09d010037
:10043c00f0670000f8670000786700009067000024
:10044c00a8670000bc6700009122520002ab9c46da
:10045c00624446a9c04813f0b1fc42ab5a881988d3
:10046c00be4813f0abfcbce7bd4a6a23d15abd4869
:10047c0013f0a4fcebe6ba4a68230121d154b84b23
:10048c006822985c69215854453999544a3ada657e
:10049c002be6b54819f088feb14a6c23d05a46ab0e
:1004ac0042aa44a919f0cefe00280ad042ab1a8801
:1004bc0046a9ae4813f082fca94a68230121d15405
:1004cc0013e6a74a6c23d15aa64813f077fcf3e73e
:1004dc00a34a6c23d45a1af019f8844200d30ee1c3
:1004ec009f4a6c23d35a002b28d01af00ff89c4a41
:1004fc006c23d45a031bdbb2032b23d800d17de031
:10050c00022b00d1bee0012b00d0fce046ab42aa8e
:10051c0044a9200019f096fe002800d1e8e046a975
:10052c00934813f04bfc42ab1988924813f046fced
:10053c008b496c228b5a01338b52e4e08a4819f0b8
:10054c0033fed2e746ab42aa44a9200019f07afe4a
:10055c00002811d0824a6c23d05a013080b2b633b5
:10056c0002aa944663440332ff3285214900614458
:10057c0019f068fe00280bd1794a6c23d15a7948be
:10058c0013f01cfc76496c228b5a04338b52bae064
:10059c00734a6c23d05a023080b24fab43aa45a9a0
:1005ac0019f050fe0028e7d06d4a6c23d05a033066
:1005bc0080b2da3302aa944663440732ff328721b1
:1005cc004900614419f03efe0028d5d0a3235b00fe
:1005dc0002aa9446634400934fab912252006244aa
:1005ec0046a9654813f0eafb42a883884288018833
:1005fc00c0880090614813f0e1fbc3e746ab42aa08
:10060c0044a9200019f01efe002811d0544a6c2376
:10061c00d05a013080b2b63302aa944663440332f6
:10062c00ff3285214900614419f00cfe00280bd1e2
:10063c004b4a6c23d15a4b4813f0c0fb48496c22ef
:10064c008b5a03338b525ee0454a6c23d05a0230ee
:10065c0080b24fab43aa45a919f0f4fd0028e7d0ae
:10066c004fab9122520002a98c46624446a94448e1
:10067c0013f0a4fb42a98b884a880988414813f0df
:10068c009dfbdbe746ab42aa44a9200019f0dafd3a
:10069c00002811d0324a6c23d05a013080b2b633c4
:1006ac0002aa944663440332ff3285214900614417
:1006bc0019f0c8fd00280bd1294a6c23d15a2948be
:1006cc0013f07cfb26496c228b5a02338b521ae0b6
:1006dc009122520002ab9c46624446a91e4813f07c
:1006ec006dfb42ab5a8819881c4813f067fbe9e78d
:1006fc001b4a6c23d15a1b4813f060fb18e7184aad
:10070c0068230121d154164b6822985c69215854f6
:10071c00453999544a3ada65e7e4134819f044fd2f
:10072c000f4a6e23d05a46ab42aa44a919f084fd55
:10073c0000280ad042ab1a8846a9134813f03efb96
:10074c00074a68230121d154cfe4054a6e23d15abc
:10075c00044813f033fbf3e7d0670000e0670000b8
:10076c0068420020586700002c90010000680000cf
:10077c00f0670000f86700007867000090670000e1
:10078c00a8670000bc67000048670000bc4a6e23e5
:10079c00d45a19f0b9fe844200d30ee1b84a6e2344
:1007ac00d35a002b28d019f0affeb54a6e23d45a79
:1007bc00031bdbb2032b23d800d17de0022b00d12d
:1007cc00bee0012b00d0fce046ab42aa44a92000bd
:1007dc0019f032fd002800d1e8e046a9a94813f031
:1007ec00edfa42ab1988a84813f0e8faa4496e2236
:1007fc008b5a01338b52e4e0a44819f0d5fcd2e7b4
:10080c0046ab42aa44a9200019f016fd002811d0cd
:10081c009b4a6e23d05a013080b2b43302aa94465c
:10082c0063440332ff3285214900614419f004fd11
:10083c0000280bd1924a6e23d15a954813f0befa78
:10084c008f496e228b5a04338b52bae08c4a6e233a
:10085c00d05a023080b24fab43aa45a919f0ecfc38
:10086c000028e7d0864a6e23d05a033080b2d833a2
:10087c0002aa944663440732ff328721490061443f
:10088c0019f0dafc0028d5d0a3235b0002aa944609
:10089c00634400934fab91225200624446a97d48b9
:1008ac0013f08cfa42a8838842880188c088009093
:1008bc00794813f083fac3e746ab42aa44a9200057
:1008cc0019f0bafc002811d06d4a6e23d05a0130b1
:1008dc0080b2b43302aa944663440332ff328521ba
:1008ec004900614419f0a8fc00280bd1644a6e231e
:1008fc00d15a674813f062fa61496e228b5a03335e
:10090c008b525ee05e4a6e23d05a023080b24fabff
:10091c0043aa45a919f090fc0028e7d04fab9122cf
:10092c00520002a98c46624446a95c4813f046fa70
:10093c0042a98b884a880988594813f03ffadbe7ab
:10094c0046ab42aa44a9200019f076fc002811d02d
:10095c004b4a6e23d05a013080b2b43302aa94466b
:10096c0063440332ff3285214900614419f064fc71
:10097c0000280bd1424a6e23d15a454813f01efa77
:10098c003f496e228b5a02338b521ae0912252004d
:10099c0002ab9c46624446a9424813f00ffa42aba4
:1009ac005a881988404813f009fae9e7344a6e234b
:1009bc00d15a374813f002fa18e7314a682301215b
:1009cc00d1542f4b6822985c69215854453999545d
:1009dc004a3ada65fff789fb2c4819f0e5fb3348f6
:1009ec0019f0e2fb3249334813f0e8f9244a682342
:1009fc000121d154fff779fb244819f0d5fb2cac1d
:100a0c00200016f0abf82c4819f0cefb237b2269a2
:100a1c000132d2b261696439c9b22c980290606813
:100a2c000190a0680090254813f0c8f9144a682377
:100a3c000121d154fff759fb19f028fd040013488c
:100a4c0019f0b2fb1e4819f0affb01250ae0a378a0
:100a5c006278009129001b4813f0b0f9033401357a
:100a6c00052d03d02178ff29f8d0f0e7164819f0ae
:100a7c009bfb034a68230121d154fff736fbc04688
:100a8c0068420020f0670000f86700002c9001001d
:100a9c00586700007867000090670000a8670000a6
:100aac00bc670000d0670000e06700000c68000025
:100abc00385e00201c680000246800004c680000b0
:100acc006c6800007c68000094680000e84b1a0019
:100adc0020320024002503cb24184d419342fad137
:100aec00e44819f061fbe44e300018f08cf941b287
:100afc00e24813f063f92000290017f075fde04976
:100b0c0013f012f916f0e8fa04000d00d84fb8698a
:100b1c00f96917f069fdda4913f006f916f0dcfaf9
:100b2c00069007913869796917f05efdd44913f086
:100b3c00fbf816f0d1fa04900591b868f96817f033
:100b4c0053fdcf4913f0f0f816f0c6fa029003915a
:100b5c003868796817f048fdc94913f0e5f816f0c4
:100b6c00bbfa0090019122002b00c64813f026f925
:100b7c0069231222f254013b1232f2544a3bf365c0
:100b8c00fff7b3fabc49a02292008b5c013bdbb2ad
:100b9c008b54002b05d1b84a68230121d154fff79f
:100bac00a4fa0c00080018f02ef90130c1b2200094
:100bbc0016f039fd200016f029faece72c22002162
:100bcc0021a819f047f9ab4819f0eefaaa4c9e256a
:100bdc00ad00605d20a918f037faab4be15c605dad
:100bec002caa15f05ffc00286ad0a34a535d002b99
:100bfc0010d0012b32d0022b37d0032b3cd0042b3e
:100c0c0041d0052b0bd19c4a9f4bd15c9f4813f0d4
:100c1c00d5f804e09c4bd15c9d4813f0cff820ab89
:100c2c0019789c4813f0caf82c2221a92ca818f08a
:100c3c008dfd00282ed1984813f0c0f82c2221a944
:100c4c0037a818f083fd00282fd1944813f0b6f87c
:100c5c00894a68230121d154fff747fa864a8a4b07
:100c6c00d15c8f4813f0aaf8d9e7834a864bd15c44
:100c7c008c4813f0a3f8d2e77f4a834bd15c8a48a7
:100c8c0013f09cf8cbe77c4a7f4bd15c874813f080
:100c9c0095f8c4e72e9b2f9a30991c9101312d9811
:100cac000090834813f08af8c8e7399b3a9a3b992d
:100cbc001c910131389800907e4813f07ff8c7e7fb
:100ccc007d4819f071fac3e76a4819f06dfa6a4d5c
:100cdc00280018f098f841b2784813f06ff8784c67
:100cec00206818f07efb774913f01ef816f0f4f923
:100cfc001c901d912723e35c1b932623e35c1a9322
:100d0c002523e35c19932426a35d01331893206af1
:100d1c0018f067fb6b4913f007f816f0ddf9169025
:100d2c001791e37f1593a37f1493637f1393237f12
:100d3c0001331293a06918f054fb624912f0f4ffce
:100d4c0016f0caf910901191e37d0f93a37d0e93c9
:100d5c00637d0d93237d01330c93206918f041fbc7
:100d6c00584912f0e1ff16f0b7f90a900b91e37baa
:100d7c000993a37b0893637b0793237b013306932f
:100d8c00a06818f02efb4f4912f0ceff16f0a4f914
:100d9c0004900591e3790393a3790293637901930a
:100dac002379013300931c9a1d9b474813f006f8d6
:100dbc0069231522ea54013bee544a3beb65fff7dd
:100dcc0094f92d49a02292008b5c013bdbb28b5431
:100ddc00002b05d1284a68230121d154fff785f94e
:100dec000c00080018f00ff80130c1b2200016f00a
:100dfc001afc200016f02cf9ece71e4819f0d4f977
:100e0c00002220a9012018f0d9fd002221a90220de
:100e1c0018f0d4fd00222ca9042018f0cffd209846
:100e2c0018f0dffa294912f07fff16f055f904008b
:100e3c000d002c9818f0d5fa244912f075ff16f015
:100e4c004bf902900391219818f0cbfa1f4912f03c
:100e5c006bff16f041f90090019122002b001c4809
:100e6c0012f0acff044a68230121d154fff73df97d
:100e7c00985c00202c9001006842002098680000cb
:100e8c008096184bb4680000790200008469000059
:100e9c00f0680000a4690000b4690000f06900006b
:100eac000c690000286900004469000064690000b6
:100ebc00cc690000086a00002c6a0000606a00001f
:100ecc004c5c002000007a44806a000000401c4604
:100edc00046b0000fa4819f067f900221fa90120e1
:100eec0018f078fd002220a9022018f073fd0022d2
:100efc0021a9042018f06efd00222ca9002018f066
:100f0c0069fd1f9818f06dfaee4912f00dff16f0fe
:100f1c00e3f804000d002c9818f063fae94912f07c
:100f2c0003ff16f0d9f804900591219818f059fa9e
:100f3c00e44912f0f9fe16f0cff8029003912098d4
:100f4c0018f04ffadf4912f0effe16f0c5f80090da
:100f5c00019122002b00dc4812f030ffdb4a6823a1
:100f6c000121d154fff7c1f8d54819f01df91eab7a
:100f7c009a46002352461fa91f2017f04afd7125df
:100f8c0002ab9c46654400232a0020a9012017f0df
:100f9c0040fd722702ab9c46674400233a0021a90e
:100fac00022017f036fd732602ab9c4666440023e4
:100fbc0032002ca9042017f02cfd1f9818f011fa00
:100fcc00c34912f0b1fe16f087f81c901d91c14c6c
:100fdc0053461b78e35c98462c9818f002fabc49ef
:100fec0012f0a2fe16f078f80a900b913378e35cbd
:100ffc000893219818f0f5f9b54912f095fe16f002
:10100c006bf8069007913b78e35c0493209818f0fa
:10101c00e8f9af4912f088fe16f05ef802900391e1
:10102c002b78e35c00931c9a1d9b4146aa4812f056
:10103c00c5fea64a68230121d154fff756f8a048f3
:10104c0019f0b2f81eab9a46002352461fa91f2076
:10105c0017f0dffc712502ab9c46654400232a0087
:10106c0020a9012017f0d5fc722702ab9c466744df
:10107c0000233a0021a9022017f0cbfc732602ab07
:10108c009c466644002332002ca9042017f0c1fcb6
:10109c001f9818f0a6f98e4912f046fe16f01cf8af
:1010ac001c901d918b4c53461b78e35c98462c98f6
:1010bc0018f097f9864912f037fe16f00df80a90e1
:1010cc000b913378e35c0893219818f08af98049e6
:1010dc0012f02afe16f000f8069007913b78e35cbc
:1010ec000493209818f07df9794912f01dfe15f043
:1010fc00f3ff029003912b78e35c00931c9a1d9be9
:10110c004146764812f05afe704a68230121d154a8
:10111c00fef7ebff6a4819f047f81eab9a4600231e
:10112c0052461fa91f2017f089fc712502ab9c4663
:10113c00654400232a0020a9012017f07ffc7227a8
:10114c0002ab9c46674400233a0021a9022017f009
:10115c0075fc732602ab9c466644002332002ca916
:10116c00042017f06bfc1f9818f03bf9584912f04b
:10117c00dbfd15f0b1ff1c901d91564c53461b78ae
:10118c00e35c98462c9818f02cf9514912f0ccfde0
:10119c0015f0a2ff0a900b913378e35c0893219829
:1011ac0018f01ff94a4912f0bffd15f095ff069093
:1011bc0007913b78e35c0493209818f012f94449aa
:1011cc0012f0b2fd15f088ff029003912b78e35cce
:1011dc0000931c9a1d9b4146414812f0effd3b4a7f
:1011ec0068230121d154fef780ff354818f0dcff4d
:1011fc001eab9a46002352461fa91f2017f033fc42
:10120c00712502ab9c46654400232a0020a90120cd
:10121c0017f029fc722702ab9c46674400233a0066
:10122c0021a9022017f01ffc732602ab9c466644d2
:10123c00002332002ca9042017f015fc1f9818f07d
:10124c00d0f8234912f070fd15f046ff1c901d914b
:10125c00204c53461b78e35c98462c9818f0c1f848
:10126c001b4912f061fd15f037ff0a900b91337892
:10127c00e35c0893219818f0b4f8154912f054fd6a
:10128c0015f02aff069007913b78e35c04932098b5
:10129c0018f0a7f80e4912f047fd15f01dff02904b
:1012ac0003912b78e35c00931c9a1d9b41460d48df
:1012bc0012f084fd054a68230121d154fef715ff75
:1012cc002c9001000050c3473c6b0000684200208a
:1012dc0000007a441ca501007c6b0000c86b000068
:1012ec00246c0000706c0000d74818f05dff0021e2
:1012fc002ca818f067f82c9818f073f8d34912f052
:10130c0013fd15f0e9fe02000b00d14812f056fd5a
:10131c00d04a68230121d154fef7e7feca4818f0e1
:10132c0043ff21ac002221002ca816f0c7fc2c98fe
:10133c0018f057f8c84912f0f7fc15f0cdfe020072
:10134c000b002178c548415cc54812f037fdc14af5
:10135c0068230121d154fef7c8febb4818f024ffc6
:10136c00722602ab9c4666440023320020a9012061
:10137c0017f025fb732502ab9c46654400232a001d
:10138c0021a9022017f01bfb1faf00233a002ca948
:10139c00042017f014fb209818f023f8ae4912f033
:1013ac00c3fc15f099fe1c901d91ac4c3378e65c97
:1013bc002c9818f016f8a84912f0b6fc15f08cfe13
:1013cc00069007913b78e35c0493219818f009f898
:1013dc00a14912f0a9fc15f07ffe029003912b7825
:1013ec00e35c00931c9a1d9b31009e4812f0e6fcb6
:1013fc00984a68230121d154fef777fe924818f0e1
:10140c00d3fe722602ab9c4666440023320020a910
:10141c00012017f0e9fa732502ab9c4665440023c2
:10142c002a0021a9022017f0dffa1faf00233a008f
:10143c002ca9042017f0d8fa209817f0d2ff86496f
:10144c0012f072fc15f048fe1c901d91834c337801
:10145c00e65c2c9817f0c5ff7f4912f065fc15f07f
:10146c003bfe069007913b78e35c0493219817f0c0
:10147c00b8ff794912f058fc15f02efe029003913a
:10148c002b78e35c00931c9a1d9b3100764812f07c
:10149c0095fc704a68230121d154fef726fe6a4858
:1014ac0018f082fe1ead00232a001fa9012017f0a0
:1014bc00effa712702ab9c46674400233a0020a93f
:1014cc00022017f0e5fa722602ab9c466644002314
:1014dc00320021a9042017f0dbfa732302aa9446e8
:1014ec0063449a46002352462ca91f2017f0d0fac9
:1014fc002c9817f076ff5d4912f016fc15f0ecfdf8
:10150c001c901d91554c53461b78e35c98462198d2
:10151c0017f067ff554912f007fc15f0ddfd0a9036
:10152c000b913378e35c0893209817f05aff4f49de
:10153c0012f0fafb15f0d0fd069007913b78e35cb6
:10154c0004931f9817f04dff484912f0edfb15f06e
:10155c00c3fd029003912b78e35c00931c9a1d9bb6
:10156c004146434812f02afc3a4a68230121d154df
:10157c00fef7bbfd374a3f4bd356002b05dc354af3
:10158c0068230121d154fef7b0fd2f4818f00cfe52
:10159c00304a384bd756042f03dcffb2002f01d151
:1015ac0015e0022700252b4c9f26b600a3599a68fc
:1015bc001968314812f002fc2e4aa35c013ba3547b
:1015cc000135edb2a3590c33a351af42ecd8214bea
:1015dc006822985c69215854453999545e3ada6509
:1015ec00fef783fd1b4b692223219954013a0131eb
:1015fc009954043ada65fef778fd164b986d431c46
:10160c0014d018f063f9002801d1fef76efd114bd0
:10161c00012252429a656a329b5c222b0cd0232bfe
:10162c000ed00c4968228b54fef75ffd13494868b5
:10163c0014f0e4fefef759fd18f00afefef755fd16
:10164c0017f07afffef751fd2c9001000000c84204
:10165c00c06c000068420020000020411ca5010065
:10166c00e86c00000c6d00006c6d000000007a440a
:10167c00c86d00007b0200000c900100c0420020ed
:020000040000fa
:10168c00f0b5c64600b50400ac264643d84d7519d6
:10169c002b007c331b78012b0ed0ac226243d44b35
:1016ac009b185e6d6d331a78192a01d901f0aff9c8
:1016bc009300d049cb589f462b002a007c32002146
:1016cc0011706b331b78012b20d0002b0cd0022b0c
:1016dc0030d0032b00d1fbe1ac226243c44b9b18ee
:1016ec007c3300221a70d8e7ac224243c04b9b18c3
:1016fc00d96b280017f020fa0028edd0ac226243f9
:10170c00bb4b9b186b3301221a70e5e7ac224243aa
:10171c00b74b9b1822331b78002bddd0ac224243f5
:10172c00b34b9b181a002232002111706b3302222a
:10173c001a70d1e7ac224243ad4b9b186e331a782a
:10174c00072a00d981e19300ab4ad3589f46ac22bb
:10175c004243a74b9b18713301221a70a7492800ea
:10176c0015f042ff00282dd0ac226243a04b9b18f1
:10177c006e3301221a70ac2262439d4b9b181a00e7
:10178c0044320021117045331b78002b00d18ee1bf
:10179c00ac226243964b9b18453300221a70ac2244
:1017ac006243934b9b1819006b3100220a7046332d
:1017bc001a706e6d002e00d171e1ac2767438c4b13
:1017cc00df195ce1ac226243894b9b187133002218
:1017dc001a70d0e7ac224243854b9b181a00713229
:1017ec0001211170d96a0a22280015f079ff00280e
:1017fc00c1d0ac2262437e4b9b186e3303221a700d
:10180c00b9e7ac2242437a4b9b186a331b78012b05
:10181c0013d0ac224243764b9b186a331b78022bb5
:10182c00a9d1ac224243724b9b181a006e32012193
:10183c001170713300221a709de7ac2242436c4b3d
:10184c009b186e3302221a7095e70022002106f0d5
:10185c00cff8ac226243664b9b186f331b780c2b72
:10186c000dd00b2b87d1ac226243614b9b181a0015
:10187c007132002111706e3301221a707be7ac2299
:10188c0062435b4b9b181a00713200211170743348
:10189c001b78012b07d0ac226243554b9b186e333f
:1018ac0001221a7067e7ac226243514b9b186e33ce
:1018bc0008221a7012e0ac2242434d4b9b18713334
:1018cc001b78022b0ad0ac224243494b9b181a00be
:1018dc007132012111706e3305221a70ac226243f1
:1018ec00434b9b181a0044320121117045331b786d
:1018fc00012b00d1dbe0ac2262433d4b9b181a005c
:10190c004532012111706b3303221a70e4e6002278
:10191c00042106f06df8ac226243354b9b186f33f3
:10192c001b780c2b0dd00b2bd8d1ac226243304b37
:10193c009b181a007132002111706e3301221a703b
:10194c0019e7ac2262432a4b9b1874331b78002b8b
:10195c0007d1ac226243264b9b186e3306221a70b9
:10196c00bce7ac226243224b9b181a007132002157
:10197c0011706e3301221a70fde68100091889007e
:10198c001f4b59181422280013f0fcfd002807d017
:10199c00ac226243164b9b186e3307221a709de7dc
:1019ac00ac226243124b9b181a0071320021117049
:1019bc006e3301221a70dee6ac2242430c4b9b18ac
:1019cc006a331b78012b1dd0ac224243084b9b1869
:1019dc006a331b78022b81d1ac224243044b9b18f7
:1019ec001a007132002111706e3301221a70c2e696
:1019fc006457002088140100f0140100801a0600be
:101a0c00305d0020ac224243db4b9b181a00713234
:101a1c0000211170810009188900d84a5118586b9f
:101a2c00132217f093fe002807d1ac226243d24b4d
:101a3c009b186e3304221a7050e7ac226243ce4bd3
:101a4c009b186e3301221a7095e6ac224243ca4ba6
:101a5c009b181a0044320021117045331b78002b5f
:101a6c0025d0ac224243c44b9b18453300221a703c
:101a7c0095e60023336233706e6d002e0fd0336aff
:101a8c006b6533791b017a68944663445a689046b7
:101a9c00002aeed09a68f1680120c047e9e7ac2231
:101aac006243b54b9b186e3300221a7014e6ac22bd
:101abc006243b14b9b1871331b78002b00d00be6a3
:101acc00ac226243ac4b9b186b3300221a7003e6ba
:101adc00ac224243a84b9b1870331a78172a00d9b2
:101aec00f6e09300a64ad3589f46ac234343a24e3c
:101afc00f618002333643200483213703300683315
:101b0c00002018561f22024001273900914080b254
:101b1c0040099c4b9c466044c00118f0e0fc9a497b
:101b2c00280015f061fd70363770d5e5ac224243c4
:101b3c00914b9b18d96a0a22280015f0d1fd002878
:101b4c0007d0ac2262438c4b9b18703303221a7063
:101b5c00c2e5ac226243884b9b18703317221a7073
:101b6c0059e3ac224243844b9b186a331b78012bfc
:101b7c0010d0ac224243804b9b186a331b78022b4b
:101b8c0000d0a9e5ac2242437b4b9b187033172243
:101b9c001a7040e3ac224243774b9b1870330422fb
:101bac001a7099e50022002105f022ffac22624355
:101bbc00714b9b186f331b780c2b0ad00b2b00d05e
:101bcc0086e0ac2262436c4b9b18703317221a7060
:101bdc0021e3ac226243684b9b1874331b78012bb6
:101bec0007d0ac226243644b9b18703301221a70ed
:101bfc0072e5ac226243604b9b18703305221a705d
:101c0c006ae5d5225200022105f0f2feac226243b5
:101c1c00594b9b186f331b780c2b09d00b2b57d1be
:101c2c00ac226243544b9b18703317221a70f2e2a9
:101c3c00ac226243504b9b189b6f1b051b0dd5218f
:101c4c00490000228b420ad0ac2161434a4b5b18fd
:101c5c00190023310a70703306221a703ce5ac323d
:101c6c006243454b9b1870331b799b0801229a43a6
:101c7c00eae70022102105f0bbfeac2262433e4b8a
:101c8c009b186f331b780c2b09d00b2b20d1ac225b
:101c9c006243394b9b18703317221a70bbe2ac228b
:101cac006243354b9b181a007032072111700022c9
:101cbc00da7411e500220f2105f09afeac22624382
:101ccc002d4b9b186f331b780c2b4cd00b2b5dd0f2
:101cdc00ac226243284b9b1870331b78162b00d018
:101cec0095e2254fac236343fb181a0047320021c1
:101cfc00884611701a6c94318c469c446d31ff31be
:101d0c0060460160982084469c44604602609c209a
:101d1c0084469c4460460160a02084469c446046f6
:101d2c000260a42084469c44604601601900a831de
:101d3c000a601a00803218211170190084310122b6
:101d4c000a6004310a6004310a6004319436f619d1
:101d5c000e604a390a701a006e32042111706b330e
:101d6c0042461a70b8e4ac226243034b9b187033a2
:101d7c0008221a70b0e4c04664570020305d002081
:101d8c001015010088008200801a0600a1336343fd
:101d9c00e34fff183b00703317221a70280017f01e
:101dac00c0fe0023fb7493e7ac234343dc4fff18c6
:101dbc003b0023331a789207122105f019fe6f3776
:101dcc003b780c2b0fd00b2b00d081e7280017f0a1
:101ddc00a8feac226243d24b9b180022da747033fb
:101dec0017321a7017e2ac226243cd4b9b18743336
:101dfc001b78002b19d0ac226243c94b9b18db7c9f
:101e0c00002b1ed0ac226243c54b9b1821331b7890
:101e1c00002b2cd0ac226243c14b9b181a007032a1
:101e2c00172111700022da74f5e1bd4fbf183b0089
:101e3c00703309221a70280017f073fe0023fb740c
:101e4c0046e7fa218900280016f09efe002807d1eb
:101e5c00ac226243b24b9b18703317221a70dae132
:101e6c00ac226243ae4b9b180122da74cae7ac2257
:101e7c006243ab4b9b18703307221a702ce4002280
:101e8c00102105f0b5fdac226243a54b9b186f33b6
:101e9c001b780c2b0ad00b2b00d019e7ac22624319
:101eac009f4b9b18703317221a70b4e1ac2262431b
:101ebc009b4b9b18190048319a6f5200d20f0a7035
:101ecc0070330a221a70fff707fcac234343944e7d
:101edc00f618b16b280015f087fb0a22b16a2800ae
:101eec0013f050fb70360b233370fff7f5fbac226d
:101efc0042438b4b9b186a331b78012b11d0ac22bd
:101f0c004243874b9b186a331b78022b01d0fff797
:101f1c00e3fbac224243824b9b18703317221a709e
:101f2c0079e1ac2242437e4b9b1870330c221a7021
:101f3c00fff7d2fb0022032105f05afdac226243cd
:101f4c00774b9b186f331b780c2b0ad00b2b00d0c4
:101f5c00bee6ac226243724b9b18703317221a7088
:101f6c0059e1ac2262436e4b9b1874331b78002be7
:101f7c0008d1ac2262436a4b9b1870330d221a7045
:101f8c00fff7aafbac226243654b9b1870331722f8
:101f9c001a7040e1ac224243614b9b18196b14221e
:101fac00280013f0effa002808d0ac2262435c4bf7
:101fbc009b18703310221a70fff78efbac22624311
:101fcc00574b9b18703317221a7024e1ac224243f2
:101fdc00534b9b186a331b78012b11d0ac22424314
:101fec004f4b9b186a331b78022b01d0fff774fb05
:101ffc00ac2242434a4b9b18703317221a700ae1e9
:10200c00ac224243464b9b181a6b1378fe3b594249
:10201c004b41d21813783f218b4315d0d3791b0435
:10202c00fc2189030b40117a09020b43527a1343aa
:10203c0001339b02ac216143394a5218136470324c
:10204c0011231370fff748fb90790323184000020b
:10205c00d37918438000517a490006231940137a2a
:10206c009b0903430133907ac009014302318b4031
:10207c00190052790f231a40093a80235b029340ce
:10208c001b0c4b43d6e70022042105f0b1fcac221b
:10209c006243234b9b186f331b780c2b0ad00b2bf2
:1020ac0000d015e6ac2262431d4b9b1870331722ef
:1020bc001a70b0e0ac226243194b9b1874331b7836
:1020cc00002b08d1ac226243154b9b1870331222a3
:1020dc001a70fff701fbac226243114b9b18703353
:1020ec0017221a7097e0ac2242430d4b9b18596b88
:1020fc001422280013f046fa002808d0ac226243c0
:10210c00074b9b18703313221a70fff7e5faac22b9
:10211c006243034b9b18703317221a707be0c04646
:10212c0064570020ac224243d64b9b186a331b7871
:10213c00012b11d0ac224243d24b9b186a331b7833
:10214c00022b01d0fff7c8faac224243cd4b9b18af
:10215c00703317221a705ee0ac224243c94b9b18b5
:10216c00703314221a70fff7b7fa0022112105f010
:10217c003ffcac226243c34b9b186f331b780c2b78
:10218c000ad00b2b00d0a3e5ac226243bd4b9b18ad
:10219c00703317221a703ee0ac226243b94b9b1885
:1021ac00703315221a70fff797fa802292000721dc
:1021bc0005f01efcac226243b24b9b186f331b78ac
:1021cc000c2b0ad00b2b00d082e5ac226243ad4b1a
:1021dc009b18703317221a701de0ac226243a94b76
:1021ec009b18703316221a707be5ac224243a54b28
:1021fc009b18703300221a70fff76efaac22424320
:10220c00a04b9b18703300221a70fff765fa172b3e
:10221c0001d0fff761faac2262439a4b9b1819006c
:10222c00453100220a7001390a702a310a706b3369
:10223c001a70fff751faac226243924b9b1846334b
:10224c001b78012b00d0e2e3ac2262438d4b9b1830
:10225c0071331b78002b00d0d9e3002e20d0ac2298
:10226c006243884b9b181900713102220a7032723a
:10227c0048331b78002b02d173695b027361737f47
:10228c00002b15d1b369013b5a1e934108333377a8
:10229c00ac2262437b4b9b186d3302221a70b6e35f
:1022ac00ac226243774b9b186d3300221a70aee35d
:1022bc00b369013b5a1e93410a333377ac22624314
:1022cc00704b9b186d3303221a70a0e37269317f37
:1022dc00200005f08dfbac2262436a4b9b186f33d8
:1022ec001b780c2b0ad00b2b00d090e3ac22624352
:1022fc00644b9b186d3319221a7088e3ac2262432d
:10230c00604b9b1874331b78002b09d1ac226243b1
:10231c005c4b9b180022da746d3305321a7076e32d
:10232c00ac226243574b9b186d3319221a706ee323
:10233c00ac226243534b9b186a331b78012b10d091
:10234c00ac2262434f4b9b186a331b78022b00d094
:10235c005de3ac2262434b4b9b186d3319221a7010
:10236c0055e3ac226243474b9b181a006d326c3319
:10237c001b7813704be3ac226243424b9b18996a57
:10238c000122280013f0fef800280bd0ac22624387
:10239c003c4b9b181a006c32062111706d330422d1
:1023ac001a7034e3ac226243364b9b180022da7469
:1023bc006d3319321a702ae3ac226243314b9b18ed
:1023cc009b6a1b78fe2b18d0ac2262432d4b9b18ba
:1023dc00db7c002b1dd0ac2262432a4b9b18213393
:1023ec001b78002b2ad0ac226243264b9b18002270
:1023fc00da746d3319321a7009e3224eb6183300b1
:10240c006d3307221a70280017f08bfb0023f3742e
:10241c00fde2fa21280016f0b7fb002807d1ac2208
:10242c006243184b9b186d3319221a70efe2ac22e1
:10243c006243144b9b180122da74cce7ac22624342
:10244c00104b9b186d3305221a70e0e28022316923
:10245c009200280013f096f800280bd0ac226243af
:10246c00084b9b181a006c32082111706d33042232
:10247c001a70cce2ac226243024b9b186d331922ca
:10248c001a70c4e264570020ac226243db4b9b18e9
:10249c00996a0222280013f075f800280bd0ac22a0
:1024ac006243d64b9b181a006c32092111706d33a4
:1024bc0004221a70abe2ac226243d04b9b186d33f2
:1024cc0019221a70a3e2337f092b07d0ac22624386
:1024dc00ca4b9b186d330b221a7098e2b369013bff
:1024ec00b361002b07d1ac226243c44b9b186d33f4
:1024fc000a221a708be2336980229200944663445c
:10250c003361553aff3a6243bc4b9b186d3305223d
:10251c001a707ce2ac226243b84b9b18996a012278
:10252c00280013f02ff800280bd0ac226243b34bd9
:10253c009b181a006c32182111706d3304221a701a
:10254c0065e2ac226243ad4b9b186d3319221a70b5
:10255c005de200220521200005f04afaac2262431c
:10256c00a64b9b186f331b780c2b0ad00b2b00d06f
:10257c004de2ac226243a14b9b186d3319221a70a9
:10258c0045e2ac2262439d4b9b186d330b221a70b3
:10259c003de27269317f200005f02afaac226243d9
:1025ac00964b9b186f331b780c2b0ad00b2b00d03f
:1025bc002de2ac226243914b9b186d3319221a7099
:1025cc0025e2ac2262438d4b9b1874331b78002b95
:1025dc0007d1ac226243894b9b186d330c221a70c5
:1025ec0015e2ac226243854b9b186d3319221a708d
:1025fc000de2337f0b2b1dd0ac2262437f4b9b181b
:10260c009b6afe221a70ac2262437c4b9b18996a1f
:10261c000122280012f086ff002813d0ac2262435e
:10262c00764b9b181a006c320d2111706d330422fd
:10263c001a70ece1ac226243704b9b189b6afc2233
:10264c001a70e0e7ac2262436c4b9b186d33192275
:10265c001a70dce1802231699200280012f062ffce
:10266c0000280bd0ac226243644b9b181a006c32ce
:10267c000e2111706d3304221a70c8e1ac22624332
:10268c005e4b9b186d3319221a70c0e1ac22624369
:10269c005a4b9b18d96a0222280012f043ff0028db
:1026ac000bd0ac226243554b9b181a006c320f2195
:1026bc0011706d3304221a70a9e1ac2262434f4ba6
:1026cc009b186d3319221a70a1e1ac2262434b4b5b
:1026dc009b18996a0122280012f054ff00280bd095
:1026ec00ac226243454b9b181a006c3210211170be
:1026fc006d3304221a708ae1ac2262433f4b9b1863
:10270c006d3319221a7082e1ac2262433b4b9b1849
:10271c009b6a1a781f231340052b07d0ac22624307
:10272c00364b9b186d3319221a7070e1ac22624340
:10273c00324b9b181a006d32112111700022da7481
:10274c0065e1ac2262432d4b9b18996a012228004b
:10275c0012f018ff00280bd0ac226243274b9b18b9
:10276c001a006c32122111706d3304221a704ee172
:10277c00ac226243214b9b186d3319221a7046e12f
:10278c00ac2262431d4b9b189b6a1b78002b37d1e4
:10279c00ac226243194b9b18db7c002b11d0ac2272
:1027ac006243164b9b1821331b78002b1ed0ac2296
:1027bc006243124b9b180022da746d3319321a7073
:1027cc0025e1fa21280016f0dff9002807d1ac2208
:1027dc0062430a4b9b186d3319221a7017e1ac2215
:1027ec006243064b9b180122da74d8e7ac22624391
:1027fc00024b9b186d3311221a7008e164570020ac
:10280c00280017f08ef9ac226243874b9b180022ec
:10281c00da746d3313321a70f9e0337f0b2b07d057
:10282c00ac226243804b9b186d330b221a70eee086
:10283c00b369013bb361002b07d1ac2262437a4be5
:10284c009b186d3314221a70e1e0336980229200d8
:10285c00944663443361553aff3a6243724b9b187a
:10286c006d330c221a70d2e0ac2262436e4b9b1873
:10287c00fd22996a0a70996afc3a280012f052fefd
:10288c0000280dd0ac226243674b9b181a006c32a7
:10289c00152111700132113911700022da74b6e071
:1028ac00ac226243604b9b186d3319221a70aee058
:1028bc00ac2262435c4b9b18996a0122280012f0ef
:1028cc0061fe00280bd0ac226243574b9b181a00b8
:1028dc006c32162111706d3304221a7097e0ac2201
:1028ec006243514b9b186d3319221a708fe0ac2246
:1028fc0062434d4b9b18996a0122280012f042fe4c
:10290c0000280bd0ac226243474b9b181a006c3248
:10291c00172111706d3304221a7078e0ac226243d7
:10292c00414b9b186d3319221a7070e0ac22624334
:10293c003d4b9b189b6a1b78002b35d1ac22624314
:10294c00394b9b18db7c002b11d0ac226243364bed
:10295c009b1821331b78002b1ed0ac226243324bc8
:10296c009b180022da746d3319321a704fe0fa2179
:10297c00280016f009f9002807d1ac2262432a4b33
:10298c009b186d3319221a7041e0ac226243264b1e
:10299c009b180122da74d8e7ac226243224b9b18b5
:1029ac006d3316221a7032e0280017f0baf8ac22f8
:1029bc0062431d4b9b180022da746d3318321a7067
:1029cc0025e0182a2dd001235b4201203372337984
:1029dc001b01ac216143144a521852689b185f6862
:1029ec00002f02d09a68f168b8476b6d002b04d0a9
:1029fc001a6a6a6500221a621a70ac2262430a4b88
:102a0c009b181900713100220a706d331a70ac23b7
:102a1c006343054ce4187c340123237004bc9046ba
:0c2a2c00f0bd00230020d1e7645700201b
:020000040000fa
:102a380070b582b0a64af823ff33d45ce4b20e2cfa
:102a480001d900f0f1fda300a24ad3589f4617f020
:102a5800c5fb032805d89e4af823ff330121d1542a
:102a680023e017f0affb9c4915f03afaf3e7984ad0
:102a7800f2235b00d35a9b071ad4954af2235b00d2
:102a8800d35a5b0733d4924bf822ff320c21995466
:102a98000132093999540832613199508131ff3135
:102aa8005a5a042082435a520024200002b070bdb2
:102ab80017f094fb032814d8032016f051ff844b19
:102ac800f822ff320c21995402200132985408321e
:102ad800583199508131ff315a5a82435a52002451
:102ae800e3e717f06ffb7d4915f0faf9e4e717f013
:102af80075fb03280ed8764b1868794a002114f024
:102b080007f90028bfd0724af823ff330e21d154a9
:102b18000024cae717f056fb724915f0e1f9eae715
:102b28006b4af2235b00d35a1b0706d4684af82382
:102b3800ff330421d1540024b7e717f04ffb0328d3
:102b480074d8634db5235b00ea5a92b20321286812
:102b580014f0def80400b6235b00ea5a92b20421ae
:102b6800286814f0d5f8631e9c410443b7235b0022
:102b7800ea5a92b20721286814f0caf8631e9c41e9
:102b88000443bf235b00ea5a92b20821286814f074
:102b9800bff8631e9c410443c0235b00ea5a92b20b
:102ba8000921286814f0b4f8631e9c410443c1232a
:102bb8005b00ea5a92b20a21286814f0a9f8631e49
:102bc8009c410443c2235b00ea5a92b20b21286855
:102bd80014f09ef8631e9c410443c3235b00ea5a29
:102be80092b20c21286814f093f8631e9c410443a8
:102bf800c4235b00ea5a92b20d21286814f088f8c1
:102c0800631e9c410443ba235b00ea5a92b22868c7
:102c18000e2114f07df8631e9c4104430cd02c4a0d
:102c2800f823ff330e21d15400243ee717f0cafae7
:102c38002d4915f055f984e7254bb52252009a5acb
:102c480092b25a81b62252009a5a92b29a81b72207
:102c580052009a5a92b2da81bf2252009a5a92b21c
:102c6800da83c02252009a5a92b21a84c1225200c0
:102c78009a5a92b25a84c22252009a5a92b29a84aa
:102c8800c32252009a5a92b2da84c42252009a5a43
:102c980092b21a85ba2252009a5a92b29a82f822ad
:102ca800ff3204219954e131ff315a5a08208243f6
:102cb8005a520024f9e6064af2235b00d35adb068f
:102cc80014d4034af823ff330821d1540024ece636
:102cd8002847002054780100580801006c080100ba
:102ce8009a780000800801009408010017f076fa2d
:102cf800032800d97ce0d24dd24a3021286814f04c
:102d080007f80400da235b00ea5a92b231212868f6
:102d180013f0feff631e9c410443db235b00ea5a69
:102d280092b23221286813f0f3ff631e9c410443da
:102d3800b8235b00ea5a92b23321286813f0e8ffff
:102d4800631e9c410443b9235b00ea5a92b23421c2
:102d5800286813f0ddff631e9c410443c5235b0014
:102d6800ea5a92b23521286813f0d2ff631e9c41bb
:102d78000443c6235b00ea5a92b23621286813f04e
:102d8800c7ff631e9c410443c7235b00ea5a92b203
:102d98003721286813f0bcff631e9c410443c823f5
:102da8005b00ea5a92b23821286813f0b1ff631e1b
:102db8009c410443c9235b00ea5a92b2392128682e
:102dc80013f0a6ff631e9c410443ca235b00ea5a22
:102dd80092b228683a2113f09bff631e9c4104437a
:102de8000cd0974af823ff330e21d15400245ce617
:102df80017f0e8f9944915f073f87ce7904bda225c
:102e080052009a5a92b254215a52db2252009a5acc
:102e180092b202315a52b82252009a5a92b21a8287
:102e2800b92252009a5a92b25a82c52252009a5a2c
:102e380092b25a85c62252009a5a92b29a85c722ed
:102e480052009a5a92b2da85c82252009a5a92b21d
:102e58001a86c92252009a5a92b25a86ca22520037
:102e68009a5a92b29a86f822ff325139995400241c
:102e78001be617f0b3f9032820d86b469e1d704d4a
:102e880032003b21286813f0e5fa040032883b2120
:102e9800286813f03dff631e9c41044328686b4a71
:102ea800302113f035ff631e9c4104430cd0644a63
:102eb800f823ff330e21d1540024f6e517f082f9e8
:102ec800634915f00df8d8e76b46da885c4bda826f
:102ed800f822ff3206219954df31ff315a5a102067
:102ee80082435a520024e0e5554af2235b00d35a44
:102ef8009b0606d4524af823ff330a21d1540024f2
:102f0800d3e517f06bf9032800d992e04c4d4d4af0
:102f18004021286813f0fcfe0400dc235b00ea5a19
:102f280092b24121286813f0f3fe631e9c410443ca
:102f3800dd235b00ea5a92b24221286813f0e8feca
:102f4800631e9c410443de235b00ea5a92b243218c
:102f5800286813f0ddfe631e9c410443df235b00f9
:102f6800ea5a92b24421286813f0d2fe631e9c41ab
:102f78000443e0235b00ea5a92b24521286813f023
:102f8800c7fe631e9c410443e1235b00ea5a92b2e8
:102f98004621286813f0bcfe631e9c410443e223cb
:102fa8005b00ea5a92b24721286813f0b1fe631e0b
:102fb8009c410443e5235b00ea5a92b24821286801
:102fc80013f0a6fe631e9c410443e3235b00ea5a08
:102fd80092b24921286813f09bfe631e9c4104436a
:102fe800e6235b00ea5a92b24a21286813f090fe61
:102ff800631e9c410443e4235b00ea5a92b24b21ce
:10300800286813f085fe631e9c410443e7235b0098
:10301800ea5a92b228684c2113f07afe631e9c414a
:10302800044319d0064af823ff330e21d154002453
:103038003be517f0c7f8074914f052ff66e7c046aa
:103048002847002078560000b00801006587000076
:10305800c8080100d8080100a94bdc2149005a5ac8
:1030680092b25a5202315a5a92b25a5202315a5aaa
:1030780092b25a5202315a5a92b25a5202315a5a9a
:1030880092b25a5202315a5a92b25a5202315a5a8a
:1030980092b25a5206315a5a92b25a5204395a5a6c
:1030a80092b25a5206315a5a92b25a5204395a5a5c
:1030b80092b25a5206315a5a92b25a52f822ff32f2
:1030c800c839ff3999540024efe417f087f803282a
:1030d80020d86b469e1d8a4d32004d21286813f07a
:1030e800b9f9040032884d21286813f011fe631ed7
:1030f8009c4104432868834a402113f009fe631e5b
:103108009c4104430cd07e4af823ff330e21d1544e
:103118000024cae417f056f87b4914f0e1fed8e71a
:103128006b46da88764b1a83f822ff320a219954c3
:10313800db31ff315a5a202082435a520024b4e42a
:103148006f4af2235b00d35adb0506d46c4af82396
:10315800ff330821d1540024a7e417f03ff80328cf
:1031680051d8674d694a5021286813f0d1fd0400f1
:10317800e8235b00ea5a92b25121286813f0c8fd8f
:10318800631e9c410443e9235b00ea5a92b2522130
:10319800286813f0bdfd631e9c410443ea235b00cd
:1031a800ea5a92b25321286813f0b2fd631e9c417b
:1031b8000443eb235b00ea5a92b25421286813f0c7
:1031c800a7fd631e9c410443ec235b00ea5a92b2bc
:1031d8005521286813f09cfd631e9c410443ed2390
:1031e8005b00ea5a92b22868562113f091fd631edb
:1031f8009c4104430dd0424af823ff330e21d15499
:103208000024fff752fc16f0ddff414914f068fe78
:10321800a7e73b4be82252009a5a92b270215a52c1
:10322800e92252009a5a92b202315a52ea225200c4
:103238009a5a92b202315a52eb2252009a5a92b2d8
:1032480002315a52ec2252009a5a92b202315a5220
:10325800ed2252009a5a92b202315a52f822ff32a3
:10326800713999540024fff720fc16f0b7ff0328a2
:1032780021d86b469e1d224d32005721286813f035
:10328800e9f8040032885721286813f041fd631ecd
:103298009c41044328681f4a502113f039fd631ede
:1032a8009c4104430dd0164af823ff330e21d15414
:1032b8000024fff7fafb16f085ff174914f010fefb
:1032c800d7e76b46da880e4b5a83f822ff3208217b
:1032d8009954dd31ff315a5a104802405a5200249d
:1032e800fff7e3fb064af2235b00d35a5b0617d4c9
:1032f800034af823ff330d21d1540024fff7d5fbef
:103308002847002065870000f00801007856000073
:10331800000901008668000018090100fffeffff90
:1033280016f05cff032800d9a7e0c14dc14a60210f
:10333800286813f0edfc0400cb235b00ea5a92b234
:103348006121286813f0e4fc631e9c410443cc23ec
:103358005b00ea5a92b26221286813f0d9fc631e16
:103368009c410443cd235b00ea5a92b2632128684a
:1033780013f0cefc631e9c410443ce235b00ea5a43
:1033880092b26421286813f0c3fc631e9c41044375
:10339800cf235b00ea5a92b26521286813f0b8fc83
:1033a800631e9c410443d0235b00ea5a92b2662113
:1033b800286813f0adfc631e9c410443d1235b00d5
:1033c800ea5a92b26721286813f0a2fc631e9c4156
:1033d8000443d2235b00ea5a92b26821286813f0aa
:1033e80097fc631e9c410443d3235b00ea5a92b2c4
:1033f8006921286813f08cfc631e9c410443d42384
:103408005b00ea5a92b26a21286813f081fc631eb5
:103418009c410443d5235b00ea5a92b26b21286889
:1034280013f076fc631e9c410443d6235b00ea5ae2
:1034380092b26c21286813f06bfc631e9c41044314
:10344800d8267600aa5b92b26d21286813f060fc3a
:10345800631e9c410443aa5b92b228686e2113f054
:1034680057fc631e9c4104430dd0714af823ff3377
:103478000e21d1540024fff718fb16f0a3fe6e4965
:1034880014f02efd51e76a4bcb2252009a5a92b2a1
:10349800da86cc2252009a5a92b21a87cd2252006a
:1034a8009a5a92b25a87ce2252009a5a92b29a8760
:1034b800cf2252009a5a92b2da87d02252009a5af0
:1034c80092b240215a52d12252009a5a92b20231f3
:1034d8005a52d22252009a5a92b202315a52d322e6
:1034e80052009a5a92b202315a52d42252009a5a2f
:1034f80092b202315a52d52252009a5a92b20231ed
:103508005a52d62252009a5a92b202315a52d820ae
:1035180040001a5a92b204315a521a5a92b25a5266
:10352800f822ff32453999540024fff7befa16f005
:1035380055fe032821d86b469e1d3d4d32006f2154
:10354800286812f087ff040032886f21286813f07a
:10355800dffb631e9c4104432868384a602113f04e
:10356800d7fb631e9c4104430dd0314af823ff3337
:103578000e21d1540024fff798fa16f023fe3049a3
:1035880014f0aefcd7e76b46da88294b9a83f82209
:10359800ff320d219954d831ff315a5a40208243c5
:1035a8005a520024fff781fa16f018fe0024032867
:1035b80001d8fff77afa16f005fe224914f090fcbc
:1035c800fff773fa1a4afe235b00d058431c06d053
:1035d80016f07ef9002807d10024fff766fa1a4989
:1035e800486812f00dfff7e7114bfe225200012147
:1035f80049429950043a9a5cd2b2f821ff315a54a0
:103608000024fff752fa16f0e9fd16f0dbfd0f492a
:1036180014f066fc064af2235b00d15a01214942a4
:10362800d1520124fff741fa0024fff73efac046c1
:103638002847002078560000280901006587000007
:1036480040090100500901002449002060090100d7
:020000040000fa
:103658000000000000000000000000000000000062
:103668000000000000000000000000000000000052
:103678000000000000003000300030003000300052
:103688003000300000003000300000000000000072
:103698000000000000006c006c006c006c00000072
:1036a8000000000000000000000000000000000012
:1036b800000000000000000048004800fc0048002e
:1036c80048004800fc0048004800000000000000d6
:1036d800000000000000100010003c004000300016
:1036e800080004007800100010000000000000002e
:1036f80000000000000000007c00a400a8004800b2
:10370800100014002a004a004400000000000000d5
:103718000000000000007000880088008800700029
:1037280088008a008a008c007000000000000000f9
:103738000000000000001000100010000000000051
:103748000000000000000000000000000000000071
:1037580000000000080010001000200020002000d9
:1037680020002000200010001000080000000000c9
:1037780000000000200010001000080008000800e9
:1037880008000800080010001000200000000000d9
:10379800000000000000280010007c001000280035
:1037a8000000000000000000000000000000000011
:1037b80000000000000000000000000010001000e1
:1037c8001000fe00100010001000000000000000b3
:1037d80000000000000000000000000000000000e1
:1037e8000000000000001800180030002000000051
:1037f80000000000000000000000000000000000c1
:103808000000fe00000000000000000000000000b2
:1038180000000000000000000000000000000000a0
:103828000000000000001800180000000000000060
:10383800000000000000000004000800080010005c
:1038480010002000200040004000000000000000a0
:103858000000000000007800840084008c009400c0
:10386800a400c40084008400780000000000000068
:103878000000000000001000300050001000100090
:1038880010001000100010007c0000000000000074
:103898000000000000007000880008000800100008
:1038a8001000200020004000fc0000000000000084
:1038b80000000000000070008800080008003000c8
:1038c80008000800080088007000000000000000e0
:1038d8000000000000000800180028002800480028
:1038e80088008800fc0008000800000000000000b4
:1038f8000000000000007c0080008000b800c400c8
:1039080004000400040084007800000000000000a7
:103918000000000000003800400080008000b00077
:10392800c800840084004800300000000000000047
:10393800000000000000fc0004000400080008006b
:1039480010001000200020004000000000000000cf
:1039580000000000000078008400840084007800e3
:1039680084008400840084007800000000000000c7
:1039780000000000000078008400840084008c00af
:103988007400040008001000e000000000000000bf
:1039980000000000000000000000000000003000ef
:1039a800300000000000300030000000000000007f
:1039b800000000000000000000000000000060009f
:1039c80060000000000060006000c000800000008f
:1039d80000000000000000000000000004001800c3
:1039e8006000800060001800040000000000000073
:1039f80000000000000000000000000000007e0041
:103a0800000000007e000000000000000000000030
:103a1800000000000000000000000000400030002e
:103a28000c0002000c003000400000000000000004
:103a38000000000000007000880008000800100066
:103a480020002000000020002000000000000000ee
:103a5800000000000000000000003c004200ba0026
:103a6800aa00aa00aa00bc0040003c000000000018
:103a780000000000000010001000280028002800a6
:103a880044007c0044008200820000000000000026
:103a9800000000000000f000880088008800f000a6
:103aa8008800880088008800f000000000000000fe
:103ab8000000000000003800440080008000800002
:103ac80080008000800044003800000000000000f2
:103ad800000000000000f0008800840084008400da
:103ae8008400840084008800f000000000000000ca
:103af8000000000000007c0040004000400078000a
:103b080040004000400040007c0000000000000031
:103b18000000000000007c00400040004000400021
:103b28007800400040004000400000000000000015
:103b38000000000000003800440080008000800081
:103b48009c008400840044003c0000000000000049
:103b58000000000000008400840084008400fc0051
:103b680084008400840084008400000000000000b9
:103b78000000000000007c00100010001000100081
:103b880010001000100010007c0000000000000071
:103b9800000000000000f800080008000800080005
:103ba8000800080008001000e00000000000000005
:103bb8000000000000008400840088009000a0003d
:103bc800d000880088008400840000000000000005
:103bd800000000000000800080008000800080005d
:103be8008000800080008000fc00000000000000d1
:103bf80000000000000084008400cc00cc00b40069
:103c0800b4008400840084008400000000000000e8
:103c18000000000000008400c400c400a400a40048
:103c2800940094008c008c008400000000000000c8
:103c38000000000000003000480084008400840078
:103c48008400840084004800300000000000000068
:103c5800000000000000f000880084008400840058
:103c68008800f00080008000800000000000000054
:103c78000000000000003000480084008400840038
:103c88008400840084004800300020001c000000ec
:103c9800000000000000f000880084008400880014
:103ca800f0009000880084008400000000000000fc
:103cb8000000000000007800840080004000300010
:103cc80008000400040084007800000000000000e0
:103cd800000000000000fe0010001000100010009e
:103ce800100010001000100010000000000000007c
:103cf8000000000000008400840084008400840028
:103d08008400840084008400780000000000000023
:103d180000000000000082008200440044004400cb
:103d280044002800280028001000000000000000bf
:103d38000000000000008400840084008400b400b7
:103d4800b400b400780048004800000000000000fb
:103d58000000000000008200440044002800100019
:103d68001000280044004400820000000000000009
:103d780000000000000082004400440028002800e1
:103d880028001000100010001000000000000000c3
:103d9800000000000000fc000400080008001000fb
:103da8001000200040004000fe000000000000005d
:103db80000000000e000800080008000800080009b
:103dc80080008000800080008000e000000000008b
:103dd800000000000000400040002000200010000b
:103de80010000800080004000400000000000000a3
:103df80000000000e000200020002000200020003b
:103e080020002000200020002000e000000000002a
:103e1800000000000000100028004400000000001e
:103e2800000000000000000000000000000000008a
:103e3800000000000000000000000000000000007a
:103e480000000000000000007c00000000000000ee
:103e58000000000000002000100008000000000022
:103e6800000000000000000000000000000000004a
:103e780000000000000000000000000078000400be
:103e880004007c0084008c00760000000000000024
:103e9800000000008000800080008000b800c4009e
:103ea8008400840084008800f00000000000000006
:103eb8000000000000000000000000007c008000fe
:103ec80080008000800080007c000000000000006e
:103ed8000000000002000200020002003e00420052
:103ee80082008200820042003e00000000000000c4
:103ef8000000000000000000000000007c008200bc
:103f08008200fe00800080007e00000000000000ab
:103f18000000000000001c0020002000fc00200021
:103f28002000200020002000fc000000000000000d
:103f38000000000000000000000000007c00840079
:103f48008400840084008c0074000400440038005d
:103f5800000000008000800080008000b800c400dd
:103f680084008400840084008400000000000000b5
:103f780000000000000010000000000070001000a9
:103f880010001000100010007c000000000000006d
:103f98000000000000000800000000007800080091
:103fa8000800080008000800080008001000e000e9
:103fb80000000000800080008000800088009000e1
:103fc800a000e000900088008400000000000000cd
:103fd800000000000000f0001000100010001000a9
:103fe8001000100010001000fe000000000000008b
:103ff800000000000000000000000000ac00d40039
:1040080094009400940094009400000000000000c4
:10401800000000000000000000000000b800c4001c
:1040280084008400840084008400000000000000f4
:10403800000000000000000000000000780084007c
:1040480084008400840084007800000000000000e0
:10405800000000000000000000000000b800c400dc
:104068008400840084008400f800800080008000c0
:104078000000000000000000000000007c00840038
:1040880084008400840084007c0004000400040090
:10409800000000000000000000000000cc0030001c
:1040a8002000200020002000f80000000000000090
:1040b8000000000000000000000000007c008000fc
:1040c8008000780004000400f800000000000000f0
:1040d800000000000000000000002000fc0020009c
:1040e80020002000200020001c000000000000002c
:1040f80000000000000000000000000088008800a8
:104108008800880088008800740000000000000013
:1041180000000000000000000000000082004400d1
:1041280044002800280010001000000000000000d3
:10413800000000000000000000000000840084006f
:10414800b400b40048004800480000000000000027
:1041580000000000000000000000000044002800eb
:10416800280010002800440044000000000000005f
:104178000000000000000000000000008200440071
:10418800440028002800280010001000200020000b
:10419800000000000000000000000000fc00040017
:1041a8000800100020004000fc0000000000000093
:1041b80000000000080010001000080008001000af
:1041c800100008000800100010000800000000009f
:1041d8000000000010001000100010001000000087
:1041e8000000100010001000100010000000000077
:1041f8000000000020001000100020002000100027
:104208001000200020001000100020000000000016
:020000040000fa
:104218000000ffffffff555343414c45202020007d
:104228000000ffffffff495343414c452020200079
:104238000100ffffffff5057524d4f44452020001b
:1042480000000300100046554e43454e3020200024
:1042580000000400100046554e43454e3120200012
:104268000100070010005a58434f4e4649472000a6
:104278008700330010004d4d4f444530202020006a
:104288000000340010004d4d4f44453120202000df
:10429800447e0e000000444d414354524c202000ff
:1042a80000003b0000004353302020202020200045
:1042b80000004d0000004353312020202020200022
:1042c8000000570000004353322020202020200007
:1042d80000006f00000043533320202020200000fe
:1042e80000000800100053414754482020202000b7
:1042f80000000900100050484c4f53535448200008
:10430800ffff0a001000494e5741524e54483000f2
:10431800ffff0b001000494e5741524e54483100e0
:10432800ffff0c0010005448444e415554482000eb
:10433800ffff0d0010005448444e494154482020c6
:104348000000350010005053544152545448200086
:104358000000360010005153544152545448200074
:104368000000370010005353544152545448200061
:104378000000380010005050484153455448200070
:10438800000039001000515048415345544820005e
:1043980000003a001000535048415345544820004b
:1043a80040ce61001000554741494e412020200071
:1043b800307562001000494741494e4120202000d5
:1043c800000063001000554f4646534554412000f5
:1043d800000064001000494f4646534554412000f0
:1043e80040ce65001000554741494e42202020002c
:1043f800307566001000494741494e422020200090
:10440800000067001000554f4646534554422000af
:10441800000068001000494f4646534554422000aa
:1044280040ce69001000554741494e4320202000e6
:1044380030756a001000494741494e43202020004a
:1044480000006b001000554f46465345544320006a
:1044580000006c001000494f464653455443200065
:1044680030756d001000494741494e4e53202000d9
:1044780000006e001000494f46465345544e530005
:10448800800cffff20004d4554455220432020005a
:10449800610831001000504c434f4e5354482000df
:1044a80068c432001000504c434f4e53544c200007
:1044b800000041001000504f46465345544120002b
:1044c800000042001000514f464653455441200019
:1044d800000043001000504f464653455442200008
:1044e800000044001000514f4646534554422000f6
:1044f800000045001000504f4646534554432000e5
:10450800000046001000514f4646534554432000d2
:10451800000047001000504741494e41202020002c
:10452800000049001000504741494e422020200019
:1045380000004b001000504741494e432020200006
:104548000000480010005048494120202020200049
:1045580000004a0010005048494220202020200036
:1045680000004c0010005048494320202020200023
:10457800000051001000504f464653455441460034
:10458800000052001000504f464653455442460022
:10459800000053001000504f464653455443460010
:1045a800000054001000504741494e414620200069
:1045b800000055001000504741494e424620200057
:1045c800000056001000504741494e434620200045
:1045d8000000010000005359535441545553300012
:1045e8000000020000005359535441545553310000
:1045f80000f095000000454e535441545553300087
:10460800000096000000454e535441545553310064
:1046180000000f0000004c41535453504920200023
:104628000000b0000000504d45414e2020202000e1
:104638000000b1000000504d45414e4120202000af
:104648000000b2000000504d45414e42202020009d
:104658000000b3000000504d45414e43202020008b
:104668000000b4000000514d45414e20202020009c
:104678000000b5000000514d45414e41202020006a
:104688000000b6000000514d45414e422020200058
:104698000000b7000000514d45414e432020200046
:1046a8000000b800000053414d45414e2020200035
:1046b80000009800000053564d45414e2020200030
:1046c8000000b9000000534d45414e412020200014
:1046d8000000ba000000534d45414e422020200002
:1046e8000000bb000000534d45414e4320202000f0
:1046f8000000bc00000050464d45414e20202000df
:104708000000bd00000050464d45414e41202000ac
:104718000000be00000050464d45414e422020009a
:104728000000bf00000050464d45414e4320200088
:104738000000c0000000504d45414e4c534220003f
:104748000000c1000000504d45414e414c5342000d
:104758000000c2000000504d45414e424c534200fb
:104768000000c3000000504d45414e434c534200e9
:104778000000c4000000514d45414e4c53422000fa
:104788000000c5000000514d45414e414c534200c8
:104798000000c6000000514d45414e424c534200b6
:1047a8000000c7000000514d45414e434c534200a4
:1047b8000000c800000053414d45414e4c53420093
:1047c80000009900000053564d45414e4c5342009d
:1047d8000000c9000000534d45414e414c53420072
:1047e8000000ca000000534d45414e424c53420060
:1047f8000000cb000000534d45414e434c5342004e
:104808000000d0000000504d45414e4620202000b9
:104818000000d1000000504d45414e414620200087
:104828000000d2000000504d45414e424620200075
:104838000000d3000000504d45414e434620200063
:104848000000d4000000504d45414e482020200073
:104858000000d5000000504d45414e414820200041
:104868000000d6000000504d45414e42482020002f
:104878000000d7000000504d45414e43482020001d
:104888000000d900000055524d534120202020003f
:104898000000da00000055524d534220202020002d
:1048a8000000db00000055524d534320202020001b
:1048b8000000dd00000049524d5341202020200017
:1048c8000000de00000049524d5342202020200005
:1048d8000000df00000049524d53432020202000f3
:1048e8000000d800000049524d534e5320202000ac
:1048f8000000dc00000049524d534e4320202000a8
:104908000000e0000000504d45414e464c53420027
:104918000000e1000000504d45414e41464c530017
:104928000000e2000000504d45414e42464c530005
:104938000000e3000000504d45414e43464c5300f3
:104948000000e4000000504d45414e484c534200e1
:104958000000e5000000504d45414e41484c5300d1
:104968000000e6000000504d45414e42484c5300bf
:104978000000e7000000504d45414e43484c5300ad
:104988000000e900000055524d53414c53422000ad
:104998000000ea00000055524d53424c534220009b
:1049a8000000eb00000055524d53434c5342200089
:1049b8000000ed00000049524d53414c5342200085
:1049c8000000ee00000049524d53424c5342200073
:1049d8000000ef00000049524d53434c5342200061
:1049e8000000f1000000555045414b4120202000b7
:1049f8000000f2000000555045414b4220202000a5
:104a08000000f3000000555045414b432020200092
:104a18000000f5000000495045414b41202020008e
:104a28000000f6000000495045414b42202020007c
:104a38000000f7000000495045414b43202020006a
:104a48000000f80000004652455120202020200098
:104a58000000f900000050414e474c45412020001d
:104a68000000fa00000050414e474c45422020000b
:104a78000000fb00000050414e474c4543202000f9
:104a88000000fc00000054454d502020202020004c
:104a98000000fd00000055414e474c4541202000d4
:104aa8000000fe00000055414e474c4542202000c2
:104ab8000000ff00000055414e474c4543202000b0
:104ac8000000800000004150454e455247592000e3
:104ad8000000810000004150454e455247594100b1
:104ae8000000820000004150454e4552475942009f
:104af8000000830000004150454e4552475943008d
:104b0800000084000000414e454e455247592000a0
:104b1800000085000000414e454e4552475941006e
:104b2800000086000000414e454e4552475942005c
:104b3800000087000000414e454e4552475943004a
:104b48000000880000005250454e45524759200049
:104b58000000890000005250454e45524759410017
:104b680000008a0000005250454e45524759420005
:104b780000008b0000005250454e455247594300f3
:104b880000008c000000524e454e45524759200007
:104b980000008d000000524e454e455247594100d5
:104ba80000008e000000524e454e455247594200c3
:104bb80000008f000000524e454e455247594300b1
:104bc8000000900000005341454e4552475954009b
:104bd8000000940000005356454e45524759540072
:104be80000009100000053454e45524759412000ae
:104bf80000009200000053454e455247594220009c
:104c080000009300000053454e4552475943200089
:104c18000000a00000004150454e4552475946004b
:104c28000000a10000004150454e5247594146003e
:104c38000000a20000004150454e5247594246002c
:104c48000000a30000004150454e5247594346001a
:104c58000000a4000000414e454e45524759460009
:104c68000000a5000000414e454e524759414600fc
:104c78000000a6000000414e454e524759424600ea
:104c88000000a7000000414e454e524759434600d8
:104c98000000a80000004150454e455247594800c1
:104ca8000000a90000004150454e524759414800b4
:104cb8000000aa0000004150454e524759424800a2
:104cc8000000ab0000004150454e52475943480090
:104cd8000000ac000000414e454e4552475948007f
:104ce8000000ad000000414e454e52475941480072
:104cf8000000ae000000414e454e52475942480060
:104d08000000af000000414e454e5247594348004d
:020000040000fa
:104d1800f0b583b0af4ab04bd45ce4b20c2c01d9e7
:104d280000f07bfca300ad4ad3589f4615f056fa15
:104d3800032805d8a74aa84b0121d15400f04afc02
:104d480015f040faa64913f0cbf8f3e713f0d6fbb9
:104d5800a04aa14b0221d154002400f03bfc15f0dd
:104d68003dfa032800d992e06b469d1d994c2a0014
:104d7800d921206811f06efb2a88d223e2522a003a
:104d8800e921206811f066fb2a88f223e2522a0002
:104d9800dd21206811f05efb2a88d823e2522a0020
:104da800ed21206811f056fb2a88f823e2522a00e8
:104db800b121206811f04efb2a888823e2522a008c
:104dc800c121206811f046fb2a88aa23e2522a0052
:104dd800d121206811f03efb2a88c423e2522a0020
:104de800e121206811f036fb2a88e423e2522a00e8
:104df800d521206811f02efb2a88cc23e2522a0004
:104e0800e521206811f026fb2a88ec23e2522a00cb
:104e1800b521206811f01efb2a889023e2522a004f
:104e2800c521206811f016fb2a88b223e2522a0015
:104e3800b921206811f00efb2a889a23e2522a0031
:104e4800c921206811f006fb2a88bc23e2522a00f7
:104e5800bd21206811f0fefa2a88a223e2522a0016
:104e6800f921206811f0f6fa2a8886235b00e252bd
:104e78002a00fd21206811f0edfa2a888a235b00b8
:104e8800e252554b0322e254002400f0a3fb15f034
:104e980099f9544913f024f866e715f09ff90328a7
:104ea80000d991e06b469d1d4a4c2a00da21206802
:104eb80011f0d0fa2a88d423e2522a00ea21206885
:104ec80011f0c8fa2a88f423e2522a00de21206869
:104ed80011f0c0fa2a88da23e2522a00ee2120686b
:104ee80011f0b8fa2a88fa23e2522a00b22120687f
:104ef80011f0b0fa2a888a23e2522a00c2212068d7
:104f080011f0a8fa2a88ac23e2522a00d22120689c
:104f180011f0a0fa2a88c623e2522a00e22120686a
:104f280011f098fa2a88e623e2522a00d62120684e
:104f380011f090fa2a88ce23e2522a00e62120684e
:104f480011f088fa2a88ee23e2522a00b621206856
:104f580011f080fa2a889223e2522a00c62120689a
:104f680011f078fa2a88b423e2522a00ba2120687c
:104f780011f070fa2a889c23e2522a00ca2120687c
:104f880011f068fa2a88be23e2522a00be2120685e
:104f980011f060fa2a88a423e2522a00fa21206834
:104fa80011f058fa2a8887235b00e2522a00fe2172
:104fb800206811f04ffa2a888b235b00e252064bd7
:104fc8000422e254002405e315f0fcf8064912f027
:104fd80087ff67e72847002005020000bc80010022
:104fe80098130100a8130100bc13010015f0f6f88e
:104ff800032800d991e06b469d1db04c2a00db21a7
:10500800206811f027fa2a88d623e2522a00eb21d9
:10501800206811f01ffa2a88f623e2522a00df21bd
:10502800206811f017fa2a88dc23e2522a00ef21bf
:10503800206811f00ffa2a88fc23e2522a00b321d3
:10504800206811f007fa2a888c23e2522a00c3212b
:10505800206811f0fff92a88ae23e2522a00d321f2
:10506800206811f0f7f92a88c623e2522a00e321c2
:10507800206811f0eff92a88e623e2522a00d721a6
:10508800206811f0e7f92a88d023e2522a00e721a4
:10509800206811f0dff92a88f023e2522a00b721ac
:1050a800206811f0d7f92a889423e2522a00c721f0
:1050b800206811f0cff92a88b623e2522a00bb21d2
:1050c800206811f0c7f92a889e23e2522a00cb21d2
:1050d800206811f0bff92a88c023e2522a00bf21b4
:1050e800206811f0b7f92a88a623e2522a00fb218a
:1050f800206811f0aff92a8888235b00e2522a0061
:10510800ff21206811f0a6f92a888c235b00e2525f
:105118006b4b0522e25400245ce215f053f8694910
:1051280012f0defe67e715f059f803284dd86b46f4
:105138009d1d624c2a00b021206811f08bf92a8845
:105148008623e2522a00c021206811f083f92a88b8
:10515800a823e2522a00b421206811f07bf92a889a
:105168008e23e2522a00c421206811f073f92a889c
:10517800b023e2522a00b821206811f06bf92b887d
:105188009627e3532a00c821206811f063f92b8879
:10519800b826a3532a009821206811f05bf92b88c0
:1051a800e3532a009921206811f054f92b88a3535e
:1051b8002a00bc21206811f04df92a88a023e25268
:1051c8003f4b0622e254002404e214f0fbff3e4960
:1051d80012f086feabe715f001f8032868d86b4695
:1051e8009d1d364c2a008121206811f033f98e224a
:1051f8005200a35a29885b189bb2a3522a00a12106
:10520800206811f027f9a3225200a35a29885b18b5
:105218009bb2a3522a00a921206811f01bf9ab22e6
:105228005200a35a29885b189bb2a3522a008521f1
:10523800206811f00ff992225200a35a29885b18ae
:105248009bb2a3522a00a521206811f003f9a722d6
:105258005200a35a29885b189bb2a3522a00ad2199
:10526800206811f0f7f8af225200a35a29885b187a
:105278009bb2a3522a008921206811f0ebf89622ec
:105288005200a35a29885b189bb2a3522a008d2189
:10529800206811f0dff89a225200a35a29885b1877
:1052a8009bb2a352064b2e3aff3ae254002491e1f6
:1052b80014f088ff054912f013fe90e728470020f4
:1052c80005020000d0130100e4130100fc130100e3
:1052d80014f084ff032868d86b469d1dd04c2a0023
:1052e8008221206811f0b6f88f225200a35a29882b
:1052f8005b189bb2a3522a00a221206811f0aaf8d9
:10530800a4225200a35a29885b189bb2a3522a00f0
:10531800aa21206811f09ef8ac225200a35a2988cd
:105328005b189bb2a3522a008621206811f092f8dc
:1053380093225200a35a29885b189bb2a3522a00d1
:10534800a621206811f086f8a8225200a35a2988bd
:105358005b189bb2a3522a00ae21206811f07af89c
:10536800b0225200a35a29885b189bb2a3522a0084
:105378008a21206811f06ef897225200a35a2988d2
:105388005b189bb2a3522a008e21206811f062f8a4
:105398009b225200a35a29885b189bb2a352a14ba7
:1053a8002f3aff3ae254002414e114f00bff9e490f
:1053b80012f096fd90e714f011ff032868d86b46a9
:1053c8009d1d974c2a008321206811f043f89022f4
:1053d8005200a35a29885b189bb2a3522a00a32122
:1053e800206811f037f8a5225200a35a29885b18c3
:1053f8009bb2a3522a00ab21206811f02bf8ad22f2
:105408005200a35a29885b189bb2a3522a0087210d
:10541800206811f01ff894225200a35a29885b18bb
:105428009bb2a3522a00a721206811f013f8a922e1
:105438005200a35a29885b189bb2a3522a00af21b5
:10544800206811f007f8b1225200a35a29885b1886
:105458009bb2a3522a008b21206810f0fbff9822f0
:105468005200a35a29885b189bb2a3522a008f21a5
:10547800206810f0efff9c225200a35a29885b187d
:105488009bb2a352674b303aff3ae2540024a1e0a2
:1054980014f098fe654912f023fd90e714f09efe83
:1054a800032800d999e06b469d1d5d4c2a00802198
:1054b800206810f0cfff8d225200a35a29885b186c
:1054c8009bb2a3522a00a021206810f0c3ffa22299
:1054d8005200a35a29885b189bb2a3522a00a8211c
:1054e800206810f0b7ffaa225200a35a29885b1837
:1054f8009bb2a3522a008421206810f0abff9122ae
:105508005200a35a29885b189bb2a3522a00a421ef
:10551800206810f09fffa6225200a35a29885b1822
:105528009bb2a3522a00ac21206810f093ffae2250
:105538005200a35a29885b189bb2a3522a008821db
:10554800206810f087ff95225200a35a29885b181b
:105558009bb2a3522a008c21206810f07bff99226d
:105568005200a35a29885b189bb2a3522d4b293aa3
:10557800ff3ae2546b469d1d294c2a00dc21206825
:1055880010f068ff2a88e023e2522a00d821206818
:1055980010f060ff2a88de23e25214f01ffe032871
:1055a80021d86b469d1d1e4c2a00f821206810f05a
:1055b80051ff2a8885235b00e2522a00fc212068db
:1055c80010f048ff2a8889235b00e252154b0b2212
:1055d800e2540024200003b0f0bd14f0f3fd144998
:1055e80012f07efc5fe714f0edfd124912f078fc32
:1055f800d7e714f0f3fd00240228ebd914f0e2fdfc
:105608000d4912f06dfce5e714f0e8fd14f0dafd41
:105618000a4912f065fc0124dce70024dae7c046f9
:10562800284700200502000010140100241401007e
:1056380038140100501401006414010074140100ae
:020000040000fa
:10564800f0b5de4657464e464546e0b599b013904c
:105658000d000092019313a810f01efd002800da37
:10566800abe38300c24a9b58002b01d000221a707a
:10567800c04b4000c25c029218184378994610004b
:1056880014f0a0fcc30700d599e3430700d59ee3b7
:10569800002d01d100f0f0fb6b681793002b01d1ae
:1056a80000f0edfb179b5a1eb3498a4201d81a42f3
:1056b80001d0012317936b789846013b012b01d940
:1056c80001239846ae68721eab4b9a4204d8330742
:1056d80004d08026b60001e08026b600ec6880235e
:1056e8005b049c4200d9a0e0631e23405a42534108
:1056f8005b421c40a14b019a9a4200d869e3009989
:10570800002900d167e32b789b46002316934b466c
:10571800002b00d18be0012300220d00029813f02a
:1057280085fa002800d058e3944b2900ea5c12025d
:10573800013beb5c1343924a1bb2934200d04ee309
:105748004b461d01af35ff358c466544042b00d907
:1057580047e32b79002b00d145e32800083014f0eb
:10576800edf9049028000c3014f0e8f91690169b17
:105778007f2b00d83be3834b802203929c4201d8c5
:10578800630a039302235a461a400d9264d0013be0
:105798005a4613405a42534102339a4643460593a8
:1057a80014f0eafd1290169a0692130b0f937301e8
:1057b8005b0a0b93049901310e918c4663440a935a
:1057c800179b591e08915b420993530c109343464b
:1057d8001193b0465346032b00d11fe3039b1c1eb5
:1057e80058d0210006980ef025fd674b984265d9e0
:1057f800871c7f00614b9c4667447f0a05990d0012
:105808007d430a9b9c466544089b5e19099b1e4084
:10581800761b30000ef04afd002957d0013e049b4c
:1058280002330c930223079354e0002462e716aa7c
:105838000121029811f064fb002800d0d5e2002372
:1058480004935b461b0792d4169b3f2b8fd93f3b93
:1058580016933f2304938ae75b46db0700d4c8e22c
:1058680002239a469ae70394b4e7484b069a9a4269
:105878000ed9474b04330224022210998a4200d9d8
:10588800d0e2640002339a1e1288002af6d1c9e2d7
:105898000124c7e23f4b069a9a420dd93e4b043386
:1058a800022404220f998a429bd8640002339a1e6c
:1058b8001288002af7d194e7012492e747003f189d
:1058c80001377f08033701239a4693e70e9b0c9311
:1058d80001230793059930000ef0acfcc7190b9e05
:1058e8002301049aad1a5b19069a9a4200d284e2ff
:1058f800079b9819101a059b7b43c01a21000ef0cc
:1059080099fc5346032b13d0022b49d1234b9842c1
:105918001ed9039b002b00d07de26400402ca2d945
:105928000d9b002b00d079e2802c0fd8039451e70f
:105938001a4b984234d8039b002b00d05fe2012c0d
:1059480002d96308039345e70e2039e20e2037e2b7
:105958000d4b984200d9bee0039b002b00d050e2cb
:1059680063000393802b00d834e70e2028e2c0465a
:105978004c5e0020805e0020ff7f0000ff010000d9
:1059880055aaffffff010100f50f0000ffff01000e
:10599800ac9f0100ff0f00009c9f0100f5ff000075
:1059a80008964646119b984605005346012b00d0a1
:1059b800afe0e24b984200d925e280229200002114
:1059c800009814f049fa0b22dd49009814f03afacd
:1059d8000023009ad372023313735473079b937393
:1059e8009bb21b0ad37343461374009a5674b6b21b
:1059f800360a9674d34b0699994200d9a8e0d17417
:105a08008bb21b0a1375019b5b0a9846129b069a78
:105a1800944663441e00f82300994b75b93b0b76f6
:105a280000234b76ff228a76cb7608001c30049937
:105a380014f0a0fa5346032b00d18fe03100009deb
:105a48002800273014f096faaf75bbb21b0aeb7525
:105a580024238022ea540233573aea54163aba49c0
:105a680028002b3014f0eef9ff235b005522ea548e
:105a7800b64b5532ea54ff3bff3b049a2900029883
:105a880012f00cfd002800d0bfe1019b5a0a520217
:105a98000021009814f0e0f9059b002b00d1e7e104
