:020000040000fa
:10000000f07f0020d5350100a7d30000fbd600000b
:1000100000000000000000000000000000000000e0
:1000200000000000000000000000000053e4000099
:10003000000000000000000053e4000053e4000052
:1000400053e4000053e4000053e40000ad5001000d
:10005000a11f010053e4000053e4000053e400003a
:1000600039c0000053e400006943010053e400007c
:10007000e5be0000d954010053e4000053e4000041
:1000800053e4000053e4000053e4000053e4000094
:1000900053e4000053e4000053e4000053e4000084
:0400a00053e4000025
:020000040000fa
:1000a400f8b5c046f8bc08bc9e4670474d34010004
:1000b400f8b5c046f8bc08bc9e467047253401001c
:020000040000fa
:0800c400ece000000100000067
:020000040000fa
:1000cc00f0b5d646474680b5d9b0c94a6823d15c4d
:1000dc0024290ad88b00c74ad3589f46c64816f025
:1000ec004bfdc34a68230221d15459b00cbc904635
:1000fc009a46f0bd16f0e4fe0028f6d0bf49c04881
:10010c0016f020fbbf49c04816f026fbb84b002266
:10011c005a66683205219954bc4bbd4a1168196066
:10012c009188998092799a71dfe716f079fd07280a
:10013c00dbd1af4a68230421d154d6e7b548042358
:10014c00037000234370b44b4360ff23037243726c
:10015c00f83b4381ad4bc36013f0b6fba44a682354
:10016c002521d154c1e7ab4804230370023b4370f3
:10017c0000234360ff3303724372f83b4381a34b6c
:10018c00c36013f0a1fb9a4a68230121d154ace758
:10019c00a24816f0f1fc964a68230121d154a4e739
:1001ac009f4816f0e9fc924a6a23d05a46ab42aa01
:1001bc0044a916f049fe00280ad042ab1a8846a979
:1001cc00984810f031fa8a4a68230121d1548ce7ff
:1001dc00874a6a23d15a944810f026faf3e79348d9
:1001ec0016f0cafc824a68230121d1547de7804a6b
:1001fc006a23d45a16f072fe844200d33be17c4a47
:10020c006a23d35a002b28d016f068fe784a6a234a
:10021c00d45a031bdbb2032b23d800d17de0022b75
:10022c0000d1bee0012b00d029e146ab44aa42a983
:10023c00200016f009fe002800d115e146a97c48e3
:10024c0010f0f2f942ab19887a4810f0edf96849d0
:10025c006a228b5a01338b5211e1714816f08cfcd7
:10026c00d2e746ab42aa44a9200016f0edfd0028c7
:10027c0011d05f4a6a23d05a013080b2b83302aa37
:10028c00944663440332ff3285214900614416f0e1
:10029c00dbfd00280bd1564a6a23d15a624810f074
:1002ac00c3f953496a228b5a04338b52e7e0504a04
:1002bc006a23d05a023080b24fab43aa45a916f03c
:1002cc00c3fd0028e7d04a4a6a23d05a033080b2d3
:1002dc00dc3302aa944663440732ff32872149007b
:1002ec00614416f0b1fd0028d5d0a3235b0002aa0f
:1002fc009446634400934fab91225200624446a94a
:10030c004d4810f091f942a8838842880188c08832
:10031c0000904a4810f088f9c3e746ab42aa44a9ba
:10032c00200016f091fd002811d0314a6a23d05ad2
:10033c00013080b2b83302aa944663440332ff32d0
:10034c0085214900614416f07ffd00280bd1284a15
:10035c006a23d15a344810f067f925496a228b5a1e
:10036c0003338b528be0224a6a23d05a023080b27c
:10037c004fab43aa45a916f067fd0028e7d04fab59
:10038c009122520002a98c46624446a92c4810f0d6
:10039c004bf942a98b884a8809882a4810f044f9fd
:1003ac00dbe746ab42aa44a9200016f04dfd00281d
:1003bc0011d00f4a6a23d05a013080b2b83302aa46
:1003cc00944663440332ff3285214900614416f0a0
:1003dc003bfd002838d1064a6a23d15a124810f046
:1003ec0023f903496a228b5a02338b5247e0c046e9
:1003fc00bc2800200c050100f83200000844002045
:10040c005947010098430020214701005045002026
:10041c00746e0100d844002049640100fc320000d5
:10042c00c05a01004c3300005c3300008c670100a3
:10043c00f4330000fc3300007c33000094330000e4
:10044c00ac330000c03300009122520002ab9c463a
:10045c00624446a9c04810f0e7f842ab5a881988a4
:10046c00be4810f0e1f8bce7bd4a6a23d15abd483a
:10047c0010f0daf8ebe6ba4a68230121d154b84bf4
:10048c006822985c69215854453999544a3ada657e
:10049c002be6b54816f070fbb14a6c23d05a46ab2c
:1004ac0042aa44a916f0b6fb00280ad042ab1a881f
:1004bc0046a9ae4810f0b8f8a94a68230121d154d6
:1004cc0013e6a74a6c23d15aa64810f0adf8f3e70f
:1004dc00a34a6c23d45a16f005fd844200d30ee1d6
:1004ec009f4a6c23d35a002b28d016f0fbfc9c4a55
:1004fc006c23d45a031bdbb2032b23d800d17de031
:10050c00022b00d1bee0012b00d0fce046ab42aa8e
:10051c0044a9200016f07efb002800d1e8e046a993
:10052c00934810f081f842ab1988924810f07cf88f
:10053c008b496c228b5a01338b52e4e08a4816f0bb
:10054c001bfbd2e746ab42aa44a9200016f062fb83
:10055c00002811d0824a6c23d05a013080b2b633b5
:10056c0002aa944663440332ff3285214900614458
:10057c0016f050fb00280bd1794a6c23d15a7948dc
:10058c0010f052f876496c228b5a04338b52bae035
:10059c00734a6c23d05a023080b24fab43aa45a9a0
:1005ac0016f038fb0028e7d06d4a6c23d05a033084
:1005bc0080b2da3302aa944663440732ff328721b1
:1005cc004900614416f026fb0028d5d0a3235b001c
:1005dc0002aa9446634400934fab912252006244aa
:1005ec0046a9654810f020f842a883884288018803
:1005fc00c0880090614810f017f8c3e746ab42aad8
:10060c0044a9200016f006fb002811d0544a6c2394
:10061c00d05a013080b2b63302aa944663440332f6
:10062c00ff3285214900614416f0f4fa00280bd101
:10063c004b4a6c23d15a4b480ff0f6ff48496c22b9
:10064c008b5a03338b525ee0454a6c23d05a0230ee
:10065c0080b24fab43aa45a916f0dcfa0028e7d0cc
:10066c004fab9122520002a98c46624446a94448e1
:10067c000ff0daff42a98b884a88098841480ff0ad
:10068c00d3ffdbe746ab42aa44a9200016f0c2fa1e
:10069c00002811d0324a6c23d05a013080b2b633c4
:1006ac0002aa944663440332ff3285214900614417
:1006bc0016f0b0fa00280bd1294a6c23d15a2948dc
:1006cc000ff0b2ff26496c228b5a02338b521ae080
:1006dc009122520002ab9c46624446a91e480ff080
:1006ec00a3ff42ab5a8819881c480ff09dffe9e71d
:1006fc001b4a6c23d15a1b480ff096ff18e7184a77
:10070c0068230121d154164b6822985c69215854f6
:10071c00453999544a3ada65e7e4134816f02cfa4d
:10072c000f4a6e23d05a46ab42aa44a916f06cfa73
:10073c0000280ad042ab1a8846a913480ff074ff60
:10074c00074a68230121d154cfe4054a6e23d15abc
:10075c0004480ff069fff3e7d4330000e4330000e2
:10076c00bc2800205c330000c05a01000434000097
:10077c00f4330000fc3300007c33000094330000a1
:10078c00ac330000c03300004c330000bc4a6e2375
:10079c00d45a16f0a5fb844200d30ee1b84a6e235e
:1007ac00d35a002b28d016f09bfbb54a6e23d45a93
:1007bc00031bdbb2032b23d800d17de0022b00d12d
:1007cc00bee0012b00d0fce046ab42aa44a92000bd
:1007dc0016f01afa002800d1e8e046a9a9480ff053
:1007ec0023ff42ab1988a8480ff01effa4496e22c4
:1007fc008b5a01338b52e4e0a44816f0bdf9d2e7d2
:10080c0046ab42aa44a9200016f0fef9002811d0ec
:10081c009b4a6e23d05a013080b2b43302aa94465c
:10082c0063440332ff3285214900614416f0ecf930
:10083c0000280bd1924a6e23d15a95480ff0f4fe42
:10084c008f496e228b5a04338b52bae08c4a6e233a
:10085c00d05a023080b24fab43aa45a916f0d4f956
:10086c000028e7d0864a6e23d05a033080b2d833a2
:10087c0002aa944663440732ff328721490061443f
:10088c0016f0c2f90028d5d0a3235b0002aa944627
:10089c00634400934fab91225200624446a97d48b9
:1008ac000ff0c2fe42a8838842880188c08800905d
:1008bc0079480ff0b9fec3e746ab42aa44a9200021
:1008cc0016f0a2f9002811d06d4a6e23d05a0130cf
:1008dc0080b2b43302aa944663440332ff328521ba
:1008ec004900614416f090f900280bd1644a6e233c
:1008fc00d15a67480ff098fe61496e228b5a033328
:10090c008b525ee05e4a6e23d05a023080b24fabff
:10091c0043aa45a916f078f90028e7d04fab9122ed
:10092c00520002a98c46624446a95c480ff07cfe3a
:10093c0042a98b884a88098859480ff075fedbe775
:10094c0046ab42aa44a9200016f05ef9002811d04b
:10095c004b4a6e23d05a013080b2b43302aa94466b
:10096c0063440332ff3285214900614416f04cf98f
:10097c0000280bd1424a6e23d15a45480ff054fe41
:10098c003f496e228b5a02338b521ae0912252004d
:10099c0002ab9c46624446a942480ff045fe42ab6e
:1009ac005a88198840480ff03ffee9e7344a6e2315
:1009bc00d15a37480ff038fe18e7314a6823012125
:1009cc00d1542f4b6822985c69215854453999545d
:1009dc004a3ada65fff789fb2c4816f0cdf8334814
:1009ec0016f0caf8324933480ff01efe244a682329
:1009fc000121d154fff779fb244816f0bdf82cac3b
:100a0c00200012f02dfd2c4816f0b6f8237b22693d
:100a1c000132d2b261696439c9b22c980290606813
:100a2c000190a068009025480ff0fefd144a682341
:100a3c000121d154fff759fb16f012fa04001348a8
:100a4c0016f09af81e4816f097f801250ae0a378dc
:100a5c006278009129001b480ff0e6fd0334013544
:100a6c00052d03d02178ff29f8d0f0e7164816f0b1
:100a7c0083f8034a68230121d154fff736fbc046a3
:100a8c00bc280020f4330000fc330000c05a0100e5
:100a9c005c3300007c33000094330000ac33000066
:100aac00c0330000d4330000e433000010340000e5
:100abc005045002020340000283400005034000041
:100acc00703400008034000098340000e84b1a00a9
:100adc0020320024002503cb24184d419342fad137
:100aec00e44816f049f8e44e300014f069fe41b2c7
:100afc00e2480ff099fd2000290014f019fae049a2
:100b0c000ff048fd12f08aff04000d00d84fb869b1
:100b1c00f96914f00dfada490ff03cfd12f07eff82
:100b2c00069007913869796914f002fad4490ff0ec
:100b3c0031fd12f073ff04900591b868f96814f058
:100b4c00f7f9cf490ff026fd12f068ff02900391e0
:100b5c003868796814f0ecf9c9490ff01bfd12f0f4
:100b6c005dff0090019122002b00c6480ff05cfd48
:100b7c0069231222f254013b1232f2544a3bf365c0
:100b8c00fff7b3fabc49a02292008b5c013bdbb2ad
:100b9c008b54002b05d1b84a68230121d154fff79f
:100bac00a4fa0c00080014f00bfe0130c1b22000b6
:100bbc0013f09cf9200012f0a9feece72c22002186
:100bcc0021a815f00ffeab4815f0d6ffaa4c9e25b8
:100bdc00ad00605d20a914f0cdfeab4be15c605d17
:100bec002caa12f035f900286ad0a34a535d002bc9
:100bfc0010d0012b32d0022b37d0032b3cd0042b3e
:100c0c0041d0052b0bd19c4a9f4bd15c9f480ff0d8
:100c1c000bfd04e09c4bd15c9d480ff005fd20ab17
:100c2c0019789c480ff000fd2c2221a92ca815f056
:100c3c0077fa00282ed198480ff0f6fc2c2221a927
:100c4c0037a815f06dfa00282fd194480ff0ecfc62
:100c5c00894a68230121d154fff747fa864a8a4b07
:100c6c00d15c8f480ff0e0fcd9e7834a864bd15c0e
:100c7c008c480ff0d9fcd2e77f4a834bd15c8a4871
:100c8c000ff0d2fccbe77c4a7f4bd15c87480ff04e
:100c9c00cbfcc4e72e9b2f9a30991c9101312d98d7
:100cac00009083480ff0c0fcc8e7399b3a9a3b99f7
:100cbc001c910131389800907e480ff0b5fcc7e7c5
:100ccc007d4815f059ffc3e76a4815f055ff6a4d8a
:100cdc00280014f075fd41b278480ff0a5fc784c53
:100cec00206815f069f877490ff054fc12f096fe65
:100cfc001c901d912723e35c1b932623e35c1a9322
:100d0c002523e35c19932426a35d01331893206af1
:100d1c0015f052f86b490ff03dfc12f07ffe169067
:100d2c001791e37f1593a37f1493637f1393237f12
:100d3c0001331293a06915f03ff862490ff02afcb9
:100d4c0012f06cfe10901191e37d0f93a37d0e9326
:100d5c00637d0d93237d01330c93206915f02cf8e2
:100d6c0058490ff017fc12f059fe0a900b91e37bd7
:100d7c000993a37b0893637b0793237b013306932f
:100d8c00a06815f019f84f490ff004fc12f046fe5c
:100d9c0004900591e3790393a3790293637901930a
:100dac002379013300931c9a1d9b47480ff03cfca0
:100dbc0069231522ea54013bee544a3beb65fff7dd
:100dcc0094f92d49a02292008b5c013bdbb28b5431
:100ddc00002b05d1284a68230121d154fff785f94e
:100dec000c00080014f0ecfc0130c1b2200013f030
:100dfc007df8200012f0acfdece71e4815f0bcfeaf
:100e0c00002220a9012015f0e9fa002221a90220d4
:100e1c0015f0e4fa00222ca9042015f0dffa209832
:100e2c0014f0caff29490ff0b5fb12f0f7fd0400ce
:100e3c000d002c9814f0c0ff24490ff0abfb12f0fe
:100e4c00edfd02900391219814f0b6ff1f490ff0ad
:100e5c00a1fb12f0e3fd0090019122002b001c4835
:100e6c000ff0e2fb044a68230121d154fff73df94e
:100e7c0008440020c05a0100bc2800209c3400000b
:100e8c008096184bb83400007902000088350000b9
:100e9c00f4340000a8350000b8350000f43500002b
:100eac00103500002c350000483500006835000076
:100ebc00d03500000c3600003036000064360000df
:100ecc009843002000007a448436000000401c4601
:100edc0008370000fa4815f04ffe00221fa9012028
:100eec0015f088fa002220a9022015f083fa0022be
:100efc0021a9042015f07efa00222ca9002015f05f
:100f0c0079fa1f9814f058ffee490ff043fb12f0da
:100f1c0085fd04000d002c9814f04effe9490ff0ec
:100f2c0039fb12f07bfd04900591219814f044ffdd
:100f3c00e4490ff02ffb12f071fd02900391209801
:100f4c0014f03affdf490ff025fb12f067fd00901b
:100f5c00019122002b00dc480ff066fbdb4a682372
:100f6c000121d154fff7c1f8d54815f005fe1eab91
:100f7c009a46002352461fa91f2014f0d8f9712558
:100f8c0002ab9c46654400232a0020a9012014f0e2
:100f9c00cef9722702ab9c46674400233a0021a984
:100fac00022014f0c4f9732602ab9c46664400235d
:100fbc0032002ca9042014f0baf91f9814f0fcfe8e
:100fcc00c3490ff0e7fa12f029fd1c901d91c14c9a
:100fdc0053461b78e35c98462c9814f0edfebc4904
:100fec000ff0d8fa12f01afd0a900b913378e35ceb
:100ffc000893219814f0e0feb5490ff0cbfa12f0eb
:10100c000dfd069007913b78e35c0493209814f057
:10101c00d3feaf490ff0befa12f000fd029003911f
:10102c002b78e35c00931c9a1d9b4146aa480ff059
:10103c00fbfaa64a68230121d154fff756f8a048c1
:10104c0015f09afd1eab9a46002352461fa91f208d
:10105c0014f06df9712502ab9c46654400232a00ff
:10106c0020a9012014f063f9722702ab9c46674457
:10107c0000233a0021a9022014f059f9732602ab7f
:10108c009c466644002332002ca9042014f04ff92e
:10109c001f9814f091fe8e490ff07cfa12f0befcf2
:1010ac001c901d918b4c53461b78e35c98462c98f6
:1010bc0014f082fe86490ff06dfa12f0affc0a9024
:1010cc000b913378e35c0893219814f075fe8049fa
:1010dc000ff060fa12f0a2fc069007913b78e35ceb
:1010ec000493209814f068fe79490ff053fa12f02b
:1010fc0095fc029003912b78e35c00931c9a1d9b4a
:10110c00414676480ff090fa704a68230121d15479
:10111c00fef7ebff6a4815f02ffd1eab9a46002335
:10112c0052461fa91f2014f017f9712502ab9c46db
:10113c00654400232a0020a9012014f00df9722720
:10114c0002ab9c46674400233a0021a9022014f00c
:10115c0003f9732602ab9c466644002332002ca98b
:10116c00042014f0f9f81f9814f026fe58490ff0db
:10117c0011fa12f053fc1c901d91564c53461b78df
:10118c00e35c98462c9814f017fe51490ff002fac4
:10119c0012f044fc0a900b913378e35c089321988d
:1011ac0014f00afe4a490ff0f5f912f037fc0690dc
:1011bc0007913b78e35c0493209814f0fdfd4449bf
:1011cc000ff0e8f912f02afc029003912b78e35c03
:1011dc0000931c9a1d9b414641480ff025fa3b4a4f
:1011ec0068230121d154fef780ff354815f0c4fc6b
:1011fc001eab9a46002352461fa91f2014f0c1f8bb
:10120c00712502ab9c46654400232a0020a90120cd
:10121c0014f0b7f8722702ab9c46674400233a00df
:10122c0021a9022014f0adf8732602ab9c4666444b
:10123c00002332002ca9042014f0a3f81f9814f0fa
:10124c00bbfd23490ff0a6f912f0e8fb1c901d9191
:10125c00204c53461b78e35c98462c9814f0acfd5c
:10126c001b490ff097f912f0d9fb0a900b913378c8
:10127c00e35c0893219814f09ffd15490ff08af94f
:10128c0012f0ccfb069007913b78e35c049320981a
:10129c0014f092fd0e490ff07df912f0bffb029095
:1012ac0003912b78e35c00931c9a1d9b41460d48df
:1012bc000ff0baf9054a68230121d154fef715ff46
:1012cc00c05a01000050c34740370000bc28002022
:1012dc0000007a44f46e010080370000cc37000027
:1012ec002838000074380000d74815f045fc002160
:1012fc002ca814f052fd2c9814f05efdd3490ff07d
:10130c0049f912f08bfb02000b00d1480ff08cf95d
:10131c00d04a68230121d154fef7e7feca4815f0e4
:10132c002bfc21ac002221002ca815f069fb2c9879
:10133c0014f042fdc8490ff02df912f06ffb0200ba
:10134c000b002178c548415cc5480ff06df9c14ac6
:10135c0068230121d154fef7c8febb4815f00cfce4
:10136c00722602ab9c4666440023320020a9012061
:10137c0013f0b3ff732502ab9c46654400232a008f
:10138c0021a9022013f0a9ff1faf00233a002ca9ba
:10139c00042013f0a2ff209814f00efdae490ff0bc
:1013ac00f9f812f03bfb1c901d91ac4c3378e65cc9
:1013bc002c9814f001fda8490ff0ecf812f02efb5c
:1013cc00069007913b78e35c0493219814f0f4fcad
:1013dc00a1490ff0dff812f021fb029003912b785a
:1013ec00e35c00931c9a1d9b31009e480ff01cf986
:1013fc00984a68230121d154fef777fe924815f0e4
:10140c00bbfb722602ab9c4666440023320020a92b
:10141c00012013f077ff732502ab9c466544002333
:10142c002a0021a9022013f06dff1faf00233a0000
:10143c002ca9042013f066ff209814f0bdfc8649fb
:10144c000ff0a8f812f0eafa1c901d91834c337837
:10145c00e65c2c9814f0b0fc7f490ff09bf812f06e
:10146c00ddfa069007913b78e35c0493219814f025
:10147c00a3fc79490ff08ef812f0d0fa0290039188
:10148c002b78e35c00931c9a1d9b310076480ff07f
:10149c00cbf8704a68230121d154fef726fe6a4826
:1014ac0015f06afb1ead00232a001fa9012013f0c2
:1014bc007dff712702ab9c46674400233a0020a9ac
:1014cc00022013f073ff722602ab9c466644002385
:1014dc00320021a9042013f069ff732302aa944659
:1014ec0063449a46002352462ca91f2013f05eff3a
:1014fc002c9814f061fc5d490ff04cf812f08efa48
:10150c001c901d91554c53461b78e35c98462198d2
:10151c0014f052fc55490ff03df812f07ffa0a9086
:10152c000b913378e35c0893209814f045fc4f49f9
:10153c000ff030f812f072fa069007913b78e35cea
:10154c0004931f9814f038fc48490ff023f812f05c
:10155c0065fa029003912b78e35c00931c9a1d9b17
:10156c00414643480ff060f83a4a68230121d154b0
:10157c00fef7bbfd374a3f4bd356002b05dc354af3
:10158c0068230121d154fef7b0fd2f4815f0f4fa71
:10159c00304a384bd756042f03dcffb2002f01d151
:1015ac0015e0022700252b4c9f26b600a3599a68fc
:1015bc00196831480ff038f82e4aa35c013ba3544c
:1015cc000135edb2a3590c33a351af42ecd8214bea
:1015dc006822985c69215854453999545e3ada6509
:1015ec00fef783fd1b4b692223219954013a0131eb
:1015fc009954043ada65fef778fd164b986d431c46
:10160c0014d014f073fe002801d1fef76efd114bbf
:10161c00012252429a656a329b5c222b0cd0232bfe
:10162c000ed00c4968228b54fef75ffd13494868b5
:10163c0011f090fbfef759fd15f016fbfef755fd6a
:10164c0014f072fcfef751fdc05a01000000c842b4
:10165c00c4380000bc28002000002041f46e0100ba
:10166c00ec380000103900007039000000007a449a
:10167c00cc3900007b020000a05a01001429002084
:020000040000fa
:10168c00000000000000000000000000000000004e
:10169c00000000000000000000000000000000003e
:1016ac00000000000000300030003000300030003e
:1016bc00300030000000300030000000000000005e
:1016cc000000000000006c006c006c006c0000005e
:1016dc0000000000000000000000000000000000fe
:1016ec00000000000000000048004800fc0048001a
:1016fc0048004800fc0048004800000000000000c2
:10170c00000000000000100010003c004000300001
:10171c000800040078001000100000000000000019
:10172c0000000000000000007c00a400a80048009d
:10173c00100014002a004a004400000000000000c1
:10174c000000000000007000880088008800700015
:10175c0088008a008a008c007000000000000000e5
:10176c00000000000000100010001000000000003d
:10177c00000000000000000000000000000000005d
:10178c0000000000080010001000200020002000c5
:10179c0020002000200010001000080000000000b5
:1017ac0000000000200010001000080008000800d5
:1017bc0008000800080010001000200000000000c5
:1017cc00000000000000280010007c001000280021
:1017dc0000000000000000000000000000000000fd
:1017ec0000000000000000000000000010001000cd
:1017fc001000fe001000100010000000000000009f
:10180c0000000000000000000000000000000000cc
:10181c00000000000000180018003000200000003c
:10182c0000000000000000000000000000000000ac
:10183c000000fe000000000000000000000000009e
:10184c00000000000000000000000000000000008c
:10185c00000000000000180018000000000000004c
:10186c000000000000000000040008000800100048
:10187c00100020002000400040000000000000008c
:10188c000000000000007800840084008c009400ac
:10189c00a400c40084008400780000000000000054
:1018ac00000000000000100030005000100010007c
:1018bc0010001000100010007c0000000000000060
:1018cc0000000000000070008800080008001000f4
:1018dc001000200020004000fc0000000000000070
:1018ec0000000000000070008800080008003000b4
:1018fc0008000800080088007000000000000000cc
:10190c000000000000000800180028002800480013
:10191c0088008800fc00080008000000000000009f
:10192c000000000000007c0080008000b800c400b3
:10193c000400040004008400780000000000000093
:10194c000000000000003800400080008000b00063
:10195c00c800840084004800300000000000000033
:10196c00000000000000fc00040004000800080057
:10197c0010001000200020004000000000000000bb
:10198c0000000000000078008400840084007800cf
:10199c0084008400840084007800000000000000b3
:1019ac0000000000000078008400840084008c009b
:1019bc007400040008001000e000000000000000ab
:1019cc0000000000000000000000000000003000db
:1019dc00300000000000300030000000000000006b
:1019ec00000000000000000000000000000060008b
:1019fc0060000000000060006000c000800000007b
:101a0c0000000000000000000000000004001800ae
:101a1c00600080006000180004000000000000005e
:101a2c0000000000000000000000000000007e002c
:101a3c00000000007e00000000000000000000001c
:101a4c00000000000000000000000000400030001a
:101a5c000c0002000c0030004000000000000000f0
:101a6c000000000000007000880008000800100052
:101a7c0020002000000020002000000000000000da
:101a8c00000000000000000000003c004200ba0012
:101a9c00aa00aa00aa00bc0040003c000000000004
:101aac000000000000001000100028002800280092
:101abc0044007c0044008200820000000000000012
:101acc00000000000000f000880088008800f00092
:101adc008800880088008800f000000000000000ea
:101aec0000000000000038004400800080008000ee
:101afc0080008000800044003800000000000000de
:101b0c00000000000000f0008800840084008400c5
:101b1c008400840084008800f000000000000000b5
:101b2c000000000000007c004000400040007800f5
:101b3c0040004000400040007c000000000000001d
:101b4c000000000000007c0040004000400040000d
:101b5c007800400040004000400000000000000001
:101b6c00000000000000380044008000800080006d
:101b7c009c008400840044003c0000000000000035
:101b8c000000000000008400840084008400fc003d
:101b9c0084008400840084008400000000000000a5
:101bac000000000000007c0010001000100010006d
:101bbc0010001000100010007c000000000000005d
:101bcc00000000000000f8000800080008000800f1
:101bdc000800080008001000e000000000000000f1
:101bec000000000000008400840088009000a00029
:101bfc00d0008800880084008400000000000000f1
:101c0c000000000000008000800080008000800048
:101c1c008000800080008000fc00000000000000bc
:101c2c0000000000000084008400cc00cc00b40054
:101c3c00b4008400840084008400000000000000d4
:101c4c000000000000008400c400c400a400a40034
:101c5c00940094008c008c008400000000000000b4
:101c6c000000000000003000480084008400840064
:101c7c008400840084004800300000000000000054
:101c8c00000000000000f000880084008400840044
:101c9c008800f00080008000800000000000000040
:101cac000000000000003000480084008400840024
:101cbc008400840084004800300020001c000000d8
:101ccc00000000000000f000880084008400880000
:101cdc00f0009000880084008400000000000000e8
:101cec0000000000000078008400800040003000fc
:101cfc0008000400040084007800000000000000cc
:101d0c00000000000000fe00100010001000100089
:101d1c001000100010001000100000000000000067
:101d2c000000000000008400840084008400840013
:101d3c00840084008400840078000000000000000f
:101d4c0000000000000082008200440044004400b7
:101d5c0044002800280028001000000000000000ab
:101d6c000000000000008400840084008400b400a3
:101d7c00b400b400780048004800000000000000e7
:101d8c000000000000008200440044002800100005
:101d9c0010002800440044008200000000000000f5
:101dac0000000000000082004400440028002800cd
:101dbc0028001000100010001000000000000000af
:101dcc00000000000000fc000400080008001000e7
:101ddc001000200040004000fe0000000000000049
:101dec0000000000e0008000800080008000800087
:101dfc0080008000800080008000e0000000000077
:101e0c0000000000000040004000200020001000f6
:101e1c00100008000800040004000000000000008e
:101e2c0000000000e0002000200020002000200026
:101e3c0020002000200020002000e0000000000016
:101e4c00000000000000100028004400000000000a
:101e5c000000000000000000000000000000000076
:101e6c000000000000000000000000000000000066
:101e7c0000000000000000007c00000000000000da
:101e8c00000000000000200010000800000000000e
:101e9c000000000000000000000000000000000036
:101eac0000000000000000000000000078000400aa
:101ebc0004007c0084008c00760000000000000010
:101ecc00000000008000800080008000b800c4008a
:101edc008400840084008800f000000000000000f2
:101eec000000000000000000000000007c008000ea
:101efc0080008000800080007c000000000000005a
:101f0c000000000002000200020002003e0042003d
:101f1c0082008200820042003e00000000000000af
:101f2c000000000000000000000000007c008200a7
:101f3c008200fe00800080007e0000000000000097
:101f4c000000000000001c0020002000fc0020000d
:101f5c002000200020002000fc00000000000000f9
:101f6c000000000000000000000000007c00840065
:101f7c008400840084008c00740004004400380049
:101f8c00000000008000800080008000b800c400c9
:101f9c0084008400840084008400000000000000a1
:101fac000000000000001000000000007000100095
:101fbc0010001000100010007c0000000000000059
:101fcc00000000000000080000000000780008007d
:101fdc000800080008000800080008001000e000d5
:101fec0000000000800080008000800088009000cd
:101ffc00a000e000900088008400000000000000b9
:10200c00000000000000f000100010001000100094
:10201c001000100010001000fe0000000000000076
:10202c00000000000000000000000000ac00d40024
:10203c0094009400940094009400000000000000b0
:10204c00000000000000000000000000b800c40008
:10205c0084008400840084008400000000000000e0
:10206c000000000000000000000000007800840068
:10207c0084008400840084007800000000000000cc
:10208c00000000000000000000000000b800c400c8
:10209c008400840084008400f800800080008000ac
:1020ac000000000000000000000000007c00840024
:1020bc0084008400840084007c000400040004007c
:1020cc00000000000000000000000000cc00300008
:1020dc002000200020002000f8000000000000007c
:1020ec000000000000000000000000007c008000e8
:1020fc008000780004000400f800000000000000dc
:10210c00000000000000000000002000fc00200087
:10211c0020002000200020001c0000000000000017
:10212c000000000000000000000000008800880093
:10213c0088008800880088007400000000000000ff
:10214c0000000000000000000000000082004400bd
:10215c0044002800280010001000000000000000bf
:10216c00000000000000000000000000840084005b
:10217c00b400b40048004800480000000000000013
:10218c0000000000000000000000000044002800d7
:10219c00280010002800440044000000000000004b
:1021ac00000000000000000000000000820044005d
:1021bc0044002800280028001000100020002000f7
:1021cc00000000000000000000000000fc00040003
:1021dc000800100020004000fc000000000000007f
:1021ec00000000000800100010000800080010009b
:1021fc00100008000800100010000800000000008b
:10220c000000000010001000100010001000000072
:10221c000000100010001000100010000000000062
:10222c000000000020001000100020002000100012
:10223c001000200020001000100020000000000002
:020000040000fa
:10224c00f0b5de4657464e464546e0b599b013907c
:10225c000d000092019313a810f0c6fb002800dac1
:10226c00abe38300c24a9b58002b01d000221a70aa
:10227c00c04b4000c25c029218184378994610007b
:10228c0014f06efbc30700d599e3430700d59ee31a
:10229c00002d01d100f0f0fb6b681793002b01d1de
:1022ac0000f0edfb179b5a1eb3498a4201d81a4223
:1022bc0001d0012317936b789846013b012b01d970
:1022cc0001239846ae68721eab4b9a4204d8330772
:1022dc0004d08026b60001e08026b600ec6880238e
:1022ec005b049c4200d9a0e0631e23405a42534138
:1022fc005b421c40a14b019a9a4200d869e30099b9
:10230c00002900d167e32b789b46002316934b469c
:10231c00002b00d18be0012300220d00029813f05a
:10232c00e9f8002800d058e3944b2900ea5c12022b
:10233c00013beb5c1343924a1bb2934200d04ee339
:10234c004b461d01af35ff358c466544042b00d937
:10235c0047e32b79002b00d145e32800083014f01b
:10236c00e5f8049028000c3014f0e0f81690169b59
:10237c007f2b00d83be3834b802203929c4201d8f5
:10238c00630a039302235a461a400d9264d0013b10
:10239c005a4613405a42534102339a4643460593d8
:1023ac0014f0defc1290169a0692130b0f93730125
:1023bc005b0a0b93049901310e918c4663440a938a
:1023cc00179b591e08915b420993530c109343467b
:1023dc001193b0465346032b00d11fe3039b1c1ee5
:1023ec0058d0210006980ef0e1fb674b984265d956
:1023fc00871c7f00614b9c4667447f0a05990d0042
:10240c007d430a9b9c466544089b5e19099b1e40b4
:10241c00761b30000ef006fc002957d0013e049bc1
:10242c0002330c930223079354e0002462e716aaac
:10243c000121029811f0e2f9002800d0d5e2002326
:10244c0004935b461b0792d4169b3f2b8fd93f3bc3
:10245c0016933f2304938ae75b46db0700d4c8e25c
:10246c0002239a469ae70394b4e7484b069a9a4299
:10247c000ed9474b04330224022210998a4200d908
:10248c00d0e2640002339a1e1288002af6d1c9e207
:10249c000124c7e23f4b069a9a420dd93e4b0433b6
:1024ac00022404220f998a429bd8640002339a1e9c
:1024bc001288002af7d194e7012492e747003f18cd
:1024cc0001377f08033701239a4693e70e9b0c9341
:1024dc0001230793059930000ef068fbc7190b9e7a
:1024ec002301049aad1a5b19069a9a4200d284e22f
:1024fc00079b9819101a059b7b43c01a21000ef0fc
:10250c0055fb5346032b13d0022b49d1234b984236
:10251c001ed9039b002b00d07de26400402ca2d975
:10252c000d9b002b00d079e2802c0fd8039451e73f
:10253c001a4b984234d8039b002b00d05fe2012c3d
:10254c0002d96308039345e70e2039e20e2037e2e7
:10255c000d4b984200d9bee0039b002b00d050e2fb
:10256c0063000393802b00d834e70e2028e2c0468a
:10257c006445002098450020ff7f0000ff0100000b
:10258c0055aaffffff010100f50f0000ffff01003e
:10259c004c690100ff0f00003c690100f5ff0000d1
:1025ac0008964646119b984605005346012b00d0d1
:1025bc00afe0e24b984200d925e280229200002144
:1025cc00009814f00ff90b22dd49009814f000f973
:1025dc000023009ad372023313735473079b9373c3
:1025ec009bb21b0ad37343461374009a5674b6b24b
:1025fc00360a9674d34b0699994200d9a8e0d17447
:10260c008bb21b0a1375019b5b0a9846129b069aa8
:10261c00944663441e00f82300994b75b93b0b7626
:10262c0000234b76ff228a76cb7608001c30049967
:10263c0014f06ef95346032b00d18fe03100009d4e
:10264c002800273014f064f9af75bbb21b0aeb7588
:10265c0024238022ea540233573aea54163aba49f0
:10266c0028002b3014f0b4f8ff235b005522ea54f9
:10267c00b64b5532ea54ff3bff3b049a29000298b3
:10268c0012f0aefb002800d0bfe1019b5a0a5202a7
:10269c000021009814f0a6f8059b002b00d1e7e16f
:1026ac005346013b5a1e93415b421b06a84a944673
:1026bc00634404930023019303974746d846a346eb
:1026cc000c9c5346032b00d1c9e00499009814f0dc
:1026dc001ff9039de7e008964646119b98460500b6
:1026ec00802292000021009814f07cf80b2294496f
:1026fc00009814f06df80023009ad3720233137310
:10270c005473079b93739bb21b0ad3734346137486
:10271c006be7802292000021009814f063f80b22e2
:10272c008749009814f054f80023009ad3720233ae
:10273c0013735473079b93739bb21b0ad373434657
:10274c0013745346033b5a1e93415b421e404ce7a5
:10275c0000982030069914f0dbf854e73100009e05
:10276c003000433014f0d4f830002430390014f029
:10277c00cff830002c30022114f0caf8302301229b
:10278c00f25400233032b35401320621b1540132d9
:10279c00b35440334d32f2540233573af254163a92
:1027ac006c493000473014f013f8ff235b005522be
:1027bc00f254664b5532f254ff3bff3b049a310006
:1027cc00029812f00dfb03000120002b00d0f7e063
:1027dc00049b9a1d0123009e3100029812f000fb0d
:1027ec00802292000021300013f0fcff5a49300087
:1027fc0014f08ef83000e530ff30584914f088f8aa
:10280c00691e3500e935ff35280014f081f83000d9
:10281c00ed30ff30022114f07bf8ff235b005522d2
:10282c003500f254494b5532f254049bda1d012306
:10283c003100029e300012f0d3fa01230e9a2900c7
:10284c00300012f0cdfa019b5a0a520200212800e6
:10285c0013f0c8ff059b002b00d021e733e00821c3
:10286c004942009d280014f053f801212b1d4942c8
:10287c00180014f04df828000830394914f048f8c5
:10288c0027e7330022000099029812f0a9fa0028d9
:10289c0000d0bce0802292000021009813f0a2ff2f
:1028ac00a419ad1b04d02e00bd42ead93e00e8e7c6
:1028bc00019b01330193059a9a4200d901e70c94cc
:1028cc005c46c346b8465346032b02d10c9e474682
:1028dc000fe0089c0c9e47460be02b003200009941
:1028ec00029812f07dfa002800d092e07619641b51
:1028fc0004d02500bc42f0d93d00eee75346032b33
:10290c0009d0104b0634169a9a4205d85346022b1e
:10291c0011d0053c00e00c244b46002b22d15b4629
:10292c001b073dd500221100029810f067ff431ed3
:10293c009841c0b244e00424eee7c046f50f000015
:10294c0034490100ffff000054490100ff01000061
:10295c00f8ffff004049010052526141727241611f
:10296c00ffffff0f01230022009d2900029e300073
:10297c0012f0c0fd03000120002b21d14b46013b7e
:10298c001b01ac466344c333ff331c7003000022ad
:10299c002900300012f024fa0028c3d001200fe0e7
:1029ac00169b149300231593009b220014a90298e4
:1029bc0007f0b6fd0028b5d002e00b2000e00320a4
:1029cc0019b03cbc90469946a246ab46f0bd0a20d5
:1029dc00f6e71120f4e71120f2e70120f0e70e20d2
:1029ec00eee70e20ece70e20eae70120e8e70e20e8
:1029fc00e6e71320e4e70e20e2e70e20e0e70e20e6
:102a0c00dee70e20dce70e20dae70120d8e7012014
:102a1c00d6e70120d4e70d9b002b27d0039b1c1e6f
:102a2c0000d122e5210006980ef0c0f88700174b64
:102a3c009c4667447f0a164b9c466044154b984253
:102a4c00d9d8049a2032059d7d43ad18089b5b199b
:102a5c0009990b405b1b20218c469c4461460791d5
:102a6c00d3180c93002603239a4639e50e20a7e7ca
:102a7c00089c0c9e47463ce700231793064d17aa6b
:102a8c000321029810f0bafefff70cfc07020000bd
:0c2a9c000a00fffffffffe0f5c69010055
:020000040000fa
:102aa800f0b5c14ca5440e9304000023080006921b
:102ab8000793302855d02e287bd1e36be26c9342e4
:102ac8005cd25a1ce263187800220023009201931a
:102ad800302857d00123089300230022002715002f
:102ae8001e001093049303970300303b092b66d90b
:102af8002e2866d0089b002b01d100950196079bd4
:102b0800002b00d1c6e320230343652b01d000f03e
:102b1800dafb9799200009f02ff900280fd18023bc
:102b28001b0699420bd1979b002b00d1c1e3e36ca4
:102b380000200021002b02d0e36b013be363009be4
:102b4800019c1b184c4100930194109c002c00d050
:102b580088e0969813f010fb0022002308f0daf9b9
:102b6800ade3e36be26c934204d25a1ce26318783b
:102b780001239de720000ff0b1fef9e720000ff0d8
:102b8800adfea1e701225242d3170098019980189f
:102b98005941e36be26c00900191934205d25a1cb3
:102ba800e26318780123079392e720000ff096fe5e
:102bb800f8e7002300220893009201938ce72e285f
:102bc8000ed1089b002b4bd1009501960133089339
:102bd800e36be26c93423fd25a1ce263187883e7b6
:102be8007c2f22dc29003200012500264919724178
:102bf8000d001600302800d00491039a002a05d051
:102c080010a9ba0052580a214a43d318ba0010a989
:102c18005350039b0133039301230793039b092b11
:102c2800d6d1002301370393d2e72a0033000125c8
:102c380000265219734115001e003028c8d0f8220a
:102c480010ab52009b580493012304990b4310a91d
:102c58008b50564b0493bbe720000ff03ffe43e731
:102c68002e204ce7009a95421bd1019a964218d122
:102c7800002e16dc01d1092d13d8069b1e2b03dc70
:102c88002300069ad3400cd1969813f075fa0600e3
:102c980020000f0013f062fa02000b003000390028
:102ca8005ce70e9b0e9adb0f9b185b1001995b4249
:102cb800da17914203dc11d1009a9a420ed92222e6
:102cc8003b4b96981a6013f057fa0122394b52423f
:102cd80008f020f90122374b52423fe70e9b019939
:102ce8006a3bda178a4203dc11d1009a93420ed963
:102cf80022222f4b96981a6013f03efa8023002266
:102d08005b0308f007f9802300225b0326e7039b97
:102d18000a21002b20d1049b082b71dc009a9342d6
:102d28006edc112a6cdc092a1bd1109813f016faf4
:102d38000d000400969813f01ffa02000b00200003
:102d480029000be7ba0010abd35810a807934b43e0
:102d58001350039b01330393039b082bf2dd0137c8
:102d6800d9e7009b082b29dc109813f0f7f9040029
:102d780096980d0013f000fa02000b0020002900bd
:102d880008f0c8f80823009a04009b1a0a4a9b0016
:102d980098580d0013f0f0f902000b0020002900ec
:102da8000bf0c8fd8be2c046bcfdffff5c040000d1
:102db8008c450020ffffef7f90520100009b093bec
:102dc8009a009b1a069a9b181e2b02dc109ada406e
:102dd80016d1109813f0c2f9040096980d0013f05c
:102de800cbf902000b002000290008f093f8009ba3
:102df800934a0a3b9b0004000d0098589be71f006c
:102e08007b1e9a0010a95258002af8d00921009870
:102e18000cf074ff0e1e1bd0009b002b00da093645
:102e2800082300249b1b864a9b009b5810ad0893df
:102e380004940394039bbb420dd1002c03d0bb0028
:102e480010aa9c500137009b9e1b09360096049ed1
:102e58000023039386e0286808990df0e5fe03191e
:102e68000f912b600899774807930cf0fdfe0f9c93
:102e7800039b049a444393420ad1079b002b07d132
:102e8800039b5a1c7f231a40009b0492093b009322
:102e9800039b043501330393cce7039b7a1e1d3b48
:102ea80003937f231a40002304920793049b10aadc
:102eb8009b009b580022d9085b070a93079b0b913c
:102ec8000c930d920a9c0b9d0c9a0d9ba4185d41c6
:102ed800002d02d15b4b9c4221d95a4a0023200085
:102ee800290010f0e5ff574a079000232000290029
:102ef80010f0deff049b10a99b005a507f23791e17
:102f08000b4004998b420dd1b1426fd0002a00d1f9
:102f18000f007f23049a013a1a400492c6e7220060
:102f28000795e7e7049ab242f3d1079a002a19d025
:102f38007f21009a013e093200920e40b7420dd11e
:102f48001f005a1e0a40920010a8105899000490b9
:102f580010a809580498014310a811500799b30004
:102f680010aa9950009b112b97dd122b05d1b300a5
:102f780010a9354a5b5893428fd90125be4213d018
:102f880010aab3009b58304a93420dd92f4a934256
:102f98000dd17f22731c13409f4205d09b0010a9be
:102fa8002b4a5b58934202d8009b122b52d0009bad
:102fb8002a001b2b00dd0922039b00219b18039389
:102fc8002b009340013b07931e4b1341089333009a
:102fd800bb420dd10029d1d07f207a1c0240b242d9
:102fe80023d0bf0010abd9511700c7e733009ce7c7
:102ff80098008446644610a820580490d040401891
:1030080010a96050049c07992140089c6143b34271
:1030180007d1002805d17f2600985c1c0938264076
:1030280000907f2001330340d2e77b1e03409b00c2
:1030380010aad25810a904922a43ca509ee7c04643
:103048009052010000ca9a3b5e7089005f70890047
:10305800ff092f0fbe4207d17f27721c174000229d
:103068007b1e9b0010a9ca50b30010aad05813f0b9
:1030780075f80022002307f095f87f23721c1a4088
:103088000092ba4206d1002201371f407b1e9b00e6
:1030980010ace25000228d4b07f03cff04000d00fd
:1030a800009b10aa9b00985813f058f822002b0098
:1030b80007f078f804000d00969813f05df82200e8
:1030c8002b000490059107f025ff039b0e9a3533da
:1030d8000f939b1a069a089009910a93934200db72
:1030e800bbe0002b00dabce0009301230793009bb0
:1030f800342b00ddbae06922009b0020d21a744903
:103108000ff0fcfe089a099b13f0c4fc3522009bc3
:103118000c900d91d21a00206d490ff0effe0200bd
:103128000b000898099913f0b9fe02000b0004007f
:103138000d000898099913f0bdfc02000b000c98cb
:103148000d9907f02ff8089009917f21b21c0a40c9
:10315800ba4233d0920010abd3585e4a934200d99a
:103168008be0002b03d1f31c0b40bb420dd0002297
:10317800594b0498059907f0cdfe02000b0020007a
:10318800290007f00ff804000d003523009a9b1a58
:10319800012b13dd00224e4b2000290013f07efe88
:1031a8000022002311f024ff002807d02000290066
:1031b8000022474b06f0f6ff04000d000898099915
:1031c8000e9b069a5b429b1a049322002b0006f082
:1031d800e9ff0c9a0d9b13f06dfc049b06005a1e28
:1031e8000f9b0f005b005b089a4230dc13f052fe25
:1031f80000223a4b10f058fc002814d0079b002bf3
:1032080006d0009a0a9b9b1a1a00531e9a410792ed
:10321800334b30003900002207f07cfe06000f0017
:10322800039b01330393049a039b03323433934281
:103238000ada079b002b0ad000220023200029006d
:1032480011f0d6fe002802d12222264b1a60039ada
:103258003000390013f01afe31e0069b009300237a
:1032680044e7012307930023009344e70024002345
:1032780025000c930d941c0067e71b4a934202d06b
:1032880000221a4b75e7f31c0b400022bb42f8d111
:10329800134b6ee7002809dbe36c002b02d0e36bcd
:1032a800013be363079b002b00d04ee416220d4b35
:1032b8001a600021200012f0a1ff002000219123b4
:1032c8009b009d44f0bd0028e6da3ee465cdcd4183
:1032d8000000f03fff64cd1d0000d03f00004043d8
:1032e8000000e03f8c4500200065cd1d0000e83f50
:020000040000fa
:1032f8003e000000446174616c6f6720536572760c
:10330800696365206e6f74207265616479210d0aa6
:103318004170706c69636174696f6e2077696c6c59
:103328002072756e20776974686f75742073746f76
:1033380072616765206361706162696c697469654f
:10334800730d0a00252d3130730d0a252d313058a3
:103358000d0a0000436f756c64206e6f74207265ef
:103368006164207265676973746572202530326400
:103378000d0a0000252d313073252d313073252d90
:10338800313073252d3130730d0a0000252d313071
:1033980058252d313058252d313058252d313058ac
:1033a8000d0a0000252d313073252d313073252d60
:1033b8003130730d0a000000252d313058252d318c
:1033c8003058252d3130580d0a000000252d313098
:1033d80073252d3130730d0a00000000252d313082
:1033e80058252d3130580d0a00000000252d3130a8
:1033f800730d0a00252d3130580d0a0025730d0a6a
:1034080025580d0a000000004d6574657220494476
:103418002069733a0d0a000025730d0a00000000a8
:1034280050726573656e742052544320697328790d
:10343800792d6d6d2d64642068683a6d6d3a7373eb
:10344800293a0d0a00000000253032752d2530324a
:10345800752d2530327520253032753a2530327574
:103468003a253032750d0a00544f55207461626c4c
:10347800652069733a0d0a00544f5525643d25307f
:1034880032643a253032642054256420000000005c
:103498000d0a00004c617374202564204d6f6e7412
:1034a8006820456e657267792069733a0d0a0000d5
:1034b80054543d252e32666b57682054313d252ed5
:1034c80032666b57682054323d252e32666b57683a
:1034d8002054333d252e32666b57682054343d25e1
:1034e8002e32666b57680d0a000000004c61737439
:1034f8002025642054696d657320556120536167e8
:103508002069733a0d0a00004c6173742025642009
:1035180054696d6573205562205361672069733a59
:103528000d0a00004c6173742025642054696d6590
:1035380073205563205361672069733a0d0a0000b0
:103548004c6173742025642054696d657320506143
:1035580020726576657273652069733a0d0a0000fa
:103568004c6173742025642054696d657320506222
:1035780020726576657273652069733a0d0a0000da
:103588004c6173742025642054696d657320506301
:1035980020726576657273652069733a0d0a0000ba
:1035a800546f74616c204e756d3d256420000000d9
:1035b80073746172742074696d6520697320696e13
:1035c80076616c6964200000737461727420746998
:1035d8006d6520697320253032642d2530326420d2
:1035e800253032643a25303264200000656e64204c
:1035f80074696d6520697320696e76616c69640d04
:103608000a000000656e642074696d652069732086
:10361800253032642d2530326420253032643a2535
:103628003032640d0a0000004d6178696d756d20b7
:103638006e756d626572206f66207265706f727448
:103648006564206576656e74732065786365656466
:1036580065643a2031300d0a000000004c61737433
:10366800202564204d6f6e7468204d617844656d27
:10367800616e642069733a0d0a00000054543d25b8
:103688002e33666b572025642d256420253032643f
:103698003a253032642054313d252e33666b57204d
:1036a80025642d256420253032643a253032642083
:1036b80054323d252e33666b572025642d25642012
:1036c800253032643a253032642054333d252e3378
:1036d800666b572025642d256420253032643a25f1
:1036e8003032642054343d252e33666b57202564d0
:1036f8002d256420253032643a253032640d0a00c5
:1037080050726573656e7420766f6c74616765209e
:103718006973203a0d0a55613d2b252e33665620d4
:1037280055623d2b252e3366562055633d2b252e9d
:103738003366560d0a00000050726573656e74207a
:1037480063757272656e74206973203a0d0a496157
:103758003d2b252e3466412049623d2b252e3466ab
:10376800412049633d2b252e34664120496e3d2575
:103778002b2e3466410d0a0050726573656e7420f5
:1037880061637469766520706f776572206973204c
:103798003a0d0a50743d2563252e33665720506133
:1037a8003d2563252e3366572050623d2563252e1f
:1037b8003366572050633d2563252e3366570d0a1f
:1037c8000000000050726573656e742046756e6463
:1037d800616d656e74616c206163746976652070d3
:1037e8006f776572206973203a0d0a4650743d253b
:1037f80063252e336657204650613d2563252e33b9
:103808006657204650623d2563252e33665720466d
:1038180050633d2563252e3366570d0a00000000ce
:1038280050726573656e742072656163746976653c
:1038380020706f776572206973203a0d0a51743dc4
:103848002563252e3366572051613d2563252e3388
:1038580066572051623d2563252e336657205163f4
:103868003d2563252e3366570d0a00005072657397
:10387800656e74206170706172656e7420706f7708
:103888006572206973203a0d0a53743d2563252e0d
:10389800336656412053613d2563252e33665641d4
:1038a8002053623d2563252e336656412053633de0
:1038b8002563252e336656410d0a00005072657344
:1038c800656e74206672657175656e6379206973bb
:1038d800203a200d0a467265713d252e3266487ad7
:1038e8000d0a000050726573656e742074656d7002
:1038f80065726174757265206973203a20256325a5
:103908002e31660d0a000000566f6c7461676558a9
:103918002076732043757272656e745820616e67e5
:103928006c65206973203a200d0a416e676c655feb
:1039380056412d49413d2563252e336620416e674a
:103948006c655f56422d49423d2563252e3366201e
:10395800416e676c655f56432d49433d2563252eaf
:1039680033660d0a00000000566f6c7461676520ad
:10397800616e642063757272656e7420616e676c27
:1039880065206973203a200d0a416e676c655f56a1
:10399800412d56413d2563252e336620416e676cc7
:1039a800655f56422d56413d2563252e33662041dd
:1039b8006e676c655f56432d56413d2563252e3352
:1039c800660d0a00566f6c7461676520616e64202d
:1039d80063757272656e7420616e676c65206973b9
:1039e800203a200d0a5046743d2563252e33662063
:1039f8005046613d2563252e3366205046623d259d
:103a080063252e3366205046633d2563252e336695
:043a18000d0a000093
:020000040000fa
:103a1c00f0b595b004000492022900d92ee1ba4bfe
:103a2c005a1c5218d27f490052b2591812922422b1
:103a3c008b5e0a93e36be26c93422ed25a1ce263c8
:103a4c001d78202df6d02b00093b042bf2d9012236
:103a5c002b2d27d0069202232d2d24d00027202396
:103a6c00aa4a2b43d25d93422cd0032f03d043d9c7
:103a7c00049b002b42d0e26c002a02d0e36b013b8a
:103a8c00e363049b002b2ad0032f28d0002a02d0fa
:103a9c00e36b013be363013ff6e720000ef01cfff4
:103aac000500cee70023d31a0693e26ce36b934236
:103abc0003d25a1ce2631d78d0e720000ef00cfff5
:103acc000500cbe77e1c072f09d0e36be26c934219
:103adc000dd25a1ce2631d783700082ebfd1069b0d
:103aec000020013300d1ace2894915b0f0bd2000b3
:103afc000ef0f2fe0500efe7002f16d0e36c002b62
:103b0c0000d1b4e0e36b013be363b0e07e1c022f19
:103b1c0000d1a3e2e36be26c93426ad25a1ce263db
:103b2c001d783700032e00d198e22023794a2b43cd
:103b3c00d25d9342ead0002fe0d1129b0b93302d33
:103b4c0000d073e2e36be26c934200d3a1e05a1c09
:103b5c00e26318782023e26c0343782b00d060e2f8
:103b6c00e36b934200d398e05a1ce263187800236d
:103b7c000f93302800d194e02e2800d19ee0002233
:103b8c000023089209930e93002300221393624b97
:103b9c000025109211930023002602920393030038
:103bac00303b0c93092b00d8c0e020230343613b2e
:103bbc00052b00d8bae02e2800d1b9e00f9b002bc2
:103bcc0000d020e1e36c002b00d13ce2049ae36bc3
:103bdc00002a00d110e10e9a002a00d00ae1023b23
:103bec00e363069812f0c6fa0022002307f090f95e
:103bfc007be720000ef070fe050092e75a1ce26392
:103c0c0018782838431e9841c0b20125002809d0e5
:103c1c00e36c002b02d10020404966e7e36b013bcb
:103c2c00e363f8e7e36be26c934211d25a1ce26354
:103c3c0018780300303b092b08d9202302009a4343
:103c4c001300413b192b01d95f2805d10135e9e758
:103c5c0020000ef041feece72928dcd0e26c002ab3
:103c6c0002d0e36b013be363049b002b0ed11622c5
:103c7c002b4b1a600021200012f0befa002000210c
:103c8c0033e7002a02d0e36b013be363013df8d23a
:103c9c00c1e720000ef020fe5ce720000ef01cfeb9
:103cac0065e7e36be26c934204d25a1ce26318782a
:103cbc0001235de720000ef00ffef9e7e36be26ce9
:103ccc0093420dd25a1ce26318780022002301257e
:103cdc006d42ee1708920993302805d0012352e764
:103cec0020000ef0f9fdf0e7e36be26c934219d281
:103cfc005a1ce2631878089a099b5219734108926e
:103d0c00099301230f93e7e7905201002e6b0100fa
:103d1c000000f07f376b01000000f03f0000f87fdf
:103d2c008c45002020000ef0d7fde4e72e2813d19f
:103d3c000e9b002b00d08be10c950d9601330e934e
:103d4c00e36be26c934251d25a1ce26318780895eb
:103d5c0009960c9d0d9e22e7392803dd2023034391
:103d6c00573b0c93002e2adc01d1072d0dd80c9b50
:103d7c003f01df190122002352197341089d099e4e
:103d8c000c920d9301230f93dae70d2d17d8109891
:103d9c0011990022b64b07f0bbf8109011910c98ba
:103dac0012f0e8f9109a119b07f0b2f802000b0020
:103dbc000298039906f0f4f902900391dae70c9b50
:103dcc00002bd7d0139b002bd4d110981199002223
:103ddc00a84b07f09df80b0002000298039906f01f
:103dec00dff90123029003911393c3e720000ef037
:103dfc0073fdace7033bf3e6013be36300212000da
:103e0c0012f0faf9ede60e9b002b01d108950996fc
:103e1c000122002302e0ad185e413f01002e02dcbe
:103e2c00f9d1072df7d92026304370280dd10499ec
:103e3c00200007f09fff00280fd180231b0699421a
:103e4c000bd1049b002b00d114e7e36c002b02d0a8
:103e5c00e36b013be36300200021002f00d1c0e69f
:103e6c00089a099b08246442e51712196b41140047
:103e7c00960f9b003343a20012184b4104920593fa
:103e8c000a9b05995b42da17914203dc11d1049a23
:103e9c009a420ed92222784b06981a6012f06af9cf
:103eac000122764b524207f033f80122734b5242f7
:103ebc009ce60a9b05996a3bda178a4203dc33d1ec
:103ecc00049a934230d922226b4b06981a6012f056
:103edc0051f9802300225b0307f01af8802300229b
:103eec005b0383e6002202980399624b0ff0dafd24
:103efc007f00002800d189e0029803990022604bd2
:103f0c0012f0d6fd013702000b000298039906f05f
:103f1c0047f901225242d317029003910498059954
:103f2c008018594104900591002fdbda049805990b
:103f3c00129b2022dc17002312184b410a98c11740
:103f4c00121a8b419c4203dc08d11299914205d97b
:103f5c00049b0a9a9b1a20330b935cd40b9b342b37
:103f6c005cdc54220b9b0020d21a45490ef0c4ff96
:103f7c00040006980d0012f0fdf80b000200290059
:103f8c00200012f085fd0b9b04000d001f2b0edc96
:103f9c00029803990022002311f028f8002806d17a
:103fac00fb0704d4002200230292039301370698e6
:103fbc0012f0e0f8029a039b0690079106f0a8ff16
:103fcc0002900391380012f0c7f8069a079b06f08e
:103fdc009fff22002b0006f0e3f8029a039b06f0e9
:103fec00dff822002b0012f063fd002200230400f6
:103ffc000d0010f0fbff002802d022221e4b1a608d
:10400c00049a2000290012f03fff6ee5029a039bf0
:10401c00100019007be700230b93a2e70024002576
:10402c00c5e7002a02d0e36b013be363049b129ac1
:10403c000193069b2900009320000a9bfef72efd9e
:10404c0053e5104951e5049b002b00d0c9e5d5e69a
:10405c000f9b2e20002b00d0dae6b3e5e36be26c6d
:10406c00934200d2cae520000ef036fcc9e5c046ea
:10407c000000b03f0000e03f8c450020ffffef7fc9
:08408c000000f03f0000f0ff0e
:020000040000fa
:1040940070b582b0c14adf23d05cc0b2092800d910
:1040a400a9e28300be4ad3589f46bc4adf230121bc
:1040b400d15402b070bdb94acc23d35adb0710d413
:1040c400b64bdf220721995401320539995408323d
:1040d4006231995068315a5a012082435a52002061
:1040e400e7e712f065fd03280dd8ac4b1868ad4a1c
:1040f40000210ff0cbfb0028e2d0a84adf230921de
:10410400d1540020d5e712f047fda74910f0f6fb83
:10411400ebe7a24acc23d35a1b0716d49f4b8a221f
:104124009a5a92b29a8196229a5a92b21a838c22fd
:104134009a5a92b2da81df2203219954c9315a5a28
:10414400082082435a520020b3e712f031fd0328bd
:1041540023d8924d8a23ea5a92b2022128680ff09a
:1041640095fb04009623ea5a92b2032128680ff0c3
:104174008dfb631e9c4104438c23ea5a92b2286847
:1041840004210ff083fb631e9c410443c6d0834a81
:10419400df230921d15400208be712f0fdfc834971
:1041a40010f0acfbd5e77d4acc23d35a9b0605d44b
:1041b4007a4adf230521d15400207ae712f0f8fc73
:1041c400032871d8754d7a4a202128680ff05efbc8
:1041d4000400a223ea5a92b2212128680ff056fb68
:1041e400631e9c410443a423ea5a92b22221286804
:1041f4000ff04cfb631e9c410443a623ea5a92b27f
:10420400232128680ff042fb631e9c410443a8232a
:10421400ea5a92b2242128680ff038fb631e9c41ad
:104224000443aa23ea5a92b2252128680ff02efbf0
:10423400631e9c410443ac23ea5a92b226212868a7
:104244000ff024fb631e9c4104439823ea5a92b264
:10425400272128680ff01afb631e9c4104439a230c
:10426400ea5a92b2282128680ff010fb631e9c4181
:1042740004439c23ea5a92b2292128680ff006fbd2
:10428400631e9c4104438e23ea5a92b228682b2170
:104294000ff0fcfa631e9c4104430bd03f4adf231a
:1042a4000921d154002004e712f076fc414910f0b2
:1042b40025fb87e7394ba2229a5a92b21a87a42285
:1042c4009a5a92b21a875a87a6229a5a92b29a870f
:1042d400a8229a5a92b2da87aa229a5a92b2402112
:1042e4005a52ac229a5a92b202315a5298229a5a8b
:1042f40092b25a839a229a5a92b29a839c229a5ad6
:1043040092b2da838e229a5a92b21a82df223e390c
:1043140099540020cde612f04bfc03281fd86b46bd
:104324009e1d1e4d32002c2128680ef097ff0400bc
:1043340032882c2128680ff0a9fa631e9c4104439b
:1043440028681d4a20210ff0a1fa631e9c410443f2
:104354000bd0124adf230921d1540020a9e612f020
:104364001bfc164910f0cafad9e76b46da880b4be6
:104374005a82df2205219954c7315a5a2020824398
:104384005a52002095e6054acc23d35a5b0617d42b
:10439400024adf230821d15400208ae6883c002009
:1043a400f05501009a78000060fe000074fe0000e1
:1043b4007856000090fe000065870000a8fe00000b
:1043c40012f0f6fb032871d88c4d8d4a30212868f1
:1043d4000ff05cfa0400ae23ea5a92b23121286845
:1043e4000ff054fa631e9c410443b023ea5a92b27c
:1043f400322128680ff04afa631e9c410443b22319
:10440400ea5a92b2332128680ff040fa631e9c41a5
:104414000443b423ea5a92b2342128680ff036fade
:10442400631e9c410443b623ea5a92b2352128689c
:104434000ff02cfa631e9c410443b823ea5a92b24b
:10444400362128680ff022fa631e9c410443ba23e4
:10445400ea5a92b2372128680ff018fa631e9c4179
:104464000443bc23ea5a92b2382128680ff00efaaa
:10447400631e9c410443be23ea5a92b23921286840
:104484000ff004fa631e9c410443c023ea5a92b21b
:1044940028683a210ff0faf9631e9c4104430bd0bb
:1044a400564adf230921d154002002e612f074fb9e
:1044b400544910f023fa87e7504bae229a5a92b22d
:1044c4005a84b0229a5a92b29a84b2229a5a92b2d6
:1044d400da84b4229a5a92b21a85b6229a5a92b2bd
:1044e4005a85b8229a5a92b29a85ba229a5a92b2a4
:1044f400da85bc229a5a92b21a86be229a5a92b28b
:104504005a86c0229a5a92b29a86df220621995478
:104514000020cee512f04cfb03281fd86b469e1ded
:10452400364d32003b2128680ef098fe0400328894
:104534003b2128680ff0aaf9631e9c4104432868b4
:10454400314a30210ff0a2f9631e9c4104430bd081
:104554002a4adf230921d1540020aae512f01cfbca
:104564002a4910f0cbf9d9e76b46da88234b9a82b3
:10457400df2208219954c4315a5a402082435a52a6
:10458400002096e512f014fb03000020032b00d852
:104594008fe512f001fb1e4910f0b0f9002088e508
:1045a400164ae423d058431c05d011f0a3fe00287a
:1045b40006d100207de5174948680ef0cffbf8e7e7
:1045c4000e4be422012149429950043a9a5cd2b23a
:1045d400e0315a5400206ce512f0eafa12f0dcfae9
:1045e4000d4910f08bf9054acc23d15a01214942d7
:1045f400d15201205de500205be5c046883c0020e7
:1046040078560000b8fe000065870000d0fe000068
:0c461400e0fe00006c3d0020f0fe000005
:020000040000fa
:10462000f0b5c64600b58cb0d84b1a780c2a4fd8d6
:104630009300d74ad3589f4612f0f8fa072847d17b
:10464000d24b01221a7043e0d04ab5235b0000210f
:10465000d154032010f02cf8002803d1cb4b0222b8
:104660001a7035e0cb480323037000234370ca4c13
:10467000c4602c334381c94b4360ff2343720372f0
:104680000ff028f9a93cff3c0d23237020e0bf4a1e
:10469000b5235b00d35c002b1ed0bf480ff048fe53
:1046a000002800d05ce2bc4c20000af077ff20001c
:1046b0000ff03efe0028f7d0b74810f0f1f90021c6
:1046c000b74812f047fa10f075fdb04b03221a708c
:1046d0000cb004bc9046f0bdaf4c20000af05eff69
:1046e00020000ff025fe0028ddd0ab4810f0d8f9ef
:1046f0000021ab4812f02efae5e7a44ab5235b008f
:104700000021d15402200ff0d3ff002803d19f4b8a
:1047100004221a70dce79f480223037000234370d1
:10472000a04cc460103343819f4b4360ff2343720e
:1047300003720ff0cff8143c0d232370c8e7934d9c
:10474000b5246400285d0ef089fa2b5d002b03d0a0
:104750008e4b06221a70bbe710f016fdf8e78b4b64
:10476000b52252000021995401a94e329a580132c3
:104770004a70de2252009b58643b0b7006200ff0fb
:1047800097ff00280ad0894c20006830210010f0e3
:104790006df9413cff3c0d23237099e7834c2000c9
:1047a0006830210010f0b2fb413cff3c0523237030
:1047b0008ee7764bb52252000021995401a94e3262
:1047c0009a5801324a70de2252009b58643b0b70ab
:1047d00007200ff06dff00280ad0754c20008530af
:1047e000ff30210010f028f9243c0d2323706fe7df
:1047f0006f4c25008535ff352100280010f06efb39
:1048000028000ef033fe243c0823237060e7694a39
:104810002823d45c002c00d15ae71500166a082220
:104820003100654811f0daff013c2823ec541835bb
:10483000ae424bd008365f4b1e62574c20000ef044
:1048400015fe20000bf05efb2300a93bff3b42005e
:1048500012189a18147d013ce4b21c73b222520063
:10486000995801318846995022002832d2009a186e
:1048700000215868156856684019714110605160f0
:10488000b022520099589d68ac4661440800995086
:1048900008329d5c002d1cd13c4a6a23ff33d35c57
:1048a000002b00d114e714006a23ff330022e254e6
:1048b00020004130ff302032002111f099ff20000c
:1048c00024302822002111f093ff01e7394b1b62ad
:1048d000b3e72e4fb4235b000022fa5441460cf09c
:1048e0006bf9d6235b00fe58002e67d1743bf8505d
:1048f0002d2213329200254bd2180f23002002ca1a
:104900004018013bdbb2002bf9d196210cf054f991
:10491000621dd2001d4b9b185a680023904212d989
:104920001a4b0534e4001c196060dc2252009a58ce
:104930002272da2252009a586272d82252009b5890
:10494000a372e6722b00114a526a904249d90f4b6a
:104950005862dc2252009958913aff3a99548d32ac
:10496000ff3299588c3aff3a99548832ff3299585d
:10497000873aff3a995401329e54002e4ed00c498a
:1049800008008530ff3010f0a9fa2ee0802d0020bd
:10499000d44a0100a8440020282f002031600100e3
:1049a00061230100942d00204d600100c02e0020e5
:1049b000a42d002044430020842d0020731edbb270
:1049c0001900123189006a4a521850602d222c2b8e
:1049d0008fd80f3a1d2e8cdc00220e2e89dd0f326f
:1049e00087e7002e19d0002bc9d1614b0022b021de
:1049f00049005a5004315a50ad32ff329b58002bb7
:104a000013d05b4a80239b00d35c002b13d0013b67
:104a10001100802292008b543ee71d00f0220021fd
:104a2000544811f0e5fe2b00dde7534908006830db
:104a300010f06cfae5e74e4a80239b003c21d154ec
:104a400010f0b8fb28e74a4bb522520000219954d8
:104a50004a4a0131995401a9763a9a5801324a706a
:104a6000c82252009b58643b0b7007200ff020feb9
:104a7000002803d13e4b0a221a7029e63c4cb82389
:104a80005b00e15820007d30ff300ff0d5ff0d2393
:104a900023701de6364cb5235b00e15c20007d30c1
:104aa000ff300233e35898470823237010e601a82b
:104ab0000ef0dcfc2e4ac6235b00d358059a9a42be
:104ac00006d12b49c82252008a580699914218d023
:104ad000274ab5214900002050542949013050543b
:104ae000013369464b70c8235b00d358643b0b709d
:104af00005300ff0ddfd002819d11d4b0c221a7076
:104b0000e6e51b49bc235b00c8580b004133ff336b
:104b1000020031cb31c231cb31c211cb11c2b5232e
:104b20005b000122ca545f3bff3b0b70d0e5104c89
:104b3000bc235b00e15820007d30ff300ff096ff72
:104b40000d232370c4e50a4cb5235b00e15c200013
:104b50007d30ff300a33e358984708232370b7e5c8
:104b600008480ff09dff0021074811f0f3fface566
:104b7000802d0020cc2d0020c02e0020020200003d
:0c4b800001020000282f0020612301002a
:020000040000fa
:104b8c00f0b59bb013930b6815900a938b680d913d
:104b9c000b930b694d681893cb68029313680893b9
:104bac005368089806930022002306990ff0dcf94d
:104bbc0000280dd10a9b5b073bd408200a9b0340bd
:104bcc0009930b9b0393099b002b0fd0202306e02a
:104bdc00802212069446069b634406932d23029a68
:104bec0013700b9b013b039301230993069b0899bc
:104bfc005b005b08924a00291dd193421bd102999c
:104c0c00139b8c46099a413b624410008d49192b29
:104c1c0000d98d4912f02ef8029811f04bfc0a9b2a
:104c2c000200009302990b9b15980cf051fc1bb0e1
:104c3c00f0bd2b23d3e7934203d80ed1089b002b56
:104c4c000bd00299139b8c46099a413b624410008d
:104c5c007e49192bded97e49dce700220023089817
:104c6c00069910f0c3f900267a4f002400283ed193
:104c7c00040002e00134049e059f0022764b3000b4
:104c8c00390006f045f9089a069b049005910ff03f
:104c9c004cf90028eed00023049320e06f4b9c428b
:104cac0014da049b002b11d100226d4b0898069945
:104cbc0006f02ef96a4b089006913000390000225c
:104ccc0006f026f9012306000f000493300039008a
:104cdc000022614b09f02cfe06000f00013c320053
:104cec003b00089806990ff03ff90028d6d113988d
:104cfc0011f009ffc3b20c93002d00da94e1049378
:104d0c00672b00d0b2e0002d00d189e1231d02db1e
:104d1c00ac4200daa6e06523b6e0002200230e9236
:104d2c000f9303e106960797049b2600652b00d092
:104d3c001ae1002618e1129b002b0bd1002e09da88
:104d4c00029a14992e335354039b0137013b03935e
:104d5c0001231293ea193b009446302102e0029a97
:104d6c00d15401339c45fad1039aeb19551b029a85
:104d7c0030305f1cd0546b1e0393002521e00d9b3b
:104d8c0014971b691093053bbb4200d8f5e0069abb
:104d9c00079b08980e9909f0cbfd0af0adfc10901a
:104dac0011910ff0dffe092800dd092010230a9a6b
:104dbc0013400343bfd10c9b672bbcd1002ec9da27
:104dcc0001358020000684460e99089a61440b0038
:104ddc001098119900920193069a079b11f060feae
:104dec0080231b06cb1808900e9306980799002277
:104dfc00194b09f09dfd013e06900791b9e00a9b05
:104e0c00db0600d4bde02e23029ad3550137b8e05f
:104e1c0020000a210af070ff029b3031013d5955e8
:104e2c0020000a210af01eff039b0400013b0393a0
:104e3c00b7e0029b03991a5c5b181a540138e0e046
:104e4c000000f07f7c6a0100806a0100846a010026
:104e5c00886a01000000f03f00002440d4fefffff0
:104e6c0000005043002c0eda66230493049b01359a
:104e7c00662b0ad1002c02da002600246d4f0c9b05
:104e8c00672b00d02d1966230493089b0e960f9761
:104e9c001293069b1093002314930e9a0f9b129857
:104eac00109909f045fd0af027fc169017910ff0a8
:104ebc0059fe19908020000684461099129a61447c
:104ecc000b0016981799009201930e9a0f9b11f0f4
:104edc00e7fd80231b06cb18129010930e980f99a8
:104eec00554b002209f024fd149b0e900f910133b9
:104efc0014939d42d1d10022504b06f009f80e902c
:104f0c000f9102000b00129810990ff02df8002849
:104f1c0000d002e70e9a0f9b1298109910f066f8c9
:104f2c00002803d0199bdb0700d4f6e60e9a0f9be2
:104f3c000898069905f034f9002208900e913e4b22
:104f4c003000390005f0e4ff089a0e9b069007919b
:104f5c000ef086fd002800d1e4e6049b0134662b9c
:104f6c0000d0e1e626000135731b0025099f16933e
:104f7c001295169b9e4200d001e7129b002b00d18c
:104f8c003de70026029bdb1906931e70049b652be4
:104f9c002ad1189b5d1e029b5e55b44201da644215
:104fac000136002c00d033e7189beb1a0333002b8f
:104fbc0000dd2de76a1e2d23002e00d1023b029945
:104fcc00023d8b54139b413b192b01d84523049371
:104fdc00029b5919049b0b70039b023b0393af423a
:104fec0002da069811f046fe03230a9a1340022bac
:104ffc0000d011e6039b002b00dc0de6029811f0ab
:10500c0059fa099b834200dc13e7029a302194463b
:10501c0063441800039a11f0e5fb00230b93fbe5a6
:10502c00012573e6062571e60c9b672bfad00493d9
:10503c0006251be70000f03f000024400000144050
:020000040000fa
:10504c00f0b5de4657464e464546e0b5bdb0b74bcb
:10505c001b68002b15d1b64b1c68002c05d0b54b2a
:10506c004822944663449a46abe0b3494a780131ee
:10507c00b2480cf0efff00280bd0ad4b1c68002c95
:10508c00edd101203db03cbc90469946a246ab46c2
:10509c00f0bdab4b1b78002befd111f085fd012837
:1050ac0003d8a74b01221a70e7e711f071fda5494f
:1050bc000cf04cfaf5e7002363759e4f2600123670
:1050cc00a846554603223968300010f084f90028b0
:1050dc0000d1ece10c37af42f4d1aa460023238275
:1050ec006be00d283cd00a283ad0082800d178e192
:1050fc007f2800d1a7e11b2800d1c3e1e16920235f
:10510c009846a0444346cb1a4f2b00ddc3e1a3695c
:10511c00cb1a00d1bbe14a1ed84309181078507045
:10512c00013a9142fad1e269511ce16100215170be
:10513c00a269013284492000723011f02efa7123d9
:10514c00e75433682100713128009847a3691f7018
:10515c00a3690133a361e26993422ed9e3612ce088
:10516c0020239b46a344e3695b4556d0774928002e
:10517c00336898470023e26913705b46a361e361cf
:10518c002822002108a811f02dfb676805975122f1
:10519c00594612a811f074fd0a2208a912a80bf0a6
:1051ac00edfb049000283dd123681b68684938004a
:1051bc0098473368674928009847a468002c00d1a9
:1051cc005fe7266865682800f36898470028f4d0e4
:1051dc0028003369984707001021635e002b00d12b
:1051ec007fe7e218907401331db22582032d00d1a4
:1051fc0061e7022de1dde668b3689d42ddd13168df
:10520c002000123011f09df9002803d17368310091
:10521c002000984700232382cfe733684e492800ab
:10522c009847cae7049b002b05dc23681b684b4995
:10523c0005989847bde7cc23e3582200cc32576839
:10524c00bb423dd079682200cc3251600b60cc233c
:10525c00e35852685a60380008305122594611f010
:10526c000ffdcc23e358002b32d03b60cc23220023
:10527c00cc3252687a601760e2585760e750d423fa
:10528c000022e250089b0393354f3b002432944696
:10529c006344a0462c001d003968039811f051f9a5
:1052ac0000281dd00c37af42f6d1250044462d4bbb
:1052bc009846a14606955b460793b346464659e089
:1052cc000022cc2162502100cc314a601f00c2e781
:1052dc00cc33e7502300cc335f603f607f60cee778
:1052ec0025004446049b0a2b06dd23685b680a22d2
:1052fc001d49059898475ce77b6808aa04994046c5
:10530c00984756e74c465e46069d23685b680a2222
:10531c001549059898474ce74c465e46069d7b68b8
:10532c0008aa04994846984743e7c04658450020c8
:10533c0020450020b43401007c2d00209c66010027
:10534c009c450020cccc0000b4cd00002c07010003
:10535c00f0cc000090cd0000986b010060cd0000f7
:10536c00f45701003c3e002028cd00001836524b6b
:10537c009e422ed07468002cf8d03569002d13d0c5
:10538c005122079927a811f07bfc736900935123d4
:10539c0027aa49462000a84700281ed10a2208a99e
:1053ac0027a80bf0ebfa0490049b0a2baadc776875
:1053bc003468002cdad0089b0393002539680398d5
:1053cc0011f0bff80028a7d001350c37a542f5d154
:1053dc00cce74c465e46069d27e74c465e46069d4e
:1053ec00e7e6a16923002033994200d8e5e6e3699a
:1053fc0099421dd24a1e5b1a06d0581e09185078c5
:10540c00107001329142fad1a269013aa261e269ab
:10541c00013ae26100211170a26928492700713715
:10542c00380011f0baf83368390028009847c4e600
:10543c003368234928009847a369013ba361e369ba
:10544c00013be361b9e6e369a269934200d8b4e693
:10545c00511c5b1a05d0d018517811700132824260
:10546c00fad1e269013ae26100211170a269154991
:10547c0027007137380011f090f833683900280094
:10548c0098479ae61b23a3740123238295e6722383
:10549c000022e25453e60c492800336898474346ef
:1054ac00a361e361336809492800984785e6aa4659
:1054bc004546e7609fe6c046fc3e002094cd0000c8
:1054cc00a0cd0000a8cd0000bccd000090cd000008
:020000040000fa
:1054dc00f0b599b014930b68566809934b68139008
:1054ec000d938b68cf680c930b6931001193136883
:1054fc0000220893089800230ef036fd00280cd1ea
:10550c00099b5b0724d40820099b0c9d0340059341
:10551c000cd02023013d3b7006e080231b06f618bf
:10552c002d233b700c9b5d1e01230593089a730081
:10553c005b08002a0ed1ac4a93420bd1149b059afe
:10554c00413bb818a94caa49192b12d9210010e0db
:10555c002b23e6e7a44a934203d819d1089b002bce
:10556c0016d0149b059a413bb818a24ca249192b92
:10557c00ecd811f07ffb200010f09cff099b02007f
:10558c00009339000c9b13980bf0a2ff19b0f0bddf
:10559c00059b05995a1c30237b54149b413b0e935d
:1055ac000e995823192900d920330599bb5402317f
:1055bc00ab1e0591079300220023089831000ff0d1
:1055cc0015fd002800d165e100238c4c0693029355
:1055dc0003940d9b1093002b01da18231093029b5c
:1055ec00039c0a930b9434000023089d129328000b
:1055fc000a9a0b9b210009f09bf90af07df80a9a94
:10560c000b9b1690179105f083fc02000b002800f1
:10561c00210011f04dfa7a4b05000c000a980b99f9
:10562c00002205f075fc129b0a900b9101330f932d
:10563c000d9b002b07da00220023280021000ff01d
:10564c00d5fc002806d1109b129a934200dd27e16d
:10565c0001330f9300220a980b996a4b05f058fc02
:10566c000a900b9102000b00280021000ef07cfc2c
:10567c00002800d016e10a9a0b9b280021000ff09d
:10568c00b5fc002806d0169817990ff06bfac307d3
:10569c0000d407e10a9a0b9b0898310004f080fdb6
:1056ac00129149000a904908002803d14e4b9942a7
:1056bc0000d143e70025059c10950895119b260009
:1056cc00053ba34230d9029a039b0a98129909f020
:1056dc002ff90af011f8149015910ff043fa031eec
:1056ec0000d0e4e0089a002a00d1e0e00135029aeb
:1056fc00039b1498159905f00bfc02000b000a98fb
:10570c00129911f0d5f900220a9012913c4b029893
:10571c00039905f0fdfb089b02900391013308935c
:10572c00089a0f9b9342c9d1109b002b1ad1002dc4
:10573c0000d100e10d9b002b00dcfce0099bdb079a
:10574c0000d5f8e02e2230213b191a702a19ba180c
:10575c00597001339a42fbd12c19ed43079b01344c
:10576c00eb18079300263b191e700293119b5d1ecc
:10577c00069b7e55b34202da5b4206930136069bca
:10578c00002b00d0c0e0119beb1a013300d1bbe021
:10579c006a1e2d23002e00d1023bbb540e9a023df3
:1057ac005023192a00d9203379190b70ac4202da34
:1057bc00029811f05ffa0323099a1340022b11d1be
:1057cc00079b9c1e002c0ddd380010f073fe059b12
:1057dc00984200dba8e0f8182200302111f002f802
:1057ec0000230c933800c7e60000f07f706a0100bc
:1057fc006c6a0100786a0100746a01000000f03fd5
:10580c000000b03f00002040069b0294039501333a
:10581c000693029a039b1000190004f0c1fc0400cb
:10582c000d0002000b00089831000ef09dfb0028c3
:10583c00ead0029a039b089831000ef095fb0028e1
:10584c0000d1c6e60298039900223f4b05f060fb9d
:10585c00002200230ff0cafb00280fd002980399f6
:10586c0000223a4b05f054fb002202900391374b77
:10587c000898310005f04cfb0e000890324b029852
:10588c000399002205f044fb069b02900391013b17
:10589c000693cee700232e4c069002930394b8e7b0
:1058ac000f9ba3e6002300240a930b94f2e6109ab4
:1058bc00002a0ad1089a002a07d02e22ba55079a34
:1058cc000134013a0792012210922e19302201e084
:1058dc003a550134b442fbd11800079a5730551b86
:1058ec00092b01dc303318000e9b192b06d8202312
:1058fc000343613b192b01d811f00cf96b1e741c7e
:10590c00b85507930025f2e606980a210af0f4f937
:10591c00013d3031795506980a210af0a3f9079b0d
:10592c000690013b07932ae7079b3a5c023bfb1866
:10593c001a5401384be7099bdb0600d412e72e23df
:10594c003b5501340ee7c0460000e03f00005043d9
:04595c000000f03f18
:020000040000fa
:10596000284400201c000000000000009c3f002094
:105970009800000000000000784200203c00000079
:10598000000000005745002001000000000000005a
:105990007c3d0020c000000000000000e844002022
:1059a0000c000000000000009a45002001000000eb
:1059b00000000000ec4200202c000000000000006d
:1059c0009b4500200100000000000000184300205b
:1059d0002c00000000000000bc14002000080000a3
:1059e00000000000f4410020400000000000000022
:1059f0001845002010000000000000007c2d002051
:105a000004000000000000009c4500200100000090
:105a100000000000bc1c002000040000000000008a
:105a2000344200200400000000000000584500201f
:105a300004000000000000003c3e0020c000000008
:105a400000000000284500200800000000000000c1
:105a5000f44400200c00000000000000bc200020e6
:105a600000040000000000009d450020020000002e
:105a7000000000005c45002008000000000000005d
