:020000040000fa
:10000000f07f00203d3501001fce000073d10000bd
:1000100000000000000000000000000000000000e0
:100020000000000000000000000000008fe0000061
:1000300000000000000000008fe000008fe00000e2
:100040008fe000008fe000008fe000003d4f0100d6
:10005000f91f01008fe000008fe000008fe000003a
:10006000d5bb00008fe00000514201008fe000008e
:10007000894201000d5401008fe000008fe0000074
:100080008fe000008fe000008fe000008fe00000b4
:100090008fe000008fe000008fe000008fe00000a4
:0400a0008fe00000ed
:020000040000fa
:1000a400f8b5c046f8bc08bc9e467047fd33010055
:1000b400f8b5c046f8bc08bc9e467047d53301006d
:020000040000fa
:0800c40048dc0000010000000f
:020000040000fa
:1000cc00f0b5d646474680b5d9b0c94a6823d15c4d
:1000dc0024290ad88b00c74ad3589f46c64816f025
:1000ec0001fdc34a68230221d15459b00cbc90467f
:1000fc009a46f0bd16f0a0fe0028f6d0bf49c048c5
:10010c0016f0defabf49c04816f0e4fab84b0022ec
:10011c005a66683205219954bc4bbd4a1168196066
:10012c009188998092799a71dfe716f041fd072842
:10013c00dbd1af4a68230421d154d6e7b548042358
:10014c00037000234370b44b4360ff23037243726c
:10015c00f83b4381ad4bc36013f06afba44a6823a0
:10016c002521d154c1e7ab4804230370023b4370f3
:10017c0000234360ff3303724372f83b4381a34b6c
:10018c00c36013f055fb9a4a68230121d154ace7a4
:10019c00a24816f0a7fc964a68230121d154a4e783
:1001ac009f4816f09ffc924a6a23d05a46ab42aa4b
:1001bc0044a916f009fe00280ad042ab1a8846a9b9
:1001cc00984810f031f98a4a68230121d1548ce700
:1001dc00874a6a23d15a944810f026f9f3e79348da
:1001ec0016f080fc824a68230121d1547de7804ab5
:1001fc006a23d45a16f02efe844200d33be17c4a8b
:10020c006a23d35a002b28d016f024fe784a6a238e
:10021c00d45a031bdbb2032b23d800d17de0022b75
:10022c0000d1bee0012b00d029e146ab44aa42a983
:10023c00200016f0c9fd002800d115e146a97c4824
:10024c0010f0f2f842ab19887a4810f0edf86849d2
:10025c006a228b5a01338b5211e1714816f042fc21
:10026c00d2e746ab42aa44a9200016f0adfd002807
:10027c0011d05f4a6a23d05a013080b2b83302aa37
:10028c00944663440332ff3285214900614416f0e1
:10029c009bfd00280bd1564a6a23d15a624810f0b4
:1002ac00c3f853496a228b5a04338b52e7e0504a05
:1002bc006a23d05a023080b24fab43aa45a916f03c
:1002cc0083fd0028e7d04a4a6a23d05a033080b213
:1002dc00dc3302aa944663440732ff32872149007b
:1002ec00614416f071fd0028d5d0a3235b0002aa4f
:1002fc009446634400934fab91225200624446a94a
:10030c004d4810f091f842a8838842880188c08833
:10031c0000904a4810f088f8c3e746ab42aa44a9bb
:10032c00200016f051fd002811d0314a6a23d05a12
:10033c00013080b2b83302aa944663440332ff32d0
:10034c0085214900614416f03ffd00280bd1284a55
:10035c006a23d15a344810f067f825496a228b5a1f
:10036c0003338b528be0224a6a23d05a023080b27c
:10037c004fab43aa45a916f027fd0028e7d04fab99
:10038c009122520002a98c46624446a92c4810f0d6
:10039c004bf842a98b884a8809882a4810f044f8ff
:1003ac00dbe746ab42aa44a9200016f00dfd00285d
:1003bc0011d00f4a6a23d05a013080b2b83302aa46
:1003cc00944663440332ff3285214900614416f0a0
:1003dc00fbfc002838d1064a6a23d15a124810f087
:1003ec0023f803496a228b5a02338b5247e0c046ea
:1003fc00bc1c00207c020100f8320000f03d002003
:10040c0079460100a03d0020414601004c3f0020f0
:10041c00ec6d0100a43e00205d630100fc32000085
:10042c00605901004c3300005c3300009066010001
:10043c00f4330000fc3300007c33000094330000e4
:10044c00ac330000c03300009122520002ab9c463a
:10045c00624446a9c0480ff0e7ff42ab5a8819889e
:10046c00be480ff0e1ffbce7bd4a6a23d15abd4834
:10047c000ff0daffebe6ba4a68230121d154b84bee
:10048c006822985c69215854453999544a3ada657e
:10049c002be6b54816f026fbb14a6c23d05a46ab76
:1004ac0042aa44a916f07efb00280ad042ab1a8857
:1004bc0046a9ae480ff0b8ffa94a68230121d154d0
:1004cc0013e6a74a6c23d15aa6480ff0adfff3e709
:1004dc00a34a6c23d45a16f0c1fc844200d30ee11b
:1004ec009f4a6c23d35a002b28d016f0b7fc9c4a99
:1004fc006c23d45a031bdbb2032b23d800d17de031
:10050c00022b00d1bee0012b00d0fce046ab42aa8e
:10051c0044a9200016f046fb002800d1e8e046a9cb
:10052c0093480ff081ff42ab198892480ff07cff83
:10053c008b496c228b5a01338b52e4e08a4816f0bb
:10054c00d1fad2e746ab42aa44a9200016f02afb06
:10055c00002811d0824a6c23d05a013080b2b633b5
:10056c0002aa944663440332ff3285214900614458
:10057c0016f018fb00280bd1794a6c23d15a794814
:10058c000ff052ff76496c228b5a04338b52bae02f
:10059c00734a6c23d05a023080b24fab43aa45a9a0
:1005ac0016f000fb0028e7d06d4a6c23d05a0330bc
:1005bc0080b2da3302aa944663440732ff328721b1
:1005cc004900614416f0eefa0028d5d0a3235b0055
:1005dc0002aa9446634400934fab912252006244aa
:1005ec0046a965480ff020ff42a8838842880188fd
:1005fc00c088009061480ff017ffc3e746ab42aad2
:10060c0044a9200016f0cefa002811d0544a6c23cd
:10061c00d05a013080b2b63302aa944663440332f6
:10062c00ff3285214900614416f0bcfa00280bd139
:10063c004b4a6c23d15a4b480ff0f6fe48496c22ba
:10064c008b5a03338b525ee0454a6c23d05a0230ee
:10065c0080b24fab43aa45a916f0a4fa0028e7d004
:10066c004fab9122520002a98c46624446a94448e1
:10067c000ff0dafe42a98b884a88098841480ff0ae
:10068c00d3fedbe746ab42aa44a9200016f08afa57
:10069c00002811d0324a6c23d05a013080b2b633c4
:1006ac0002aa944663440332ff3285214900614417
:1006bc0016f078fa00280bd1294a6c23d15a294814
:1006cc000ff0b2fe26496c228b5a02338b521ae081
:1006dc009122520002ab9c46624446a91e480ff080
:1006ec00a3fe42ab5a8819881c480ff09dfee9e71f
:1006fc001b4a6c23d15a1b480ff096fe18e7184a78
:10070c0068230121d154164b6822985c69215854f6
:10071c00453999544a3ada65e7e4134816f0e2f998
:10072c000f4a6e23d05a46ab42aa44a916f034faab
:10073c0000280ad042ab1a8846a913480ff074fe61
:10074c00074a68230121d154cfe4054a6e23d15abc
:10075c0004480ff069fef3e7d4330000e4330000e3
:10076c00bc1c00205c330000605901000434000004
:10077c00f4330000fc3300007c33000094330000a1
:10078c00ac330000c03300004c330000bc4a6e2375
:10079c00d45a16f061fb844200d30ee1b84a6e23a2
:1007ac00d35a002b28d016f057fbb54a6e23d45ad7
:1007bc00031bdbb2032b23d800d17de0022b00d12d
:1007cc00bee0012b00d0fce046ab42aa44a92000bd
:1007dc0016f0e2f9002800d1e8e046a9a9480ff08c
:1007ec0023fe42ab1988a8480ff01efea4496e22c6
:1007fc008b5a01338b52e4e0a44816f073f9d2e71c
:10080c0046ab42aa44a9200016f0c6f9002811d024
:10081c009b4a6e23d05a013080b2b43302aa94465c
:10082c0063440332ff3285214900614416f0b4f968
:10083c0000280bd1924a6e23d15a95480ff0f4fd43
:10084c008f496e228b5a04338b52bae08c4a6e233a
:10085c00d05a023080b24fab43aa45a916f09cf98e
:10086c000028e7d0864a6e23d05a033080b2d833a2
:10087c0002aa944663440732ff328721490061443f
:10088c0016f08af90028d5d0a3235b0002aa94465f
:10089c00634400934fab91225200624446a97d48b9
:1008ac000ff0c2fd42a8838842880188c08800905e
:1008bc0079480ff0b9fdc3e746ab42aa44a9200022
:1008cc0016f06af9002811d06d4a6e23d05a013007
:1008dc0080b2b43302aa944663440332ff328521ba
:1008ec004900614416f058f900280bd1644a6e2374
:1008fc00d15a67480ff098fd61496e228b5a033329
:10090c008b525ee05e4a6e23d05a023080b24fabff
:10091c0043aa45a916f040f90028e7d04fab912225
:10092c00520002a98c46624446a95c480ff07cfd3b
:10093c0042a98b884a88098859480ff075fddbe776
:10094c0046ab42aa44a9200016f026f9002811d083
:10095c004b4a6e23d05a013080b2b43302aa94466b
:10096c0063440332ff3285214900614416f014f9c7
:10097c0000280bd1424a6e23d15a45480ff054fd42
:10098c003f496e228b5a02338b521ae0912252004d
:10099c0002ab9c46624446a942480ff045fd42ab6f
:1009ac005a88198840480ff03ffde9e7344a6e2316
:1009bc00d15a37480ff038fd18e7314a6823012126
:1009cc00d1542f4b6822985c69215854453999545d
:1009dc004a3ada65fff789fb2c4816f083f833485e
:1009ec0016f080f8324933480ff01efd244a682374
:1009fc000121d154fff779fb244816f073f82cac85
:100a0c00200010f049fe2c4816f06cf8237b22696c
:100a1c000132d2b261696439c9b22c980290606813
:100a2c000190a068009025480ff0fefc144a682342
:100a3c000121d154fff759fb16f0d6f904001348e5
:100a4c0016f050f81e4816f04df801250ae0a37870
:100a5c006278009129001b480ff0e6fc0334013545
:100a6c00052d03d02178ff29f8d0f0e7164816f0b1
:100a7c0039f8034a68230121d154fff736fbc046ed
:100a8c00bc1c0020f4330000fc3300006059010052
:100a9c005c3300007c33000094330000ac33000066
:100aac00c0330000d4330000e433000010340000e5
:100abc004c3f00202034000028340000503400004b
:100acc00703400008034000098340000e84b1a00a9
:100adc0020320024002503cb24184d419342fad137
:100aec00e44815f0ffffe44e300014f0effd41b286
:100afc00e2480ff099fc2000290014f077f9e04946
:100b0c000ff000fc12f03eff04000d00d84fb86946
:100b1c00f96914f06bf9da490ff0f4fb12f032ffbb
:100b2c00069007913869796914f060f9d4490ff08f
:100b3c00e9fb12f027ff04900591b868f96814f0ee
:100b4c0055f9cf490ff0defb12f01cff0290039118
:100b5c003868796814f04af9c9490ff0d3fb12f0e0
:100b6c0011ff0090019122002b00c6480ff05cfc95
:100b7c0069231222f254013b1232f2544a3bf365c0
:100b8c00fff7b3fabc49a02292008b5c013bdbb2ad
:100b9c008b54002b05d1b84a68230121d154fff79f
:100bac00a4fa0c00080014f091fd0130c1b2200031
:100bbc0013f010f9200012f07ffeece72c2200213c
:100bcc0021a815f0a5fdab4815f08cffaa4c9e256d
:100bdc00ad00605d20a914f053feab4be15c605d91
:100bec002caa12f007f900286ad0a34a535d002bf7
:100bfc0010d0012b32d0022b37d0032b3cd0042b3e
:100c0c0041d0052b0bd19c4a9f4bd15c9f480ff0d8
:100c1c000bfc04e09c4bd15c9d480ff005fc20ab19
:100c2c0019789c480ff000fc2c2221a92ca815f057
:100c3c000dfa00282ed198480ff0f6fb2c2221a992
:100c4c0037a815f003fa00282fd194480ff0ecfbcd
:100c5c00894a68230121d154fff747fa864a8a4b07
:100c6c00d15c8f480ff0e0fbd9e7834a864bd15c0f
:100c7c008c480ff0d9fbd2e77f4a834bd15c8a4872
:100c8c000ff0d2fbcbe77c4a7f4bd15c87480ff04f
:100c9c00cbfbc4e72e9b2f9a30991c9101312d98d8
:100cac00009083480ff0c0fbc8e7399b3a9a3b99f8
:100cbc001c910131389800907e480ff0b5fbc7e7c6
:100ccc007d4815f00fffc3e76a4815f00bff6a4d1e
:100cdc00280014f0fbfc41b278480ff0a5fb784ccf
:100cec00206814f0ffff77490ff00cfb12f04afe5e
:100cfc001c901d912723e35c1b932623e35c1a9322
:100d0c002523e35c19932426a35d01331893206af1
:100d1c0014f0e8ff6b490ff0f5fa12f033fe169061
:100d2c001791e37f1593a37f1493637f1393237f12
:100d3c0001331293a06914f0d5ff62490ff0e2fa67
:100d4c0012f020fe10901191e37d0f93a37d0e9372
:100d5c00637d0d93237d01330c93206914f0c2ff46
:100d6c0058490ff0cffa12f00dfe0a900b91e37b6d
:100d7c000993a37b0893637b0793237b013306932f
:100d8c00a06814f0afff4f490ff0bcfa12f0fafd57
:100d9c0004900591e3790393a3790293637901930a
:100dac002379013300931c9a1d9b47480ff03cfba1
:100dbc0069231522ea54013bee544a3beb65fff7dd
:100dcc0094f92d49a02292008b5c013bdbb28b5431
:100ddc00002b05d1284a68230121d154fff785f94e
:100dec000c00080014f072fc0130c1b2200012f0ab
:100dfc00f1ff200012f082fdece71e4815f072fea8
:100e0c00002220a9012015f07ffa002221a902203e
:100e1c0015f07afa00222ca9042015f075fa209806
:100e2c0014f060ff29490ff06dfa12f0abfd0400cd
:100e3c000d002c9814f056ff24490ff063fa12f0b1
:100e4c00a1fd02900391219814f04cff1f490ff063
:100e5c0059fa12f097fd0090019122002b001c48ca
:100e6c000ff0e2fa044a68230121d154fff73df94f
:100e7c00f03d002060590100bc1c00209c34000097
:100e8c008096184bb83400007902000088350000b9
:100e9c00f4340000a8350000b8350000f43500002b
:100eac00103500002c350000483500006835000076
:100ebc00d03500000c3600003036000064360000df
:100ecc00a03d002000007a448436000000401c46ff
:100edc0008370000fa4815f005fe00221fa9012072
:100eec0015f01efa002220a9022015f019fa002292
:100efc0021a9042015f014fa00222ca9002015f0c9
:100f0c000ffa1f9814f0eefeee490ff0fbf912f0f9
:100f1c0039fd04000d002c9814f0e4fee9490ff0a3
:100f2c00f1f912f02ffd04900591219814f0dafede
:100f3c00e4490ff0e7f912f025fd02900391209897
:100f4c0014f0d0fedf490ff0ddf912f01bfd00901c
:100f5c00019122002b00dc480ff066fadb4a682373
:100f6c000121d154fff7c1f8d54815f0bbfd1eabdc
:100f7c009a46002352461fa91f2014f04bf97125e5
:100f8c0002ab9c46654400232a0020a9012014f0e2
:100f9c0041f9722702ab9c46674400233a0021a911
:100fac00022014f037f9732602ab9c4666440023ea
:100fbc0032002ca9042014f02df91f9814f092fe85
:100fcc00c3490ff09ff912f0ddfc1c901d91c14c30
:100fdc0053461b78e35c98462c9814f083febc496e
:100fec000ff090f912f0cefc0a900b913378e35c81
:100ffc000893219814f076feb5490ff083f912f09e
:10100c00c1fc069007913b78e35c0493209814f0a4
:10101c0069feaf490ff076f912f0b4fc029003911f
:10102c002b78e35c00931c9a1d9b4146aa480ff059
:10103c00fbf9a64a68230121d154fff756f8a048c2
:10104c0015f050fd1eab9a46002352461fa91f20d7
:10105c0014f0e0f8712502ab9c46654400232a008d
:10106c0020a9012014f0d6f8722702ab9c466744e5
:10107c0000233a0021a9022014f0ccf8732602ab0d
:10108c009c466644002332002ca9042014f0c2f8bc
:10109c001f9814f027fe8e490ff034f912f072fcf1
:1010ac001c901d918b4c53461b78e35c98462c98f6
:1010bc0014f018fe86490ff025f912f063fc0a9023
:1010cc000b913378e35c0893219814f00bfe804964
:1010dc000ff018f912f056fc069007913b78e35c80
:1010ec000493209814f0fefd79490ff00bf912f0df
:1010fc0049fc029003912b78e35c00931c9a1d9b96
:10110c00414676480ff090f9704a68230121d1547a
:10111c00fef7ebff6a4815f0e5fc1eab9a46002380
:10112c0052461fa91f2014f08af8712502ab9c4669
:10113c00654400232a0020a9012014f080f87227ae
:10114c0002ab9c46674400233a0021a9022014f00c
:10115c0076f8732602ab9c466644002332002ca919
:10116c00042014f06cf81f9814f0bcfd58490ff0d3
:10117c00c9f812f007fc1c901d91564c53461b7875
:10118c00e35c98462c9814f0adfd51490ff0baf879
:10119c0012f0f8fb0a900b913378e35c08932198da
:1011ac0014f0a0fd4a490ff0adf812f0ebfb0690dd
:1011bc0007913b78e35c0493209814f093fd444929
:1011cc000ff0a0f812f0defb029003912b78e35c99
:1011dc0000931c9a1d9b414641480ff025f93b4a50
:1011ec0068230121d154fef780ff354815f07afcb5
:1011fc001eab9a46002352461fa91f2014f034f848
:10120c00712502ab9c46654400232a0020a90120cd
:10121c0014f02af8722702ab9c46674400233a006c
:10122c0021a9022014f020f8732602ab9c466644d8
:10123c00002332002ca9042014f016f81f9814f087
:10124c0051fd23490ff05ef812f09cfb1c901d9190
:10125c00204c53461b78e35c98462c9814f042fdc6
:10126c001b490ff04ff812f08dfb0a900b9133785d
:10127c00e35c0893219814f035fd15490ff042f802
:10128c0012f080fb069007913b78e35c0493209866
:10129c0014f028fd0e490ff035f812f073fb029094
:1012ac0003912b78e35c00931c9a1d9b41460d48df
:1012bc000ff0baf8054a68230121d154fef715ff47
:1012cc00605901000050c34740370000bc1c00208f
:1012dc0000007a446c6e010080370000cc370000af
:1012ec002838000074380000d74815f0fbfb0021ab
:1012fc002ca814f0e8fc2c9814f0f4fcd3490ff053
:10130c0001f812f03ffb02000b00d1480ff08cf8f3
:10131c00d04a68230121d154fef7e7feca4815f0e4
:10132c00e1fb21ac002221002ca815f007fb2c9826
:10133c0014f0d8fcc8490ef0e5ff12f023fb0200b4
:10134c000b002178c548415cc5480ff06df8c14ac7
:10135c0068230121d154fef7c8febb4815f0c2fb2f
:10136c00722602ab9c4666440023320020a9012061
:10137c0013f026ff732502ab9c46654400232a001c
:10138c0021a9022013f01cff1faf00233a002ca947
:10139c00042013f015ff209814f0a4fcae490ef0b5
:1013ac00b1ff12f0effa1c901d91ac4c3378e65c57
:1013bc002c9814f097fca8490ef0a4ff12f0e2fa56
:1013cc00069007913b78e35c0493219814f08afc17
:1013dc00a1490ef097ff12f0d5fa029003912b78e9
:1013ec00e35c00931c9a1d9b31009e480ff01cf887
:1013fc00984a68230121d154fef777fe924815f0e4
:10140c0071fb722602ab9c4666440023320020a975
:10141c00012013f0eafe732502ab9c4665440023c1
:10142c002a0021a9022013f0e0fe1faf00233a008e
:10143c002ca9042013f0d9fe209814f053fc8649f3
:10144c000ef060ff12f09efa1c901d91834c3378c5
:10145c00e65c2c9814f046fc7f490ef053ff12f01a
:10146c0091fa069007913b78e35c0493219814f071
:10147c0039fc79490ef046ff12f084fa0290039180
:10148c002b78e35c00931c9a1d9b310076480ef080
:10149c00cbff704a68230121d154fef726fe6a481f
:1014ac0015f020fb1ead00232a001fa9012013f00c
:1014bc00f0fe712702ab9c46674400233a0020a93a
:1014cc00022013f0e6fe722602ab9c466644002313
:1014dc00320021a9042013f0dcfe732302aa9446e7
:1014ec0063449a46002352462ca91f2013f0d1fec8
:1014fc002c9814f0f7fb5d490ef004ff12f042fa41
:10150c001c901d91554c53461b78e35c98462198d2
:10151c0014f0e8fb55490ef0f5fe12f033fa0a9080
:10152c000b913378e35c0893209814f0dbfb4f4964
:10153c000ef0e8fe12f026fa069007913b78e35c79
:10154c0004931f9814f0cefb48490ef0dbfe12f00a
:10155c0019fa029003912b78e35c00931c9a1d9b63
:10156c00414643480ef060ff3a4a68230121d154aa
:10157c00fef7bbfd374a3f4bd356002b05dc354af3
:10158c0068230121d154fef7b0fd2f4815f0aafabb
:10159c00304a384bd756042f03dcffb2002f01d151
:1015ac0015e0022700252b4c9f26b600a3599a68fc
:1015bc00196831480ef038ff2e4aa35c013ba35446
:1015cc000135edb2a3590c33a351af42ecd8214bea
:1015dc006822985c69215854453999545e3ada6509
:1015ec00fef783fd1b4b692223219954013a0131eb
:1015fc009954043ada65fef778fd164b986d431c46
:10160c0014d014f009fe002801d1fef76efd114b29
:10161c00012252429a656a329b5c222b0cd0232bfe
:10162c000ed00c4968228b54fef75ffd13494868b5
:10163c0011f08cfbfef759fd15f0defafef755fda7
:10164c0014f008fcfef751fd605901000000c8427f
:10165c00c4380000bc1c0020000020416c6e01004e
:10166c00ec380000103900007039000000007a449a
:10167c00cc3900007b02000040590100141d0020f1
:020000040000fa
:10168c00000000000000000000000000000000004e
:10169c00000000000000000000000000000000003e
:1016ac00000000000000300030003000300030003e
:1016bc00300030000000300030000000000000005e
:1016cc000000000000006c006c006c006c0000005e
:1016dc0000000000000000000000000000000000fe
:1016ec00000000000000000048004800fc0048001a
:1016fc0048004800fc0048004800000000000000c2
:10170c00000000000000100010003c004000300001
:10171c000800040078001000100000000000000019
:10172c0000000000000000007c00a400a80048009d
:10173c00100014002a004a004400000000000000c1
:10174c000000000000007000880088008800700015
:10175c0088008a008a008c007000000000000000e5
:10176c00000000000000100010001000000000003d
:10177c00000000000000000000000000000000005d
:10178c0000000000080010001000200020002000c5
:10179c0020002000200010001000080000000000b5
:1017ac0000000000200010001000080008000800d5
:1017bc0008000800080010001000200000000000c5
:1017cc00000000000000280010007c001000280021
:1017dc0000000000000000000000000000000000fd
:1017ec0000000000000000000000000010001000cd
:1017fc001000fe001000100010000000000000009f
:10180c0000000000000000000000000000000000cc
:10181c00000000000000180018003000200000003c
:10182c0000000000000000000000000000000000ac
:10183c000000fe000000000000000000000000009e
:10184c00000000000000000000000000000000008c
:10185c00000000000000180018000000000000004c
:10186c000000000000000000040008000800100048
:10187c00100020002000400040000000000000008c
:10188c000000000000007800840084008c009400ac
:10189c00a400c40084008400780000000000000054
:1018ac00000000000000100030005000100010007c
:1018bc0010001000100010007c0000000000000060
:1018cc0000000000000070008800080008001000f4
:1018dc001000200020004000fc0000000000000070
:1018ec0000000000000070008800080008003000b4
:1018fc0008000800080088007000000000000000cc
:10190c000000000000000800180028002800480013
:10191c0088008800fc00080008000000000000009f
:10192c000000000000007c0080008000b800c400b3
:10193c000400040004008400780000000000000093
:10194c000000000000003800400080008000b00063
:10195c00c800840084004800300000000000000033
:10196c00000000000000fc00040004000800080057
:10197c0010001000200020004000000000000000bb
:10198c0000000000000078008400840084007800cf
:10199c0084008400840084007800000000000000b3
:1019ac0000000000000078008400840084008c009b
:1019bc007400040008001000e000000000000000ab
:1019cc0000000000000000000000000000003000db
:1019dc00300000000000300030000000000000006b
:1019ec00000000000000000000000000000060008b
:1019fc0060000000000060006000c000800000007b
:101a0c0000000000000000000000000004001800ae
:101a1c00600080006000180004000000000000005e
:101a2c0000000000000000000000000000007e002c
:101a3c00000000007e00000000000000000000001c
:101a4c00000000000000000000000000400030001a
:101a5c000c0002000c0030004000000000000000f0
:101a6c000000000000007000880008000800100052
:101a7c0020002000000020002000000000000000da
:101a8c00000000000000000000003c004200ba0012
:101a9c00aa00aa00aa00bc0040003c000000000004
:101aac000000000000001000100028002800280092
:101abc0044007c0044008200820000000000000012
:101acc00000000000000f000880088008800f00092
:101adc008800880088008800f000000000000000ea
:101aec0000000000000038004400800080008000ee
:101afc0080008000800044003800000000000000de
:101b0c00000000000000f0008800840084008400c5
:101b1c008400840084008800f000000000000000b5
:101b2c000000000000007c004000400040007800f5
:101b3c0040004000400040007c000000000000001d
:101b4c000000000000007c0040004000400040000d
:101b5c007800400040004000400000000000000001
:101b6c00000000000000380044008000800080006d
:101b7c009c008400840044003c0000000000000035
:101b8c000000000000008400840084008400fc003d
:101b9c0084008400840084008400000000000000a5
:101bac000000000000007c0010001000100010006d
:101bbc0010001000100010007c000000000000005d
:101bcc00000000000000f8000800080008000800f1
:101bdc000800080008001000e000000000000000f1
:101bec000000000000008400840088009000a00029
:101bfc00d0008800880084008400000000000000f1
:101c0c000000000000008000800080008000800048
:101c1c008000800080008000fc00000000000000bc
:101c2c0000000000000084008400cc00cc00b40054
:101c3c00b4008400840084008400000000000000d4
:101c4c000000000000008400c400c400a400a40034
:101c5c00940094008c008c008400000000000000b4
:101c6c000000000000003000480084008400840064
:101c7c008400840084004800300000000000000054
:101c8c00000000000000f000880084008400840044
:101c9c008800f00080008000800000000000000040
:101cac000000000000003000480084008400840024
:101cbc008400840084004800300020001c000000d8
:101ccc00000000000000f000880084008400880000
:101cdc00f0009000880084008400000000000000e8
:101cec0000000000000078008400800040003000fc
:101cfc0008000400040084007800000000000000cc
:101d0c00000000000000fe00100010001000100089
:101d1c001000100010001000100000000000000067
:101d2c000000000000008400840084008400840013
:101d3c00840084008400840078000000000000000f
:101d4c0000000000000082008200440044004400b7
:101d5c0044002800280028001000000000000000ab
:101d6c000000000000008400840084008400b400a3
:101d7c00b400b400780048004800000000000000e7
:101d8c000000000000008200440044002800100005
:101d9c0010002800440044008200000000000000f5
:101dac0000000000000082004400440028002800cd
:101dbc0028001000100010001000000000000000af
:101dcc00000000000000fc000400080008001000e7
:101ddc001000200040004000fe0000000000000049
:101dec0000000000e0008000800080008000800087
:101dfc0080008000800080008000e0000000000077
:101e0c0000000000000040004000200020001000f6
:101e1c00100008000800040004000000000000008e
:101e2c0000000000e0002000200020002000200026
:101e3c0020002000200020002000e0000000000016
:101e4c00000000000000100028004400000000000a
:101e5c000000000000000000000000000000000076
:101e6c000000000000000000000000000000000066
:101e7c0000000000000000007c00000000000000da
:101e8c00000000000000200010000800000000000e
:101e9c000000000000000000000000000000000036
:101eac0000000000000000000000000078000400aa
:101ebc0004007c0084008c00760000000000000010
:101ecc00000000008000800080008000b800c4008a
:101edc008400840084008800f000000000000000f2
:101eec000000000000000000000000007c008000ea
:101efc0080008000800080007c000000000000005a
:101f0c000000000002000200020002003e0042003d
:101f1c0082008200820042003e00000000000000af
:101f2c000000000000000000000000007c008200a7
:101f3c008200fe00800080007e0000000000000097
:101f4c000000000000001c0020002000fc0020000d
:101f5c002000200020002000fc00000000000000f9
:101f6c000000000000000000000000007c00840065
:101f7c008400840084008c00740004004400380049
:101f8c00000000008000800080008000b800c400c9
:101f9c0084008400840084008400000000000000a1
:101fac000000000000001000000000007000100095
:101fbc0010001000100010007c0000000000000059
:101fcc00000000000000080000000000780008007d
:101fdc000800080008000800080008001000e000d5
:101fec0000000000800080008000800088009000cd
:101ffc00a000e000900088008400000000000000b9
:10200c00000000000000f000100010001000100094
:10201c001000100010001000fe0000000000000076
:10202c00000000000000000000000000ac00d40024
:10203c0094009400940094009400000000000000b0
:10204c00000000000000000000000000b800c40008
:10205c0084008400840084008400000000000000e0
:10206c000000000000000000000000007800840068
:10207c0084008400840084007800000000000000cc
:10208c00000000000000000000000000b800c400c8
:10209c008400840084008400f800800080008000ac
:1020ac000000000000000000000000007c00840024
:1020bc0084008400840084007c000400040004007c
:1020cc00000000000000000000000000cc00300008
:1020dc002000200020002000f8000000000000007c
:1020ec000000000000000000000000007c008000e8
:1020fc008000780004000400f800000000000000dc
:10210c00000000000000000000002000fc00200087
:10211c0020002000200020001c0000000000000017
:10212c000000000000000000000000008800880093
:10213c0088008800880088007400000000000000ff
:10214c0000000000000000000000000082004400bd
:10215c0044002800280010001000000000000000bf
:10216c00000000000000000000000000840084005b
:10217c00b400b40048004800480000000000000013
:10218c0000000000000000000000000044002800d7
:10219c00280010002800440044000000000000004b
:1021ac00000000000000000000000000820044005d
:1021bc0044002800280028001000100020002000f7
:1021cc00000000000000000000000000fc00040003
:1021dc000800100020004000fc000000000000007f
:1021ec00000000000800100010000800080010009b
:1021fc00100008000800100010000800000000008b
:10220c000000000010001000100010001000000072
:10221c000000100010001000100010000000000062
:10222c000000000020001000100020002000100012
:10223c001000200020001000100020000000000002
:020000040000fa
:10224c00f0b5de4657464e464546e0b599b013907c
:10225c000d000092019313a810f0c2fb002800dac5
:10226c00abe38300c24a9b58002b01d000221a70aa
:10227c00c04b4000c25c029218184378994610007b
:10228c0014f014fbc30700d599e3430700d59ee374
:10229c00002d01d100f0f0fb6b681793002b01d1de
:1022ac0000f0edfb179b5a1eb3498a4201d81a4223
:1022bc0001d0012317936b789846013b012b01d970
:1022cc0001239846ae68721eab4b9a4204d8330772
:1022dc0004d08026b60001e08026b600ec6880238e
:1022ec005b049c4200d9a0e0631e23405a42534138
:1022fc005b421c40a14b019a9a4200d869e30099b9
:10230c00002900d167e32b789b46002316934b469c
:10231c00002b00d18be0012300220d00029813f05a
:10232c0083f8002800d058e3944b2900ea5c120291
:10233c00013beb5c1343924a1bb2934200d04ee339
:10234c004b461d01af35ff358c466544042b00d937
:10235c0047e32b79002b00d145e32800083014f01b
:10236c007bf8049028000c3014f076f81690169b2d
:10237c007f2b00d83be3834b802203929c4201d8f5
:10238c00630a039302235a461a400d9264d0013b10
:10239c005a4613405a42534102339a4643460593d8
:1023ac0014f0a6fc1290169a0692130b0f9373015d
:1023bc005b0a0b93049901310e918c4663440a938a
:1023cc00179b591e08915b420993530c109343467b
:1023dc001193b0465346032b00d11fe3039b1c1ee5
:1023ec0058d0210006980ef09bfa674b984265d99d
:1023fc00871c7f00614b9c4667447f0a05990d0042
:10240c007d430a9b9c466544089b5e19099b1e40b4
:10241c00761b30000ef0c0fa002957d0013e049b09
:10242c0002330c930223079354e0002462e716aaac
:10243c000121029811f0b8f9002800d0d5e2002350
:10244c0004935b461b0792d4169b3f2b8fd93f3bc3
:10245c0016933f2304938ae75b46db0700d4c8e25c
:10246c0002239a469ae70394b4e7484b069a9a4299
:10247c000ed9474b04330224022210998a4200d908
:10248c00d0e2640002339a1e1288002af6d1c9e207
:10249c000124c7e23f4b069a9a420dd93e4b0433b6
:1024ac00022404220f998a429bd8640002339a1e9c
:1024bc001288002af7d194e7012492e747003f18cd
:1024cc0001377f08033701239a4693e70e9b0c9341
:1024dc0001230793059930000ef022fac7190b9ec1
:1024ec002301049aad1a5b19069a9a4200d284e22f
:1024fc00079b9819101a059b7b43c01a21000ef0fc
:10250c000ffa5346032b13d0022b49d1234b98427d
:10251c001ed9039b002b00d07de26400402ca2d975
:10252c000d9b002b00d079e2802c0fd8039451e73f
:10253c001a4b984234d8039b002b00d05fe2012c3d
:10254c0002d96308039345e70e2039e20e2037e2e7
:10255c000d4b984200d9bee0039b002b00d050e2fb
:10256c0063000393802b00d834e70e2028e2c0468a
:10257c005c3f0020903f0020ff7f0000ff01000027
:10258c0055aaffffff010100f50f0000ffff01003e
:10259c0098680100ff0f000088680100f5ff00003b
:1025ac0008964646119b984605005346012b00d0d1
:1025bc00afe0e24b984200d925e280229200002144
:1025cc00009814f0a5f80b22dd49009814f096f849
:1025dc000023009ad372023313735473079b9373c3
:1025ec009bb21b0ad37343461374009a5674b6b24b
:1025fc00360a9674d34b0699994200d9a8e0d17447
:10260c008bb21b0a1375019b5b0a9846129b069aa8
:10261c00944663441e00f82300994b75b93b0b7626
:10262c0000234b76ff228a76cb7608001c30049967
:10263c0014f014f95346032b00d18fe03100009da8
:10264c002800273014f00af9af75bbb21b0aeb75e2
:10265c0024238022ea540233573aea54163aba49f0
:10266c0028002b3014f04af8ff235b005522ea5463
:10267c00b64b5532ea54ff3bff3b049a29000298b3
:10268c0012f00cfb002800d0bfe1019b5a0a520249
:10269c000021009814f03cf8059b002b00d1e7e1d9
:1026ac005346013b5a1e93415b421b06a84a944673
:1026bc00634404930023019303974746d846a346eb
:1026cc000c9c5346032b00d1c9e00499009814f0dc
:1026dc00c5f8039de7e008964646119b9846050011
:1026ec00802292000021009814f012f80b229449d9
:1026fc00009814f003f80023009ad372023313737a
:10270c005473079b93739bb21b0ad3734346137486
:10271c006be7802292000021009813f0f9ff0b2246
:10272c008749009813f0eaff0023009ad372023312
:10273c0013735473079b93739bb21b0ad373434657
:10274c0013745346033b5a1e93415b421e404ce7a5
:10275c0000982030069914f081f854e73100009e5f
:10276c003000433014f07af830002430390014f083
:10277c0075f830002c30022114f070f8302301224f
:10278c00f25400233032b35401320621b1540132d9
:10279c00b35440334d32f2540233573af254163a92
:1027ac006c493000473013f0a9ffff235b00552222
:1027bc00f254664b5532f254ff3bff3b049a310006
:1027cc00029812f06bfa03000120002b00d0f7e006
:1027dc00049b9a1d0123009e3100029812f05efab0
:1027ec00802292000021300013f092ff5a493000f1
:1027fc0014f034f83000e530ff30584914f02ef85e
:10280c00691e3500e935ff35280014f027f8300033
:10281c00ed30ff30022114f021f8ff235b0055222c
:10282c003500f254494b5532f254049bda1d012306
:10283c003100029e300012f031fa01230e9a290069
:10284c00300012f02bfa019b5a0a52020021280088
:10285c0013f05eff059b002b00d021e733e008212d
:10286c004942009d280013f0f9ff01212b1d49421c
:10287c00180013f0f3ff28000830394913f0eeff6d
:10288c0027e7330022000099029812f007fa00287b
:10289c0000d0bce0802292000021009813f038ff99
:1028ac00a419ad1b04d02e00bd42ead93e00e8e7c6
:1028bc00019b01330193059a9a4200d901e70c94cc
:1028cc005c46c346b8465346032b02d10c9e474682
:1028dc000fe0089c0c9e47460be02b003200009941
:1028ec00029812f0dbf9002800d092e07619641bf4
:1028fc0004d02500bc42f0d93d00eee75346032b33
:10290c0009d0104b0634169a9a4205d85346022b1e
:10291c0011d0053c00e00c244b46002b22d15b4629
:10292c001b073dd500221100029810f03dff431efd
:10293c009841c0b244e00424eee7c046f50f000015
:10294c0020480100ffff000040480100ff0100008b
:10295c00f8ffff002c480100525261417272416134
:10296c00ffffff0f01230022009d2900029e300073
:10297c0012f05afd03000120002b21d14b46013be4
:10298c001b01ac466344c333ff331c7003000022ad
:10299c002900300012f082f90028c3d001200fe08a
:1029ac00169b149300231593009b220014a90298e4
:1029bc0007f0aefd0028b5d002e00b2000e00320ac
:1029cc0019b03cbc90469946a246ab46f0bd0a20d5
:1029dc00f6e71120f4e71120f2e70120f0e70e20d2
:1029ec00eee70e20ece70e20eae70120e8e70e20e8
:1029fc00e6e71320e4e70e20e2e70e20e0e70e20e6
:102a0c00dee70e20dce70e20dae70120d8e7012014
:102a1c00d6e70120d4e70d9b002b27d0039b1c1e6f
:102a2c0000d122e5210006980df07aff8700174ba4
:102a3c009c4667447f0a164b9c466044154b984253
:102a4c00d9d8049a2032059d7d43ad18089b5b199b
:102a5c0009990b405b1b20218c469c4461460791d5
:102a6c00d3180c93002603239a4639e50e20a7e7ca
:102a7c00089c0c9e47463ce700231793064d17aa6b
:102a8c000321029810f090fefff70cfc07020000e7
:0c2a9c000a00fffffffffe0fa86801000a
:020000040000fa
:102aa800f0b5c14ca5440e9304000023080006921b
:102ab8000793302855d02e287bd1e36be26c9342e4
:102ac8005cd25a1ce263187800220023009201931a
:102ad800302857d00123089300230022002715002f
:102ae8001e001093049303970300303b092b66d90b
:102af8002e2866d0089b002b01d100950196079bd4
:102b0800002b00d1c6e320230343652b01d000f03e
:102b1800dafb9799200008f0a7ff00280fd180233f
:102b28001b0699420bd1979b002b00d1c1e3e36ca4
:102b380000200021002b02d0e36b013be363009be4
:102b4800019c1b184c4100930194109c002c00d050
:102b580088e0969813f0a6fa0022002308f00af9f4
:102b6800ade3e36be26c934204d25a1ce26318783b
:102b780001239de720000ff0adfef9e720000ff0dc
:102b8800a9fea1e701225242d317009801998018a3
:102b98005941e36be26c00900191934205d25a1cb3
:102ba800e26318780123079392e720000ff092fe62
:102bb800f8e7002300220893009201938ce72e285f
:102bc8000ed1089b002b4bd1009501960133089339
:102bd800e36be26c93423fd25a1ce263187883e7b6
:102be8007c2f22dc29003200012500264919724178
:102bf8000d001600302800d00491039a002a05d051
:102c080010a9ba0052580a214a43d318ba0010a989
:102c18005350039b0133039301230793039b092b11
:102c2800d6d1002301370393d2e72a0033000125c8
:102c380000265219734115001e003028c8d0f8220a
:102c480010ab52009b580493012304990b4310a91d
:102c58008b50564b0493bbe720000ff03bfe43e735
:102c68002e204ce7009a95421bd1019a964218d122
:102c7800002e16dc01d1092d13d8069b1e2b03dc70
:102c88002300069ad3400cd1969813f00bfa06004d
:102c980020000f0013f0f8f902000b003000390093
:102ca8005ce70e9b0e9adb0f9b185b1001995b4249
:102cb800da17914203dc11d1009a9a420ed92222e6
:102cc8003b4b96981a6013f0edf90122394b5242aa
:102cd80008f050f80122374b52423fe70e9b01990a
:102ce8006a3bda178a4203dc11d1009a93420ed963
:102cf80022222f4b96981a6013f0d4f980230022d1
:102d08005b0308f037f8802300225b0326e7039b68
:102d18000a21002b20d1049b082b71dc009a9342d6
:102d28006edc112a6cdc092a1bd1109813f0acf95f
:102d38000d000400969813f0b5f902000b0020006e
:102d480029000be7ba0010abd35810a807934b43e0
:102d58001350039b01330393039b082bf2dd0137c8
:102d6800d9e7009b082b29dc109813f08df9040093
:102d780096980d0013f096f902000b002000290028
:102d880007f0f8ff0823009a04009b1a0a4a9b00e0
:102d980098580d0013f086f902000b002000290056
:102da8000bf0e6fb8be2c046bcfdffff5c040000b5
:102db800843f0020ffffef7f4c510100009b093b3f
:102dc8009a009b1a069a9b181e2b02dc109ada406e
:102dd80016d1109813f058f9040096980d0013f0c6
:102de80061f902000b002000290007f0c3ff009bd7
:102df800934a0a3b9b0004000d0098589be71f006c
:102e08007b1e9a0010a95258002af8d00921009870
:102e18000cf0e0fd0e1e1bd0009b002b00da0936db
:102e2800082300249b1b864a9b009b5810ad0893df
:102e380004940394039bbb420dd1002c03d0bb0028
:102e480010aa9c500137009b9e1b09360096049ed1
:102e58000023039386e0286808990df09ffd031965
:102e68000f912b600899774807930cf069fd0f9c28
:102e7800039b049a444393420ad1079b002b07d132
:102e8800039b5a1c7f231a40009b0492093b009322
:102e9800039b043501330393cce7039b7a1e1d3b48
:102ea80003937f231a40002304920793049b10aadc
:102eb8009b009b580022d9085b070a93079b0b913c
:102ec8000c930d920a9c0b9d0c9a0d9ba4185d41c6
:102ed800002d02d15b4b9c4221d95a4a0023200085
:102ee800290010f059ff574a0790002320002900b5
:102ef80010f052ff049b10a99b005a507f23791ea3
:102f08000b4004998b420dd1b1426fd0002a00d1f9
:102f18000f007f23049a013a1a400492c6e7220060
:102f28000795e7e7049ab242f3d1079a002a19d025
:102f38007f21009a013e093200920e40b7420dd11e
:102f48001f005a1e0a40920010a8105899000490b9
:102f580010a809580498014310a811500799b30004
:102f680010aa9950009b112b97dd122b05d1b300a5
:102f780010a9354a5b5893428fd90125be4213d018
:102f880010aab3009b58304a93420dd92f4a934256
:102f98000dd17f22731c13409f4205d09b0010a9be
:102fa8002b4a5b58934202d8009b122b52d0009bad
:102fb8002a001b2b00dd0922039b00219b18039389
:102fc8002b009340013b07931e4b1341089333009a
:102fd800bb420dd10029d1d07f207a1c0240b242d9
:102fe80023d0bf0010abd9511700c7e733009ce7c7
:102ff80098008446644610a820580490d040401891
:1030080010a96050049c07992140089c6143b34271
:1030180007d1002805d17f2600985c1c0938264076
:1030280000907f2001330340d2e77b1e03409b00c2
:1030380010aad25810a904922a43ca509ee7c04643
:103048004c51010000ca9a3b5e7089005f7089008c
:10305800ff092f0fbe4207d17f27721c174000229d
:103068007b1e9b0010a9ca50b30010aad05813f0b9
:103078000bf80022002307f08df87f23721c1a40fa
:103088000092ba4206d1002201371f407b1e9b00e6
:1030980010ace25000228d4b07f06cfe04000d00ce
:1030a800009b10aa9b00985812f0eeff22002b00fc
:1030b80007f070f804000d00969812f0f3ff220054
:1030c8002b000490059107f055fe039b0e9a3533ab
:1030d8000f939b1a069a089009910a93934200db72
:1030e800bbe0002b00dabce0009301230793009bb0
:1030f800342b00ddbae06922009b0020d21a744903
:103108000ff0f8fe089a099b13f062fc3522009b29
:103118000c900d91d21a00206d490ff0ebfe0200c1
:103128000b000898099913f079fe02000b000400bf
:103138000d000898099913f05bfc02000b000c982d
:103148000d9907f027f8089009917f21b21c0a40d1
:10315800ba4233d0920010abd3585e4a934200d99a
:103168008be0002b03d1f31c0b40bb420dd0002297
:10317800594b0498059907f0fdfd02000b0020004b
:10318800290007f007f804000d003523009a9b1a60
:10319800012b13dd00224e4b2000290013f03efec8
:1031a8000022002311f082fe002807d02000290009
:1031b8000022474b06f0eeff04000d00089809991d
:1031c8000e9b069a5b429b1a049322002b0006f082
:1031d800e1ff0c9a0d9b13f00bfc049b06005a1e92
:1031e8000f9b0f005b005b089a4230dc13f012fe65
:1031f80000223a4b10f00cfc002814d0079b002b3f
:1032080006d0009a0a9b9b1a1a00531e9a410792ed
:10321800334b30003900002207f0acfd06000f00e8
:10322800039b01330393049a039b03323433934281
:103238000ada079b002b0ad000220023200029006d
:1032480011f034fe002802d12222264b1a60039a7c
:103258003000390013f0dafd31e0069b00930023bb
:1032680044e7012307930023009344e70024002345
:1032780025000c930d941c0067e71b4a934202d06b
:1032880000221a4b75e7f31c0b400022bb42f8d111
:10329800134b6ee7002809dbe36c002b02d0e36bcd
:1032a800013be363079b002b00d04ee416220d4b35
:1032b8001a600021200012f037ff0020002191231e
:1032c8009b009d44f0bd0028e6da3ee465cdcd4183
:1032d8000000f03fff64cd1d0000d03f00004043d8
:1032e8000000e03f843f00200065cd1d0000e83f5e
:020000040000fa
:1032f8003e000000446174616c6f6720536572760c
:10330800696365206e6f74207265616479210d0aa6
:103318004170706c69636174696f6e2077696c6c59
:103328002072756e20776974686f75742073746f76
:1033380072616765206361706162696c697469654f
:10334800730d0a00252d3130730d0a252d313058a3
:103358000d0a0000436f756c64206e6f74207265ef
:103368006164207265676973746572202530326400
:103378000d0a0000252d313073252d313073252d90
:10338800313073252d3130730d0a0000252d313071
:1033980058252d313058252d313058252d313058ac
:1033a8000d0a0000252d313073252d313073252d60
:1033b8003130730d0a000000252d313058252d318c
:1033c8003058252d3130580d0a000000252d313098
:1033d80073252d3130730d0a00000000252d313082
:1033e80058252d3130580d0a00000000252d3130a8
:1033f800730d0a00252d3130580d0a0025730d0a6a
:1034080025580d0a000000004d6574657220494476
:103418002069733a0d0a000025730d0a00000000a8
:1034280050726573656e742052544320697328790d
:10343800792d6d6d2d64642068683a6d6d3a7373eb
:10344800293a0d0a00000000253032752d2530324a
:10345800752d2530327520253032753a2530327574
:103468003a253032750d0a00544f55207461626c4c
:10347800652069733a0d0a00544f5525643d25307f
:1034880032643a253032642054256420000000005c
:103498000d0a00004c617374202564204d6f6e7412
:1034a8006820456e657267792069733a0d0a0000d5
:1034b80054543d252e32666b57682054313d252ed5
:1034c80032666b57682054323d252e32666b57683a
:1034d8002054333d252e32666b57682054343d25e1
:1034e8002e32666b57680d0a000000004c61737439
:1034f8002025642054696d657320556120536167e8
:103508002069733a0d0a00004c6173742025642009
:1035180054696d6573205562205361672069733a59
:103528000d0a00004c6173742025642054696d6590
:1035380073205563205361672069733a0d0a0000b0
:103548004c6173742025642054696d657320506143
:1035580020726576657273652069733a0d0a0000fa
:103568004c6173742025642054696d657320506222
:1035780020726576657273652069733a0d0a0000da
:103588004c6173742025642054696d657320506301
:1035980020726576657273652069733a0d0a0000ba
:1035a800546f74616c204e756d3d256420000000d9
:1035b80073746172742074696d6520697320696e13
:1035c80076616c6964200000737461727420746998
:1035d8006d6520697320253032642d2530326420d2
:1035e800253032643a25303264200000656e64204c
:1035f80074696d6520697320696e76616c69640d04
:103608000a000000656e642074696d652069732086
:10361800253032642d2530326420253032643a2535
:103628003032640d0a0000004d6178696d756d20b7
:103638006e756d626572206f66207265706f727448
:103648006564206576656e74732065786365656466
:1036580065643a2031300d0a000000004c61737433
:10366800202564204d6f6e7468204d617844656d27
:10367800616e642069733a0d0a00000054543d25b8
:103688002e33666b572025642d256420253032643f
:103698003a253032642054313d252e33666b57204d
:1036a80025642d256420253032643a253032642083
:1036b80054323d252e33666b572025642d25642012
:1036c800253032643a253032642054333d252e3378
:1036d800666b572025642d256420253032643a25f1
:1036e8003032642054343d252e33666b57202564d0
:1036f8002d256420253032643a253032640d0a00c5
:1037080050726573656e7420766f6c74616765209e
:103718006973203a0d0a55613d2b252e33665620d4
:1037280055623d2b252e3366562055633d2b252e9d
:103738003366560d0a00000050726573656e74207a
:1037480063757272656e74206973203a0d0a496157
:103758003d2b252e3466412049623d2b252e3466ab
:10376800412049633d2b252e34664120496e3d2575
:103778002b2e3466410d0a0050726573656e7420f5
:1037880061637469766520706f776572206973204c
:103798003a0d0a50743d2563252e33665720506133
:1037a8003d2563252e3366572050623d2563252e1f
:1037b8003366572050633d2563252e3366570d0a1f
:1037c8000000000050726573656e742046756e6463
:1037d800616d656e74616c206163746976652070d3
:1037e8006f776572206973203a0d0a4650743d253b
:1037f80063252e336657204650613d2563252e33b9
:103808006657204650623d2563252e33665720466d
:1038180050633d2563252e3366570d0a00000000ce
:1038280050726573656e742072656163746976653c
:1038380020706f776572206973203a0d0a51743dc4
:103848002563252e3366572051613d2563252e3388
:1038580066572051623d2563252e336657205163f4
:103868003d2563252e3366570d0a00005072657397
:10387800656e74206170706172656e7420706f7708
:103888006572206973203a0d0a53743d2563252e0d
:10389800336656412053613d2563252e33665641d4
:1038a8002053623d2563252e336656412053633de0
:1038b8002563252e336656410d0a00005072657344
:1038c800656e74206672657175656e6379206973bb
:1038d800203a200d0a467265713d252e3266487ad7
:1038e8000d0a000050726573656e742074656d7002
:1038f80065726174757265206973203a20256325a5
:103908002e31660d0a000000566f6c7461676558a9
:103918002076732043757272656e745820616e67e5
:103928006c65206973203a200d0a416e676c655feb
:1039380056412d49413d2563252e336620416e674a
:103948006c655f56422d49423d2563252e3366201e
:10395800416e676c655f56432d49433d2563252eaf
:1039680033660d0a00000000566f6c7461676520ad
:10397800616e642063757272656e7420616e676c27
:1039880065206973203a200d0a416e676c655f56a1
:10399800412d56413d2563252e336620416e676cc7
:1039a800655f56422d56413d2563252e33662041dd
:1039b8006e676c655f56432d56413d2563252e3352
:1039c800660d0a00566f6c7461676520616e64202d
:1039d80063757272656e7420616e676c65206973b9
:1039e800203a200d0a5046743d2563252e33662063
:1039f8005046613d2563252e3366205046623d259d
:103a080063252e3366205046633d2563252e336695
:043a18000d0a000093
:020000040000fa
:103a1c00f0b595b004000492022900d92ee1ba4bfe
:103a2c005a1c5218d27f490052b2591812922422b1
:103a3c008b5e0a93e36be26c93422ed25a1ce263c8
:103a4c001d78202df6d02b00093b042bf2d9012236
:103a5c002b2d27d0069202232d2d24d00027202396
:103a6c00aa4a2b43d25d93422cd0032f03d043d9c7
:103a7c00049b002b42d0e26c002a02d0e36b013b8a
:103a8c00e363049b002b2ad0032f28d0002a02d0fa
:103a9c00e36b013be363013ff6e720000ef018fff8
:103aac000500cee70023d31a0693e26ce36b934236
:103abc0003d25a1ce2631d78d0e720000ef008fff9
:103acc000500cbe77e1c072f09d0e36be26c934219
:103adc000dd25a1ce2631d783700082ebfd1069b0d
:103aec000020013300d1ace2894915b0f0bd2000b3
:103afc000ef0eefe0500efe7002f16d0e36c002b66
:103b0c0000d1b4e0e36b013be363b0e07e1c022f19
:103b1c0000d1a3e2e36be26c93426ad25a1ce263db
:103b2c001d783700032e00d198e22023794a2b43cd
:103b3c00d25d9342ead0002fe0d1129b0b93302d33
:103b4c0000d073e2e36be26c934200d3a1e05a1c09
:103b5c00e26318782023e26c0343782b00d060e2f8
:103b6c00e36b934200d398e05a1ce263187800236d
:103b7c000f93302800d194e02e2800d19ee0002233
:103b8c000023089209930e93002300221393624b97
:103b9c000025109211930023002602920393030038
:103bac00303b0c93092b00d8c0e020230343613b2e
:103bbc00052b00d8bae02e2800d1b9e00f9b002bc2
:103bcc0000d020e1e36c002b00d13ce2049ae36bc3
:103bdc00002a00d110e10e9a002a00d00ae1023b23
:103bec00e363069812f05cfa0022002307f0c0f899
:103bfc007be720000ef06cfe050092e75a1ce26396
:103c0c0018782838431e9841c0b20125002809d0e5
:103c1c00e36c002b02d10020404966e7e36b013bcb
:103c2c00e363f8e7e36be26c934211d25a1ce26354
:103c3c0018780300303b092b08d9202302009a4343
:103c4c001300413b192b01d95f2805d10135e9e758
:103c5c0020000ef03dfeece72928dcd0e26c002ab7
:103c6c0002d0e36b013be363049b002b0ed11622c5
:103c7c002b4b1a600021200012f054fa0020002176
:103c8c0033e7002a02d0e36b013be363013df8d23a
:103c9c00c1e720000ef01cfe5ce720000ef018fec1
:103cac0065e7e36be26c934204d25a1ce26318782a
:103cbc0001235de720000ef00bfef9e7e36be26ced
:103ccc0093420dd25a1ce26318780022002301257e
:103cdc006d42ee1708920993302805d0012352e764
:103cec0020000ef0f5fdf0e7e36be26c934219d285
:103cfc005a1ce2631878089a099b5219734108926e
:103d0c00099301230f93e7e74c5101006a6a010004
:103d1c000000f07f736a01000000f03f0000f87fa4
:103d2c00843f002020000ef0d3fde4e72e2813d1b1
:103d3c000e9b002b00d08be10c950d9601330e934e
:103d4c00e36be26c934251d25a1ce26318780895eb
:103d5c0009960c9d0d9e22e7392803dd2023034391
:103d6c00573b0c93002e2adc01d1072d0dd80c9b50
:103d7c003f01df190122002352197341089d099e4e
:103d8c000c920d9301230f93dae70d2d17d8109891
:103d9c0011990022b64b06f0ebff109011910c9884
:103dac0012f07ef9109a119b06f0e2ff02000b0054
:103dbc000298039906f0ecf902900391dae70c9b58
:103dcc00002bd7d0139b002bd4d110981199002223
:103ddc00a84b06f0cdff0b0002000298039906f0e9
:103dec00d7f90123029003911393c3e720000ef03f
:103dfc006ffdace7033bf3e6013be36300212000de
:103e0c0012f090f9ede60e9b002b01d10895099666
:103e1c000122002302e0ad185e413f01002e02dcbe
:103e2c00f9d1072df7d92026304370280dd10499ec
:103e3c00200007f017fe00280fd180231b069942a3
:103e4c000bd1049b002b00d114e7e36c002b02d0a8
:103e5c00e36b013be36300200021002f00d1c0e69f
:103e6c00089a099b08246442e51712196b41140047
:103e7c00960f9b003343a20012184b4104920593fa
:103e8c000a9b05995b42da17914203dc11d1049a23
:103e9c009a420ed92222784b06981a6012f000f939
:103eac000122764b524206f063ff0122734b5242c1
:103ebc009ce60a9b05996a3bda178a4203dc33d1ec
:103ecc00049a934230d922226b4b06981a6012f056
:103edc00e7f8802300225b0306f04aff80230022d0
:103eec005b0383e6002202980399624b0ff08efd70
:103efc007f00002800d189e0029803990022604bd2
:103f0c0012f074fd013702000b000298039906f0c1
:103f1c003ff901225242d31702900391049805995c
:103f2c008018594104900591002fdbda049805990b
:103f3c00129b2022dc17002312184b410a98c11740
:103f4c00121a8b419c4203dc08d11299914205d97b
:103f5c00049b0a9a9b1a20330b935cd40b9b342b37
:103f6c005cdc54220b9b0020d21a45490ef0c0ff9a
:103f7c00040006980d0012f093f80b0002002900c3
:103f8c00200012f023fd0b9b04000d001f2b0edcf8
:103f9c00029803990022002310f086ff002806d116
:103fac00fb0704d4002200230292039301370698e6
:103fbc0012f076f8029a039b0690079106f0d8fe51
:103fcc0002900391380012f05df8069a079b06f0f8
:103fdc00cffe22002b0006f0dbf8029a039b06f0c2
:103fec00d7f822002b0012f001fd00220023040060
:103ffc000d0010f059ff002802d022221e4b1a602f
:10400c00049a2000290012f0fffe6ee5029a039b31
:10401c00100019007be700230b93a2e70024002576
:10402c00c5e7002a02d0e36b013be363049b129ac1
:10403c000193069b2900009320000a9bfef72efd9e
:10404c0053e5104951e5049b002b00d0c9e5d5e69a
:10405c000f9b2e20002b00d0dae6b3e5e36be26c6d
:10406c00934200d2cae520000ef032fcc9e5c046ee
:10407c000000b03f0000e03f843f0020ffffef7fd7
:08408c000000f03f0000f0ff0e
:020000040000fa
:1040940070b582b0c14adf23d05cc0b2092800d910
:1040a400a9e28300be4ad3589f46bc4adf230121bc
:1040b400d15402b070bdb94acc23d35adb0710d413
:1040c400b64bdf220721995401320539995408323d
:1040d4006231995068315a5a012082435a52002061
:1040e400e7e712f01bfd03280dd8ac4b1868ad4a66
:1040f40000210bf081fa0028e2d0a84adf2309212d
:10410400d1540020d5e712f0fdfca74910f06cfb58
:10411400ebe7a24acc23d35a1b0716d49f4b8a221f
:104124009a5a92b29a8196229a5a92b21a838c22fd
:104134009a5a92b2da81df2203219954c9315a5a28
:10414400082082435a520020b3e712f0e7fc032808
:1041540023d8924d8a23ea5a92b2022128680bf09e
:104164004bfa04009623ea5a92b2032128680bf012
:1041740043fa631e9c4104438c23ea5a92b2286892
:1041840004210bf039fa631e9c410443c6d0834ad0
:10419400df230921d15400208be712f0b3fc8349bb
:1041a40010f022fbd5e77d4acc23d35a9b0605d4d5
:1041b4007a4adf230521d15400207ae712f0aefcbd
:1041c400032871d8754d7a4a202128680bf014fa17
:1041d4000400a223ea5a92b2212128680bf00cfab7
:1041e400631e9c410443a423ea5a92b22221286804
:1041f4000bf002fa631e9c410443a623ea5a92b2ce
:10420400232128680bf0f8f9631e9c410443a8237a
:10421400ea5a92b2242128680bf0eef9631e9c41fd
:104224000443aa23ea5a92b2252128680bf0e4f940
:10423400631e9c410443ac23ea5a92b226212868a7
:104244000bf0daf9631e9c4104439823ea5a92b2b4
:10425400272128680bf0d0f9631e9c4104439a235c
:10426400ea5a92b2282128680bf0c6f9631e9c41d1
:1042740004439c23ea5a92b2292128680bf0bcf922
:10428400631e9c4104438e23ea5a92b228682b2170
:104294000bf0b2f9631e9c4104430bd03f4adf2369
:1042a4000921d154002004e712f02cfc414910f0fc
:1042b4009bfa87e7394ba2229a5a92b21a87a42210
:1042c4009a5a92b21a875a87a6229a5a92b29a870f
:1042d400a8229a5a92b2da87aa229a5a92b2402112
:1042e4005a52ac229a5a92b202315a5298229a5a8b
:1042f40092b25a839a229a5a92b29a839c229a5ad6
:1043040092b2da838e229a5a92b21a82df223e390c
:1043140099540020cde612f001fc03281fd86b4607
:104324009e1d1e4d32002c2128680bf0a5fc0400b4
:1043340032882c2128680bf05ff9631e9c410443ea
:1043440028681d4a20210bf057f9631e9c41044341
:104354000bd0124adf230921d1540020a9e612f020
:10436400d1fb164910f040fad9e76b46da880b4bbb
:104374005a82df2205219954c7315a5a2020824398
:104384005a52002095e6054acc23d35a5b0617d42b
:10439400024adf230821d15400208ae6883600200f
:1043a400fc5401009a78000094fa0000a8fa000076
:1043b40078560000c4fa000065870000dcfa0000ab
:1043c40012f0acfb032871d88c4d8d4a302128683b
:1043d4000bf012f90400ae23ea5a92b23121286894
:1043e4000bf00af9631e9c410443b023ea5a92b2cb
:1043f400322128680bf000f9631e9c410443b22368
:10440400ea5a92b2332128680bf0f6f8631e9c41f5
:104414000443b423ea5a92b2342128680bf0ecf82e
:10442400631e9c410443b623ea5a92b2352128689c
:104434000bf0e2f8631e9c410443b823ea5a92b29b
:10444400362128680bf0d8f8631e9c410443ba2334
:10445400ea5a92b2372128680bf0cef8631e9c41c9
:104464000443bc23ea5a92b2382128680bf0c4f8fa
:10447400631e9c410443be23ea5a92b23921286840
:104484000bf0baf8631e9c410443c023ea5a92b26b
:1044940028683a210bf0b0f8631e9c4104430bd00a
:1044a400564adf230921d154002002e612f02afbe8
:1044b400544910f099f987e7504bae229a5a92b2b8
:1044c4005a84b0229a5a92b29a84b2229a5a92b2d6
:1044d400da84b4229a5a92b21a85b6229a5a92b2bd
:1044e4005a85b8229a5a92b29a85ba229a5a92b2a4
:1044f400da85bc229a5a92b21a86be229a5a92b28b
:104504005a86c0229a5a92b29a86df220621995478
:104514000020cee512f002fb03281fd86b469e1d37
:10452400364d32003b2128680bf0a6fb040032888c
:104534003b2128680bf060f8631e9c410443286803
:10454400314a30210bf058f8631e9c4104430bd0d0
:104554002a4adf230921d1540020aae512f0d2fa15
:104564002a4910f041f9d9e76b46da88234b9a823d
:10457400df2208219954c4315a5a402082435a52a6
:10458400002096e512f0cafa03000020032b00d89d
:104594008fe512f0b7fa1e4910f026f9002088e5dd
:1045a400164ae423d058431c05d011f039fe0028e4
:1045b40006d100207de5174948680ef0cbfbf8e7eb
:1045c4000e4be422012149429950043a9a5cd2b23a
:1045d400e0315a5400206ce512f0a0fa12f092fa7d
:1045e4000d4910f001f9054acc23d15a0121494261
:1045f400d15201205de500205be5c04688360020ed
:1046040078560000ecfa00006587000004fb000007
:0c46140014fb00006c37002024fb0000a9
:020000040000fa
:10462000f0b5c64600b58cb0d84b1a780c2a4fd8d6
:104630009300d74ad3589f4612f0c0fa072847d1b3
:10464000d24b01221a7043e0d04ab5235b0000210f
:10465000d15403200ff0bcff002803d1cb4b022222
:104660001a7035e0cb480323037000234370ca4c13
:10467000c4602c334381c94b4360ff2343720372f0
:104680000ff0dcf8a93cff3c0d23237020e0bf4a6b
:10469000b5235b00d35c002b1ed0bf480ff0bcfde0
:1046a000002800d05ce2bc4c20000af093fd200002
:1046b0000ff0b2fd0028f7d0b74810f067f90021dd
:1046c000b74812f0e5f910f0fffcb04b03221a7066
:1046d0000cb004bc9046f0bdaf4c20000af07afd4f
:1046e00020000ff099fd0028ddd0ab4810f04ef906
:1046f0000021ab4812f0ccf9e5e7a44ab5235b00f2
:104700000021d15402200ff063ff002803d19f4bfa
:1047100004221a70dce79f480223037000234370d1
:10472000a04cc460103343819f4b4360ff2343720e
:1047300003720ff083f8143c0d232370c8e7934de8
:10474000b5246400285d0ef085fa2b5d002b03d0a4
:104750008e4b06221a70bbe710f0a0fcf8e78b4bdb
:10476000b52252000021995401a94e329a580132c3
:104770004a70de2252009b58643b0b7006200ff0fb
:1047800027ff00280ad0894c20006830210010f053
:10479000e3f8413cff3c0d23237099e7834c200054
:1047a0006830210010f010fb413cff3c05232370d2
:1047b0008ee7764bb52252000021995401a94e3262
:1047c0009a5801324a70de2252009b58643b0b70ab
:1047d00007200ff0fdfe00280ad0754c2000853020
:1047e000ff30210010f09ef8243c0d2323706fe76a
:1047f0006f4c25008535ff352100280010f0ccfadc
:1048000028000cf04fff243c0823237060e7694a1e
:104810002823d45c002c00d15ae71500166a082220
:104820003100654811f070ff013c2823ec54183525
:10483000ae424bd008365f4b1e62574c20000cf046
:1048400031ff20000bf078f92300a93bff3b420029
:1048500012189a18147d013ce4b21c73b222520063
:10486000995801318846995022002832d2009a186e
:1048700000215868156856684019714110605160f0
:10488000b022520099589d68ac4661440800995086
:1048900008329d5c002d1cd13c4a6a23ff33d35c57
:1048a000002b00d114e714006a23ff330022e254e6
:1048b00020004130ff302032002111f02fff200076
:1048c00024302822002111f029ff01e7394b1b6217
:1048d000b3e72e4fb4235b000022fa5441460cf09c
:1048e00025f8d6235b00fe58002e67d1743bf850a4
:1048f0002d2213329200254bd2180f23002002ca1a
:104900004018013bdbb2002bf9d196210cf00ef8d8
:10491000621dd2001d4b9b185a680023904212d989
:104920001a4b0534e4001c196060dc2252009a58ce
:104930002272da2252009a586272d82252009b5890
:10494000a372e6722b00114a526a904249d90f4b6a
:104950005862dc2252009958913aff3a99548d32ac
:10496000ff3299588c3aff3a99548832ff3299585d
:10497000873aff3a995401329e54002e4ed00c498a
:1049800008008530ff3010f007fa2ee0802100206b
:10499000c0490100b43e002028230020cd5f010063
:1049a0007924010094210020e95f0100c022002049
:1049b000a42100204c3d002084210020731edbb286
:1049c0001900123189006a4a521850602d222c2b8e
:1049d0008fd80f3a1d2e8cdc00220e2e89dd0f326f
:1049e00087e7002e19d0002bc9d1614b0022b021de
:1049f00049005a5004315a50ad32ff329b58002bb7
:104a000013d05b4a80239b00d35c002b13d0013b67
:104a10001100802292008b543ee71d00f0220021fd
:104a2000544811f07bfe2b00dde753490800683045
:104a300010f0caf9e5e74e4a80239b003c21d1548f
:104a400010f042fb28e74a4bb5225200002199544e
:104a50004a4a0131995401a9763a9a5801324a706a
:104a6000c82252009b58643b0b7007200ff0b0fd2a
:104a7000002803d13e4b0a221a7029e63c4cb82389
:104a80005b00e15820007d30ff300ff04bff0d231d
:104a900023701de6364cb5235b00e15c20007d30c1
:104aa000ff300233e35898470823237010e601a82b
:104ab0000cf0f8fd2e4ac6235b00d358059a9a42a3
:104ac00006d12b49c82252008a580699914218d023
:104ad000274ab5214900002050542949013050543b
:104ae000013369464b70c8235b00d358643b0b709d
:104af00005300ff06dfd002819d11d4b0c221a70e6
:104b0000e6e51b49bc235b00c8580b004133ff336b
:104b1000020031cb31c231cb31c211cb11c2b5232e
:104b20005b000122ca545f3bff3b0b70d0e5104c89
:104b3000bc235b00e15820007d30ff300ff00cfffc
:104b40000d232370c4e50a4cb5235b00e15c200013
:104b50007d30ff300a33e358984708232370b7e5c8
:104b600008480ff013ff0021074811f091fface552
:104b700080210020cc210020c02200200202000061
:0c4b80000102000028230020792401001d
:020000040000fa
:104b8c00f0b59bb013930b6815900a938b680d913d
:104b9c000b930b694d681893cb68029313680893b9
:104bac005368089806930022002306990ff050f9d9
:104bbc0000280dd10a9b5b073bd408200a9b0340bd
:104bcc0009930b9b0393099b002b0fd0202306e02a
:104bdc00802212069446069b634406932d23029a68
:104bec0013700b9b013b039301230993069b0899bc
:104bfc005b005b08924a00291dd193421bd102999c
:104c0c00139b8c46099a413b624410008d49192b29
:104c1c0000d98d4911f0f6ff029811f0e1fb0a9bc7
:104c2c000200009302990b9b15980cf091fb1bb0a2
:104c3c00f0bd2b23d3e7934203d80ed1089b002b56
:104c4c000bd00299139b8c46099a413b624410008d
:104c5c007e49192bded97e49dce700220023089817
:104c6c00069910f021f900267a4f002400283ed135
:104c7c00040002e00134049e059f0022764b3000b4
:104c8c00390006f075f8089a069b049005910ff010
:104c9c00c0f80028eed00023049320e06f4b9c4218
:104cac0014da049b002b11d100226d4b0898069945
:104cbc0006f05ef86a4b089006913000390000222d
:104ccc0006f056f8012306000f000493300039005b
:104cdc000022614b09f04afc06000f00013c320037
:104cec003b00089806990ff0b3f80028d6d113981a
:104cfc0011f0a7fec3b20c93002d00da94e10493db
:104d0c00672b00d0b2e0002d00d189e1231d02db1e
:104d1c00ac4200daa6e06523b6e0002200230e9236
:104d2c000f9303e106960797049b2600652b00d092
:104d3c001ae1002618e1129b002b0bd1002e09da88
:104d4c00029a14992e335354039b0137013b03935e
:104d5c0001231293ea193b009446302102e0029a97
:104d6c00d15401339c45fad1039aeb19551b029a85
:104d7c0030305f1cd0546b1e0393002521e00d9b3b
:104d8c0014971b691093053bbb4200d8f5e0069abb
:104d9c00079b08980e9909f0e9fb0af06ffa10903e
:104dac0011910ff055fe092800dd092010230a9af5
:104dbc0013400343bfd10c9b672bbcd1002ec9da27
:104dcc0001358020000684460e99089a61440b0038
:104ddc001098119900920193069a079b11f0fefd11
:104dec0080231b06cb1808900e9306980799002277
:104dfc00194b09f0bbfb013e06900791b9e00a9be9
:104e0c00db0600d4bde02e23029ad3550137b8e05f
:104e1c0020000a210af0dcfd029b3031013d59557e
:104e2c0020000a210af08afd039b0400013b039336
:104e3c00b7e0029b03991a5c5b181a540138e0e046
:104e4c000000f07fb8690100bc690100c069010075
:104e5c00c46901000000f03f00002440d4feffffb5
:104e6c0000005043002c0eda66230493049b01359a
:104e7c00662b0ad1002c02da002600246d4f0c9b05
:104e8c00672b00d02d1966230493089b0e960f9761
:104e9c001293069b1093002314930e9a0f9b129857
:104eac00109909f063fb0af0e9f9169017910ff0cd
:104ebc00cffd19908020000684461099129a614407
:104ecc000b0016981799009201930e9a0f9b11f0f4
:104edc0085fd80231b06cb18129010930e980f990a
:104eec00554b002209f042fb149b0e900f9101339d
:104efc0014939d42d1d10022504b05f039ff0e90f6
:104f0c000f9102000b00129810990ef0a1ff0028cf
:104f1c0000d002e70e9a0f9b129810990ff0c4ff65
:104f2c00002803d0199bdb0700d4f6e60e9a0f9be2
:104f3c000898069905f02cf9002208900e913e4b2a
:104f4c003000390005f014ff089a0e9b069007916b
:104f5c000ef03afd002800d1e4e6049b0134662be8
:104f6c0000d0e1e626000135731b0025099f16933e
:104f7c001295169b9e4200d001e7129b002b00d18c
:104f8c003de70026029bdb1906931e70049b652be4
:104f9c002ad1189b5d1e029b5e55b44201da644215
:104fac000136002c00d033e7189beb1a0333002b8f
:104fbc0000dd2de76a1e2d23002e00d1023b029945
:104fcc00023d8b54139b413b192b01d84523049371
:104fdc00029b5919049b0b70039b023b0393af423a
:104fec0002da069811f00efe03230a9a1340022be4
:104ffc0000d011e6039b002b00dc0de6029811f0ab
:10500c00eff9099b834200dc13e7029a30219446a6
:10501c0063441800039a11f07bfb00230b93fbe510
:10502c00012573e6062571e60c9b672bfad00493d9
:10503c0006251be70000f03f000024400000144050
:020000040000fa
:10504c00f0b5de4657464e464546e0b5bdb0b74bcb
:10505c001b68002b15d1b64b1c68002c05d0b54b2a
:10506c004822944663449a46abe0b3494a780131ee
:10507c00b2480bf0dffc00280bd0ad4b1c68002ca9
:10508c00edd101203db03cbc90469946a246ab46c2
:10509c00f0bdab4b1b78002befd111f03bfd012881
:1050ac0003d8a74b01221a70e7e711f027fda54999
:1050bc000cf004faf5e7002363759e4f26001236b8
:1050cc00a846554603223968300010f0f7f800283e
:1050dc0000d1ece10c37af42f4d1aa460023238275
:1050ec006be00d283cd00a283ad0082800d178e192
:1050fc007f2800d1a7e11b2800d1c3e1e16920235f
:10510c009846a0444346cb1a4f2b00ddc3e1a3695c
:10511c00cb1a00d1bbe14a1ed84309181078507045
:10512c00013a9142fad1e269511ce16100215170be
:10513c00a269013284492000723011f0c4f9712344
:10514c00e75433682100713128009847a3691f7018
:10515c00a3690133a361e26993422ed9e3612ce088
:10516c0020239b46a344e3695b4556d0774928002e
:10517c00336898470023e26913705b46a361e361cf
:10518c002822002108a811f0c3fa6768059751225c
:10519c00594612a811f03cfd0a2208a912a80bf0de
:1051ac00a7fa049000283dd123681b686849380091
:1051bc0098473368674928009847a468002c00d1a9
:1051cc005fe7266865682800f36898470028f4d0e4
:1051dc0028003369984707001021635e002b00d12b
:1051ec007fe7e218907401331db22582032d00d1a4
:1051fc0061e7022de1dde668b3689d42ddd13168df
:10520c002000123011f033f9002803d173683100fb
:10521c002000984700232382cfe733684e492800ab
:10522c009847cae7049b002b05dc23681b684b4995
:10523c0005989847bde7cc23e3582200cc32576839
:10524c00bb423dd079682200cc3251600b60cc233c
:10525c00e35852685a60380008305122594611f010
:10526c00d7fccc23e358002b32d03b60cc2322005c
:10527c00cc3252687a601760e2585760e750d423fa
:10528c000022e250089b0393354f3b002432944696
:10529c006344a0462c001d003968039811f0e7f810
:1052ac0000281dd00c37af42f6d1250044462d4bbb
:1052bc009846a14606955b460793b346464659e089
:1052cc000022cc2162502100cc314a601f00c2e781
:1052dc00cc33e7502300cc335f603f607f60cee778
:1052ec0025004446049b0a2b06dd23685b680a22d2
:1052fc001d49059898475ce77b6808aa04994046c5
:10530c00984756e74c465e46069d23685b680a2222
:10531c001549059898474ce74c465e46069d7b68b8
:10532c0008aa04994846984743e7c046ec3d00203c
:10533c001c3f00201c3401007c210020b4650100be
:10534c00923f002068c8000050c900002c050100e5
:10535c008cc800002cc90000046b0100fcc80000c4
:10536c00005701003c380020c4c800001836524bce
:10537c009e422ed07468002cf8d03569002d13d0c5
:10538c005122079927a811f043fc7369009351230c
:10539c0027aa49462000a84700281ed10a2208a99e
:1053ac0027a80bf0a5f90490049b0a2baadc7768bc
:1053bc003468002cdad0089b0393002539680398d5
:1053cc0011f055f80028a7d001350c37a542f5d1be
:1053dc00cce74c465e46069d27e74c465e46069d4e
:1053ec00e7e6a16923002033994200d8e5e6e3699a
:1053fc0099421dd24a1e5b1a06d0581e09185078c5
:10540c00107001329142fad1a269013aa261e269ab
:10541c00013ae26100211170a26928492700713715
:10542c00380011f050f83368390028009847c4e66a
:10543c003368234928009847a369013ba361e369ba
:10544c00013be361b9e6e369a269934200d8b4e693
:10545c00511c5b1a05d0d018517811700132824260
:10546c00fad1e269013ae26100211170a269154991
:10547c0027007137380011f026f8336839002800fe
:10548c0098479ae61b23a3740123238295e6722383
:10549c000022e25453e60c492800336898474346ef
:1054ac00a361e361336809492800984785e6aa4659
:1054bc004546e7609fe6c046fc38002030c9000036
:1054cc003cc9000044c9000058c900002cc90000a8
:020000040000fa
:1054dc00f0b599b014930b68566809934b68139008
:1054ec000d938b68cf680c930b6931001193136883
:1054fc0000220893089800230ef0aafc00280cd177
:10550c00099b5b0724d40820099b0c9d0340059341
:10551c000cd02023013d3b7006e080231b06f618bf
:10552c002d233b700c9b5d1e01230593089a730081
:10553c005b08002a0ed1ac4a93420bd1149b059afe
:10554c00413bb818a94caa49192b12d9210010e0db
:10555c002b23e6e7a44a934203d819d1089b002bce
:10556c0016d0149b059a413bb818a24ca249192b92
:10557c00ecd811f047fb200010f032ff099b020021
:10558c00009339000c9b13980bf0e2fe19b0f0bda0
:10559c00059b05995a1c30237b54149b413b0e935d
:1055ac000e995823192900d920330599bb5402317f
:1055bc00ab1e0591079300220023089831000ff0d1
:1055cc0073fc002800d165e100238c4c06930293f8
:1055dc0003940d9b1093002b01da18231093029b5c
:1055ec00039c0a930b9434000023089d129328000b
:1055fc000a9a0b9b210008f0b9ff09f03ffe0a9aaa
:10560c000b9b1690179105f0b3fb02000b002800c2
:10561c00210011f0ebf97a4b05000c000a980b995c
:10562c00002205f0a5fb129b0a900b9101330f93fe
:10563c000d9b002b07da00220023280021000ff01d
:10564c0033fc002806d1109b129a934200dd27e10f
:10565c0001330f9300220a980b996a4b05f088fbd3
:10566c000a900b9102000b00280021000ef0f0fbb9
:10567c00002800d016e10a9a0b9b280021000ff09d
:10568c0013fc002806d0169817990ff0e1f9c30700
:10569c0000d407e10a9a0b9b0898310004f078fdbe
:1056ac00129149000a904908002803d14e4b9942a7
:1056bc0000d143e70025059c10950895119b260009
:1056cc00053ba34230d9029a039b0a98129908f021
:1056dc004dff09f0d3fd149015910ff0b9f9031e8d
:1056ec0000d0e4e0089a002a00d1e0e00135029aeb
:1056fc00039b1498159905f03bfb02000b000a98cc
:10570c00129911f073f900220a9012913c4b0298f5
:10571c00039905f02dfb089b02900391013308932c
:10572c00089a0f9b9342c9d1109b002b1ad1002dc4
:10573c0000d100e10d9b002b00dcfce0099bdb079a
:10574c0000d5f8e02e2230213b191a702a19ba180c
:10575c00597001339a42fbd12c19ed43079b01344c
:10576c00eb18079300263b191e700293119b5d1ecc
:10577c00069b7e55b34202da5b4206930136069bca
:10578c00002b00d0c0e0119beb1a013300d1bbe021
:10579c006a1e2d23002e00d1023bbb540e9a023df3
:1057ac005023192a00d9203379190b70ac4202da34
:1057bc00029811f027fa0323099a1340022b11d1f6
:1057cc00079b9c1e002c0ddd380010f009fe059b7c
:1057dc00984200dba8e0f8182200302110f098ff66
:1057ec0000230c933800c7e60000f07fac69010081
:1057fc00a8690100b4690100b06901000000f03f24
:10580c000000b03f00002040069b0294039501333a
:10581c000693029a039b1000190004f0b9fc0400d3
:10582c000d0002000b00089831000ef011fb00284f
:10583c00ead0029a039b089831000ef009fb00286d
:10584c0000d1c6e60298039900223f4b05f090fa6e
:10585c00002200230ff028fb00280fd00298039998
:10586c0000223a4b05f084fa002202900391374b48
:10587c000898310005f07cfa0e000890324b029823
:10588c000399002205f074fa069b02900391013be8
:10589c000693cee700232e4c069002930394b8e7b0
:1058ac000f9ba3e6002300240a930b94f2e6109ab4
:1058bc00002a0ad1089a002a07d02e22ba55079a34
:1058cc000134013a0792012210922e19302201e084
:1058dc003a550134b442fbd11800079a5730551b86
:1058ec00092b01dc303318000e9b192b06d8202312
:1058fc000343613b192b01d811f0aaf86b1e741ce1
:10590c00b85507930025f2e606980a210af060f8cc
:10591c00013d3031795506980a210af00ff8079ba2
:10592c000690013b07932ae7079b3a5c023bfb1866
:10593c001a5401384be7099bdb0600d412e72e23df
:10594c003b5501340ee7c0460000e03f00005043d9
:04595c000000f03f18
:020000040000fa
:1059600070b5b4b0e44b5b7dff2b18d109232693af
:10597000269a002122a810f0d1fe202200210ea894
:1059800010f0ccfe2822002104a810f0c7feda4b4c
:105990005a7d142a17d89300d84ad3589f4608f046
:1059a000ccffe3e70ea810f019f90eab16aa002001
:1059b000002130cb001969419342fad109f070fd02
:1059c0003e2010f0affa03a810f0bcfc012011f04b
:1059d000fdf9022011f0faf9042011f0f7f934b0c2
:1059e00070bd0020002109f05bfd3f2010f09afa05
:1059f000e9e70ea810f0f2f81098119909f050fd9f
:105a0000402010f08ffadee70ea810f0e7f81298a9
:105a1000139909f045fd412010f084fad3e70ea850
:105a200010f0dcf81498159909f03afd422010f0b6
:105a300079fac8e7002225a9012010f06bfc0923a0
:105a40002793279d259cae4920000af06fff060092
:105a5000ab4920000af0a6ff08000a210af066ff01
:105a600000903300a74a290022a810f027fd00204b
:105a700010f058fa092010f063fa22a810f0f4fd93
